:100000000C94EA020C9431030C9431030C943103E8
:100010000C9431030C9431030C9431030C94310390
:100020000C9431030C9431030C9463210C9437220B
:100030000C94CE190C9431030C9431030C943103BD
:100040000C9431030C9431030C9431030C94310360
:100050000C9431030C94191A0C9431030C94310351
:100060000C9431030C9431030C9431030C94310340
:100070000C9431030C9431030C9431030C94310330
:100080000C9431030C9431030C9431030C94310320
:100090000C9431030C9431030C9431030C94310310
:1000A0000C9431030C9431030C943103C800BE004E
:1000B000B4000000010255FFFFFF00000000000235
:1000C00000FFFFFF00000000000280FFFFFF0000B4
:1000D000000029001E001F00200021002200230034
:1000E00024002500260027002D002E0031002B00C3
:1000F00014001A000800150017001C0018000C005E
:10010000120013002A002F003500E0000400160042
:10011000070009000A000B000D000E000F0033005D
:10012000280034003000E1001D001B00060019000B
:10013000050011001000360037003800E5000A5DA8
:1001400000000B5D0D5DE3002C620000000000006C
:1001500000002C43E300E2000A5DA8000000290033
:100160001E001F0020002100220023002400250083
:10017000260027002D002E0031002B0014001A004D
:100180000800150017001C0018000C0012001300D6
:100190002A002F003500E0000400160007000900C7
:1001A0000A000B000D000E000F0033002800340081
:1001B0003000E1001D001B000600190005001100C1
:1001C0001000360037003800E5000A5D00000B5DC6
:1001D000E300E2002C6200000000000000002C435D
:1001E000E20065000A5DA800000001003A003B0043
:1001F0003C003D003E003F00400041004200430003
:100200004400450049000100010001000100010017
:10021000010001000100010001004A0052004D00F0
:100220004C0001000100010001000100010001007B
:10023000010001004B0050004F00AA00A90001007E
:1002400001000100010001000100010001000100A6
:100250004E0051000100010000000C5D0100010092
:10026000010000000000000000000C5D0100010022
:1002700001000100000001003A003B003C003D008D
:100280003E003F0040004100420043004400450062
:100290004900010001000100080101000100010006
:1002A0000100010001004B004C0001004C00010066
:1002B000040101004C004F00290050005100520081
:1002C0004F0001000100AA00A90001000100010087
:1002D0000100010050004E00280001000100010053
:1002E00001000C5D000001000100010001000000A0
:1002F0000000000000000100010001000C5D010091
:1003000000000100010001000100010001000100E6
:1003100001000100010001000100010001000100D5
:10032000010001520100005C010001000100010018
:1003300001000100010001000100010001000100B5
:1003400001000100010001000100CD5CC25CC35C42
:100350000100010001000100010001000100010095
:100360000100010000520100010001000100010034
:100370000000010001000100010000000000000079
:100380000000010001000100010001000000000167
:100390000101010101010101020202020202020245
:1003A0000203030303030303030404040404040417
:1003B00005050505050606060606070707070708DB
:1003C000080808090909090A0A0A0B0B0B0C0C0C8E
:1003D0000D0D0D0E0E0E0F0F0F1010111111121228
:1003E00013131414151516161717181819191A1AA5
:1003F0001B1B1C1D1D1E1E1F202021222223242406
:10040000252626272829292A2B2C2D2D2E2F303141
:100410003232333435363738393A3B3C3D3E3F4053
:100420004142434445464748494A4C4D4E4F50513E
:100430005354555658595A5B5D5E5F6162646566F8
:1004400068696B6C6D6F7072737577787A7B7D7E7F
:100450008082838587888A8C8E8F91939596989ACF
:100460009C9EA0A2A3A5A7A9ABADAFB1B3B5B7BAE7
:10047000BCBEC0C2C4C6C9CBCDCFD1D4D6D8DBDDBB
:10048000DFE2E4E7E9EBEEF0F3F5F8FAFDFF040351
:10049000300000000C036A006F006E0065007300FE
:1004A00000001E03540061006B00650073006800CB
:1004B000690020004E0069007300680069006F0049
:1004C00000000403090409023B00020100A0FA092C
:1004D0000400000103010100092111010001224073
:1004E000000705810308000A090401000103000058
:1004F000000921110100012281000705820320006B
:100500000A1201100100000008EDFE0000010001C8
:1005100002030105010902A10185020901A10005EB
:100520000919012905150025019505750181029517
:1005300001750381010501093009311581257F9578
:10054000027508810609381581257F950175088196
:1005500006050C0A38021581257F9501750881066C
:10056000C0C005010980A101850319012AB7001542
:100570000126B700950175108100C0050C0901A185
:1005800001850419012AA002150126A00295017512
:10059000108100C005010906A101050719E029E73E
:1005A00015002501950875018102950175088101E5
:1005B0000507190029FF150026FF0095067508811B
:1005C0000005081901290595057501910295017528
:1005D000039101C011241FBECFEFDAE0DEBFCDBF13
:1005E00004B603FE27C080917E0290917F02A09105
:1005F0008002B09181028730904BA740B04BD1F47C
:1006000010927E0210927F0210928002109281025C
:1006100014BE84B7877F84BF0FB6F894A8958091E5
:100620006000886180936000109260000FBEE0E07F
:10063000F8E3099511E0A0E0B1E0E4E4F9E402C0D8
:1006400005900D92A239B107D9F722E0A2E9B1E0F5
:1006500001C01D92AE37B207E1F70E94941E0C94C0
:1006600068240C9400000F931F93CF938B01FB0120
:10067000C2818C30FDE59F0709F485C090F48A3073
:10068000EDE59E07E9F08B309D4509F45AC0CC2377
:1006900009F4B7C01092970110929401109293013F
:1006A000ADC08D302DE5920709F476C08E309D45A2
:1006B00071F7CC2309F48FC081E08093920171C05F
:1006C000CC23A1F081E080939701FB018381948189
:1006D000909396018093950182E00E945B1644E01E
:1006E00063E082E00E94D204C0E026C082E00E9463
:1006F0007C1644E063E082E00E94D204809197017E
:100700008823C1F0F8018381948120919501309173
:100710009601821B930B883C910560F480E90E944E
:100720005C0F8AE80E945C0F8AE80E94EE0F80E965
:100730000E94EE0F109297018C2FCF911F910F9175
:100740000895CC2329F081E08093940183E0C5CF04
:1007500083E00E947C1644E063E082E00E94D204C1
:1007600080919401882361F081E90E945C0F8BE8FD
:100770000E945C0F8BE80E94EE0F81E90E94EE0F51
:1007800010929401D9CF84E0CC2319F00E945B161B
:10079000ABCF0E947C16D0CFCC2339F081E0809380
:1007A000930182EE0E945C0F9FCF82EE0E94EE0FBB
:1007B00080919301882361F081E90E945C0F8BE8AE
:1007C0000E945C0F8BE80E94EE0F81E90E94EE0F01
:1007D00010929301B1CF82EE0E94EE0F80919201B0
:1007E000882361F080E90E945C0F8AE80E945C0F18
:1007F0008AE80E94EE0F80E90E94EE0F10929201AB
:100800009BCFC1E099CF8CEA90E090939C018093BC
:100810009B010895CF92DF92EF92FF926B017C01D2
:1008200041E00E943116682F81E00E945D0B42E09A
:10083000C701B6010E943116682F82E00E945D0B4D
:1008400043E0C701B6010E943116682F83E00E9481
:100850005D0BC701B601FF90EF90DF90CF90089538
:1008600081E008950C94330308950C9434041F938D
:10087000CF93DF9300D000D00F92CDB7DEB749837E
:100880005A836B833091B60189819A8131111DC0E1
:100890006623B9F02223A9F00E944B17182F682F66
:1008A00089819A810E94F71669817A81812F0F9040
:1008B0000F900F900F900F90DF91CF911F910C949C
:1008C0004F050E942317182FEFCF0E944B17698105
:1008D0007A81EDCFFC01262F4081518162817381A5
:1008E00084810C943704CF93DF93EC0160E00E9485
:1008F0006A04BE01DF91CF910C9435048F929F92D0
:10090000AF92BF92CF92DF92EF92FF920F931F931D
:100910006B017C0181E090E0A0E0B0E04C015D0162
:1009200004C0880C991CAA1CBB1C4A95D2F7B501BF
:10093000A4014C015D0104C0880C991CAA1CBB1CBD
:100940002A95D2F7482959296A297B2904C0880F9A
:10095000991FAA1FBB1F0A95D2F78A019B010C2180
:100960001D212E213F21041715072607370789F47B
:100970008C299D29AE29BF29BC01CD011F910F9162
:10098000FF90EF90DF90CF90BF90AF909F908F90AF
:10099000089580959095A095B0958C219D21AE21CC
:1009A000BF21EACF0F93382F262F60911C02709140
:1009B0001D0280911E0290911F02042F432F0E945E
:1009C0007E040F910C9420160E948218811102C09F
:1009D0000E941F190C9438070C943B0708950C943F
:1009E000EE0481E008950C94F104CF93C82F0E9487
:1009F000EF048C2FCF910C94F30408950E94C6123B
:100A00000E94FD042FEF84E39CE021508040904041
:100A1000E1F700C000000C943D1A0F931F93CF9391
:100A2000DF93EC0161E00E946A048C01BE010E9428
:100A30003204882359F1BE01C8010E94760C882334
:100A400029F1BE01C8010E94B70C8823F9F0BE014C
:100A5000C8010E94DA0D8823C9F0BE01C8010E94B6
:100A6000850B882399F08A81882339F001158CE55C
:100A7000180751F00E3D1C4579F0CE01DF91CF9162
:100A80001F910F910C9430040E94FE0480E0DF91CE
:100A9000CF911F910F9108950E941F19F7CF972FA3
:100AA00070E02EE0929F600D711D1124FB0196E411
:100AB000899FE00DF11D1124EE0FFF1FEE52FF4F35
:100AC000859194910895CF93DF930E944F050E94E2
:100AD0005D06EC01811521E5920708F042C0811501
:100AE00030E5930708F09DC0883E910530F5803EC3
:100AF000910508F092C0883A910588F4853A9105ED
:100B000008F084C08130910509F487C0009709F48A
:100B100084C0049708F081C0D0E0C0E07EC08F3B65
:100B20009105D0F7C85AD0E0CC0FDD1FC65EDE4F6E
:100B30000990D881C02DD46470C08115904250F4C2
:100B4000C11581E0D80708F068C0C03FD10520F387
:100B5000D06563C0C11590E4D907F0F2DF70D06AA8
:100B60005CC0811525E5920700F5811534E59307F2
:100B700008F08BC0811543E5940708F073C0C115D8
:100B800082E5D80708F469C0CE018370992721E077
:100B900030E002C0220F331F8A95E2F7C695C69552
:100BA00080E2C89FE001112454C0C11599E5D9071E
:100BB000A8F4C11528E5D20708F06CC0C11536E5C8
:100BC000D30708F0A9CF8C2F0E94F406C82FD0E0DD
:100BD000DC2FCC27CC27DF71D0621FC0C1154AE5BE
:100BE000D40708F45CC0CE0190568115904208F0FD
:100BF00093CF8D2F8F710E94F40690E0982F882755
:100C000088279F719C012C2BE901E6CFC55AD0E0C3
:100C1000C85BDE4FC881D0E0D064CE01DF91CF91B8
:100C20000895E4E096958795EA95E1F783702C2F77
:100C300026952695237040E2249F90011124382B9D
:100C40008C2F8370C1E0D0E002C0CC0FDD1F8A95ED
:100C5000E2F7C22BD32BDC68E0CFDC2FCC27C16FAF
:100C6000D06ADBCF8370992721E030E002C0220FE9
:100C7000331F8A95E2F7C695C69590E2C99FE001B9
:100C80001124C22BD32BDA68C8CFD82FCC27C46F3E
:100C9000D06AC3CFDC2FCC27C06FD06ABECF8C2FD9
:100CA0008F700E94F40634E0D695C7953A95E1F727
:100CB000CF709C2FEC01D069B0CF82389105B1F193
:100CC000B0F48133910509F475C048F48932910577
:100CD00009F469C08A32910509F473C00895853317
:100CE000910509F459C08933910501F10895833EB6
:100CF0009105A9F138F4803E9105F9F0823E910505
:100D000049F10895863E9105A9F1873E9105C9F103
:100D1000843E910519F52091700221FF1FC080913A
:100D20006F0284FD14C087EE90E0089520916F0259
:100D30002370A1F080EE90E0089520916F0220FDD5
:100D400047C03091700230FF09C024FF44C090E0DA
:100D500080E004C020916F0222FDF7CF089520911A
:100D60006F0222FD3BC03091700230FDE3CF24FFC3
:100D7000F5CFEDCF20916F0223FFF0CF24FDE7CF19
:100D8000D2CF20916F0223FD2CC03091700231FF31
:100D9000EECF84EE90E0089520916F0225FFDECF24
:100DA00089E290E0089520916F0225FFD7CF85E377
:100DB00090E0089520916F0226FFD0CF8AE290E064
:100DC000089520916F0226FFC9CF81E390E0089536
:100DD00089E390E0089583EE90E0089582EE90E03C
:100DE000089586EE90E0089590916F0292FF06C0FC
:100DF000282F28712830F9F4877F846093FF06C07C
:100E0000282F28712831F1F4877E846120917002A7
:100E100020FF06C0382F38713830D9F4877F8160C1
:100E200021FF06C0282F28712831D1F4877E8161E7
:100E300094FD877E0895282F24712430F9F68B7F46
:100E40008860DCCF282F2471243101F78B7E8861E4
:100E5000DDCF382F3171313019F78E7F8860E0CFC8
:100E6000282F2171213121F78E7E8861E1CF0895ED
:100E70000C94370708950C943A07E82FF0E0EE0F32
:100E8000FF1FEA5AFD4F808191810895089580EAFD
:100E90008A95F1F70895CF93DF93A9E5B1E04EE588
:100EA00051E0C1E0D0E08D91E82FE295EF70F0E0E5
:100EB00061A18F709E0101C0220F8A95EAF7922FDF
:100EC0009095962391A382A1822B82A34A175B0758
:100ED00051F7ABE4B1E061E070E08D91E82FE2956D
:100EE000EF70F0E041A18F709B0101C0220F8A9545
:100EF000EAF7922F9095942391A382A1822B82A34B
:100F000081E0A935B80749F710924D0210924C02C2
:100F1000109257021092560210924F0210924E02F7
:100F200010925902109258021092510210925002DF
:100F300010925B0210925A021092530210925202C7
:100F400010925D0210925C021092550210925402AF
:100F500010925F0210925E0285E00E943A08DF91D3
:100F6000CF910C94E4048F929F92AF92BF92CF9254
:100F7000DF92EF92FF920F931F93CF93DF9389E558
:100F8000E82E81E0F82E0CE412E0912CAA24A39420
:100F9000B12CF70181917F01C82FC295CF70D0E0AD
:100FA00099A18F70650101C0CC0C8A95EAF7892F51
:100FB0008C2989A38AA18C2C809488218AA30E94E1
:100FC0004707EBE4F1E050E040E030E020E06191E1
:100FD000A62FA295AF70B0E090968C9190E06F70C4
:100FE00002C0959587956A95E2F780FD3EC0C501E0
:100FF000042E02C0880F991F0A94E2F7282B392B80
:101000004F5F5F4F4E30510511F789A1882289A2A9
:101010008AA1C82ACAA2F8018081918128173907BC
:1010200039F13183208381E0982A0E5F1F4FFEE55E
:10103000EF16F1E0FF0609F0ACCF292D45E066E59B
:1010400072E08CE492E00E943B080E94EC04892D3F
:10105000DF91CF911F910F91FF90EF90DF90CF9094
:10106000BF90AF909F908F90089590E080E0C6CFA2
:1010700080E0DACF0895FF920F931F93CF93DF9311
:10108000F82E092F162FD72FC42F222349F081E0E5
:1010900080939A010E94FE19909399018093980180
:1010A00080919A018823A1F08091980190919901F3
:1010B0000E940A1A069760F0EF2DF02FA12FBD2F86
:1010C00090E080E0D0E08C179D0744F010929A01E8
:1010D000DF91CF911F910F91FF9008952191319150
:1010E0002D933D930196EFCFAF92BF92CF92DF92B7
:1010F000FF920F931F93CF93DF93362F472FE82F45
:10110000F0E0E257FC4F71110DC06491762F862FED
:10111000DF91CF911F910F91FF90DF90CF90BF9003
:10112000AF900895C72FD0E02491F22E022F10E047
:1011300056E0659FC0011124EFEFF0E0BF010E946F
:10114000E923832F90E0880F991F35E5369FD00162
:10115000379FB00D11248A1B9B0B982F990F980F66
:101160006F01CC1ADD0AC09ED001C19EB00DD09E89
:10117000B00D11248B2F949FA0011124452F5527CA
:101180006F01C41AD50AC09EA001C19E500DD09E09
:10119000500D11245F01A91AB108AC9E6001AD9EEB
:1011A000D00CBC9ED00C1124CD2CDD24EC19FD09F3
:1011B000E09FE001E19FD00DF09FD00D1124ED2FB5
:1011C00062307105A1F048F46115710569F0613074
:1011D000710589F0EB2F852F07C06430710571F020
:1011E00088F066307105B1F76E2F722F91CFE22F24
:1011F0002B2F8D2FF9CFE22F252FF6CFEB2F822F1C
:101200002D2FF2CF2B2F8F2DE52FEECFCF93DF9306
:10121000762FE901682F842F0E94740879836883F0
:101220008A83DF91CF91089580916002982F9E7FED
:1012300039F4809160028170826080936002089529
:101240008430B8F7089588E090E00C942824CF9279
:10125000DF92EF92FF926B017C010E941409B701AB
:10126000A60188E090E0FF90EF90DF90CF900C9483
:101270004624E0E6F2E083E0808311828FEF8283F0
:101280008383148260817181828193810C94270908
:1012900080916402833018F48F5F809364026091C0
:1012A00060027091610280916202909163020C94DD
:1012B000270980916402882319F081508093640289
:1012C000609160027091610280916202909163026C
:1012D0000C94270921E030E001C0220F8A95EAF73B
:1012E0009091A001922381E009F480E0089570E0DC
:1012F0000C94DD0B6F927F928F929F92AF92BF9270
:10130000CF92DF92EF92FF920F931F93CF93DF93D1
:1013100000D000D00F92CDB7DEB770900101809160
:10132000600280FF2BC0C0909B01D0909C01F12CEB
:10133000E12C43E0642EC114D10409F042C0809135
:10134000000133E0839FC0011124672D8B599D4F0D
:101350000E9477090F900F900F900F900F90DF91E0
:10136000CF911F910F91FF90EF90DF90CF90BF90A2
:10137000AF909F908F907F906F9008958091020121
:101380009091030123E0829FF0011124EB59FD4F5E
:10139000891748F61182108212828F5F3396F8CF38
:1013A00098014D816C818B810E9406090D5F1F4F52
:1013B00039C08FEFE81AF80A28E0E216F10409F4C0
:1013C000BECF8E2D0E946A09882399F3F701EE0F94
:1013D000FF1FEC0DFD1DA590B490A114B10409F4FC
:1013E000AECF45E050E0B501CE0101960E94172432
:1013F00009810F3FF1F28A81800F9927991F83306D
:10140000910514F082E090E04C01880C991C880D45
:10141000991D9C012B593D4F4901069D80011124C6
:101420000B591D4F0815190508F4BACF35E0A30E66
:10143000B11CD7CFE0E6F2E080818E7F80836081AF
:101440007181828193810E9427092FEF80E792E0CA
:10145000215080409040E1F700C000000C947A09D0
:101460009091600290FF14C09091020120910301BD
:1014700033E0939FF0011124EB59FD4F921710F0C8
:101480000C947A098183608342839F5F3396F6CF01
:101490000895EF92FF920F931F93CF93DF9300D0A5
:1014A0000F92CDB7DEB7F82E062F142FE22E8091C3
:1014B000600280FF28C0E82FE695F0E0E25AFE4F78
:1014C000908190939E018E7F823059F49E012F5F10
:1014D0003F4F8F2D0E9406094B8169818A810E94AE
:1014E000300AF09261020093620210936302EE20D0
:1014F00051F060916002709161028091620290915E
:1015000063020E9427090F900F900F90DF91CF91F7
:101510001F910F91FF90EF900895E0E6F2E0918126
:10152000282F438162818AE0890F0C94490A81E067
:101530000C948D0AE0E6F2E09181282F43816281CC
:1015400086EF890F0C94490A81E00C949A0AE0E630
:10155000F2E0628121E1620F08F46FEF282F4381EE
:1015600081810C94490A81E00C94A70AE0E6F2E03C
:10157000628121E1621B08F460E0282F43818181B0
:101580000C94490A81E00C94B60AE0E6F2E043814B
:1015900021E1420F08F44FEF282F628181810C94E2
:1015A000490A81E00C94C50AE0E6F2E0438121E1BA
:1015B000421B08F440E0282F628181810C94490A83
:1015C00081E00C94D40A20E00C94490A80916002D6
:1015D00080FF18C08170826080936002662351F0A2
:1015E0006091600270916102809162029091630249
:1015F0000E9427094091630260916202809161021A
:101600000C94E30A0895682F81E00C94E60A81E0C7
:101610000C94030B682F9091600296958FEF890FC1
:1016200009F481E00C94E60A81E00C940A0B61E075
:101630000C94E60AE0E6F2E0808181608083869582
:101640000C94170B8091600280FD0C941A0A0C9484
:101650001A0B60E00C94E60A80919D0181112CC068
:101660000E948218811104C00E941F190E9439092A
:101670000E9423096093600270936102809362026A
:10168000909363026E7F61F40E9439090E942309DE
:101690006093600270936102809362029093630290
:1016A0000E9414098091600280FF03C086950E9409
:1016B000290B81E080939D01089521E030E0A9018C
:1016C00002C0440F551F8A95E2F7CA012091A0017C
:1016D000662391F0822B8093A00180919F0181115C
:1016E00005C08091600286950E94290B809160025E
:1016F00080FD05C00C947A0980958223ECCF089573
:10170000FA01811101C0FB0109940F931F93CF933C
:101710008C01FB01C281CC2309F44DC00E94E0176B
:101720008272F801E25CFC45E431F10538F4E659D7
:10173000FB4D0C9411240E94220BC0E08C2FCF9102
:101740001F910F91089544E15BE067E07BE00E9408
:10175000800BF3CF47E05BE064E17BE0F8CF44EA45
:101760005AE067E97AE0F3CF47E95AE064EA7AE0C1
:10177000EECF42EC5AE063EB7AE0E9CF43EB5AE07C
:1017800062EC7AE0E4CF40EE5AE061ED7AE0DFCF40
:1017900041ED5AE060EE7AE0DACF49E559E068E4DD
:1017A00079E0D5CF48E459E069E579E0D0CF81E030
:1017B0000E94170BC2CFC1E0C1CF6E9A4EB14F7BD2
:1017C0005EB15064EFB7F8949B01220F331F260FD0
:1017D000371F280F391F2817390741F4EFBF8FE54E
:1017E00094E00197F1F700C000000895DC016D91CD
:1017F000CD0178E05EB9000000C067FF4EB9660F0A
:10180000000000C000C000C04EB900C07A9591F73A
:10181000E2CF0F931F93CF93DF93C62FD42F022FC6
:10182000FC0182818823C9F06093A3010E94FE1904
:101830009093A2018093A10180E28C0F883008F080
:1018400050C0C77081E001C0880FCA95EAF7DF91E8
:10185000CF911F910F910C9457101091A301161363
:1018600035C08091A1019091A2010E940A1A883C82
:10187000910560F5C0E2CD0F1D17B9F080E2810F30
:10188000883040F4177081E001C0880F1A95EAF79C
:101890000E945E10C83048F481E09D2F977001C00F
:1018A000880F9A95EAF70E945710802F0E944410E3
:1018B000C830B8F4D77081E001C0880FDA95EAF734
:1018C000DF91CF911F910F910C945E1080E28C0FED
:1018D000883038F4C77081E001C0880FCA95EAF7F4
:1018E000EFCFDF91CF911F910F9108959C01CB0114
:1018F000233F4CE5340731F190F4283DFCE53F07E8
:10190000E9F0293D4CE5340769F1273D3C4579F480
:1019100026E241EE61EE0E94090C80E00895253F29
:10192000FCE53F07B9F090F0263F3C45B9F0FC01DB
:1019300082818823D1F01092A301089527E245EE19
:1019400065EEE9CF26E241EE60EEE5CF27E245EE17
:1019500064EEE1CF26E241EE62EEDDCF27E245EE16
:1019600066EED9CF28E241E0EBCF81E00895CF9336
:10197000DF93EC01FB018281882309F419C1C23095
:10198000FCE5DF07C0F1C6319CE5D90730F09E01C8
:101990002A5F3C452930310570F50E9495189093D7
:1019A000700280936F02C031ECE5DE0709F4CFC00E
:1019B00008F05BC0C8308CE5D80709F4B6C088F5DC
:1019C000C430ECE5DE0709F4A8C0C0F4C2308CE5F1
:1019D000D80709F49CC080916F028260C330DC4557
:1019E00009F498C080916F02909170020E94A31830
:1019F0000E94C61280E0DF91CF91089580916F021E
:101A00008061C630ECE5DE0709F484C080916F0286
:101A10008860C730DC4508F47DC080916F02806229
:101A200079C0CC308CE5D80709F489C070F4809176
:101A30006F028C60CA30ECE5DE0709F46BC008F475
:101A400078C080916F028E7F65C0CE308CE5D8075C
:101A500009F479C080916F028B7FCF30DC4508F4A8
:101A600059C080916F028F7E55C0CB3FECE5DE07F9
:101A700009F457C030F5C3318CE5D80709F46FC0BD
:101A800078F4C131ECE5DE0709F465C0C231DC450C
:101A900009F0A8CF0E94C61280916F028F773AC0DA
:101AA000C5318CE5D80709F462C008F476C080918E
:101AB00070028160CA3FDC4509F094CF80937002C8
:101AC00091CFCF3FFCE5DF0709F44DC088F480914A
:101AD00070028D7FCD3F9CE5D90781F38091700224
:101AE0008E7FCE3FDC4550F3809170028360E6CF5D
:101AF000C130FDE5DF0709F459C008F444C080E0B7
:101B0000C230DD4509F06ECF0E9421196BCF809164
:101B10006F02816080936F0265CF80916F02846055
:101B2000F9CF809170028260C9CF80916F0280648A
:101B3000F1CF0E94C61280916F028068EBCF809136
:101B40006F028D7FE7CF80916F02877FE3CF809117
:101B50006F028F7DDFCF80916F028F7BDBCF809113
:101B60006F02837FD7CF809170028C7FA7CF809147
:101B70006F0282FB992790F921E0922790FB82F96E
:101B800090FB83F9C7CF80917002982F9095917048
:101B90008E7F892B90FB81F991CF0E94C612909184
:101BA0006F02892F97FB87F98058B4CF81E0ACCFC3
:101BB00081E021CFCF93DF93EB0186319C4511F576
:101BC0000E94E0179A81992399F08A7A91E009F4AA
:101BD00090E09093A401811109C089E20E94BB1793
:101BE0000E941F1880E0DF91CF91089585E3F6CF22
:101BF0008091A401811104C089E20E94C217F0CF34
:101C000085E3FBCF81E0EFCF9093AA018093A901F8
:101C10000895E091A901F091AA01309721F0019077
:101C2000F081E02D099480E00895E091A901F09100
:101C3000AA01309721F00280F381E02D09940895E4
:101C4000E091A901F091AA01309739F022E0DC017E
:101C50002C930480F581E02D099408952091A7012B
:101C60003091A8012817390771F09093A80180934B
:101C7000A701E091A901F091AA01309721F0068017
:101C8000F781E02D099408952091A5013091A601D6
:101C90002817390771F09093A6018093A501E09170
:101CA000A901F091AA01309721F00084F185E02D7F
:101CB0000994089585B7806885BF85B7806885BF1A
:101CC0000895089508950C94610E0C9403040E94E5
:101CD0005A0E0E94620E0C94630E81E008950C94DB
:101CE0006D0E0E94F5190E944B070E94611A0E9416
:101CF0002C0B0C94650E7F928F929F92AF92BF92A5
:101D0000CF92DF92EF92FF920F931F93CF93DF93C7
:101D1000CDB7DEB72A970FB6F894DEBF0FBECDBFA2
:101D20000E94B3070E946F0E882309F471C04CEA29
:101D3000A42E41E0B42E10E000E0702E802F0E940F
:101D40003D076C01F501819091905F01881699061D
:101D500009F458C08091310281FD0E94460780E05D
:101D6000EE24E394F12C8C249D2494012E213F2118
:101D7000232B09F441C08E837F82CE20DF2081E0B7
:101D8000CD2809F480E088870E94FE198160782FB1
:101D90009A8789874E815F8168858A850E942D0F89
:101DA000000F111FF801E455FE4F80819181E82654
:101DB000F926F182E0820E94EE1B0E94090E9091AA
:101DC000AB018917B1F10E94090E8093AB012A96ED
:101DD0000FB6F894DEBF0FBECDBFDF91CF911F913C
:101DE0000F91FF90EF90DF90CF90BF90AF909F90BA
:101DF0008F907F900C94F5048F5FEE0CFF1C8E305B
:101E000009F0B3CF0F5F1F4F0530110509F095CFD3
:101E10008FEF89838A831B820E94FE198160782F4D
:101E20009D838C8349815A816B818D810E942D0F06
:101E3000C2CF2A960FB6F894DEBF0FBECDBFDF919A
:101E4000CF911F910F91FF90EF90DF90CF90BF90B7
:101E5000AF909F908F907F900895CF93DF93CDB7F1
:101E6000DEB72B970FB6F894DEBF0FBECDBF4F8302
:101E7000588769877A878B871E821D8285E0FE01DD
:101E80003796DE01119601900D928A95E1F749810E
:101E90005A816B817C818D819E812B960FB6F8943F
:101EA000DEBF0FBECDBFDF91CF910C943C15FC017E
:101EB000808191810C948D17CF93C82F882309F4CA
:101EC0008BC08238C1F40E94090E81FD85C089E370
:101ED0000E94BB170E941F182FEF81EE94E0215043
:101EE00080409040E1F700C0000089E30E94C217E3
:101EF000CF910C941F188338A1F40E94090E80FD25
:101F00006BC083E50E94BB170E941F182FEF81EE64
:101F100094E0215080409040E1F700C0000083E54C
:101F2000E5CF8438A1F40E94090E82FD55C087E4F4
:101F30000E94BB170E941F182FEF81EE94E02150E2
:101F400080409040E1F700C0000087E4CFCF8CEFE5
:101F50008C0F813A90F46C2F8091050190910601CD
:101F60000E943819882329F08C2F0E94C2170E94E2
:101F70001F188C2F0E94BB17BBCF80E28C0F8830BC
:101F800048F4C77081E001C0880FCA95EAF70E9443
:101F9000E317AECFEBE5EC0FE33040F4F0E0E257AF
:101FA000FE4F808190E0CF910C942E0EE8E5EC0F6F
:101FB000E73150F4F0E0EE0FFF1FE05AFE4F808152
:101FC0009181CF910C94440EC03F30F08C2F0E9431
:101FD000FC1ACF910C94E31BCF910895882309F448
:101FE00052C0823871F40E94090E81FF4CC089E30F
:101FF0000E94BB170E941F1889E30E94C2170C940D
:102000001F18833859F40E94090E80FF3CC083E5F5
:102010000E94BB170E941F1883E5EFCF843859F444
:102020000E94090E82FF2FC087E40E94BB170E9406
:102030001F1887E4E2CF9CEF980F913AF0F290E2FC
:10204000980F983050F4877091E001C0990F8A95ED
:10205000EAF7892F0E94E917D2CF9BE5980F9330BA
:1020600020F490E080E00C942E0E98E5980F9731C4
:1020700020F490E080E00C94440E803F20F00E9419
:10208000641B0C94E31B0895CF93C82F0E945C0F30
:10209000C93349F42FEF87EE93E021508040904000
:1020A000E1F700C000008C2FCF910C94EE0F882335
:1020B00021F00E94E3170C941F180895882321F043
:1020C0000E94E9170C941F180895BF92CF92DF92D7
:1020D000EF92FF920F931F93CF93DF936C01D62F54
:1020E000C72FFC01058102950F70128111110E940A
:1020F00000180E94D917E82E882391F01123E9F0E7
:102100008C2F807F803421F080E28D0F8830A8F002
:1021100082E00E946A180E94D91791E0E82EE92611
:10212000BC2EB2949FE0B922FBE0FB15A8F1EB2D89
:10213000F0E0E258FB4D0C941124E12CF1CF0C2F70
:102140000F70C07F11F00295007F1123A9F00023CA
:1021500059F080E28D0F883010F0D11109C0802F26
:102160000E94E3170E941F188D2F0E945C0F14C05D
:10217000802F0E94F317F6CF8D2F0E94EE0F0023C1
:1021800059F080E28D0F883010F0D1112CC0802FD3
:102190000E94E9170E941F182B2D2850330B243062
:1021A000310520F40E94090E0E94F504EE2009F486
:1021B0008EC10E94D51780FD8AC1F60112820E944D
:1021C000CF170E945B16C6010E9488120E94CF178B
:1021D000DF91CF911F910F91FF90EF90DF90CF9003
:1021E000BF900C947C16802F0E94F917D3CF2C2F10
:1021F0002F70F22EC07FC03219F0F29480EFF822D7
:10220000DD2369F0D13049F1112391F1002351F11F
:10221000F601858180FFA8CF8F70858323C01123AD
:1022200081F0011106C00E9406188F290E945710E4
:10223000B3CF0130C1F70E9406188F290E940C18F5
:10224000ABCF011106C00E9415188F2D0E945E10A1
:10225000A3CF013009F4A0CFF6CF112329F003302A
:1022600008F09ACF8F2DE2CF023008F095CFEDCF56
:10227000002359F3D93349F4FFEF27EE33E0F1504F
:1022800020403040E1F700C000008D2F0E94EE0F8B
:1022900083CF8C2F86958695837069F0813009F005
:1022A0007BCF8D2F9C2F9370111102C090E080E0A6
:1022B0000E94440E71CF8D2F9C2F9370111102C07C
:1022C00090E080E00E942E0E67CF8D2F112329F021
:1022D0000E94FC1A0E94E31B5FCF0E94641BFACF8E
:1022E0008C2F837009F041C0111156CF4D2F4295AC
:1022F00046954770440F440F0D2F0F7010E030E0EB
:1023000020E0042E04C0000F111F221F331F0A9467
:10231000D2F760E070E0CB01D4FF0FC06FE070E057
:1023200080E090E004C0660F771F881F991F4A95D0
:10233000D2F76095709580959095C695C695C370B7
:10234000602B712B822B932BC23049F058F4C13093
:1023500019F00E94FA1520CF0E94E8151DCF0E94A7
:102360000C161ACF0E94E61517CF8695112311F08F
:102370008C2F8170882309F40FCF4D2F42954695FD
:102380004770440F440F0D2F0F7010E030E020E035
:10239000042E04C0000F111F221F331F0A94D2F70E
:1023A00060E070E0CB01D4FF0FC06FE070E080E030
:1023B00090E004C0660F771F881F991F4A95D2F7D7
:1023C0006095709580959095C695C695C370602B65
:1023D000712B822B932BC23049F058F4C13019F085
:1023E0000E94D216D9CE0E94C016D6CE0E94E41604
:1023F000D3CE0E942016D0CECF70112329F08C2F7F
:102400000E945B168D2F12CF8D2F0E945E108C2F95
:102410000E947C16C1CED23F89F160F4D03FC9F052
:10242000D13F29F1112309F442C001119DCE8C2F17
:102430008F7121C0D33F39F1D43FA1F7112369F146
:10244000CF718C2F0E945B1663E08C2F0E94551871
:10245000A3CE112341F0023008F09ECE8C2F8F7155
:102460000E949F1699CE033008F096CEF7CF8C2F9E
:102470008F71112369F20E945B168ECE8C2F8F71A3
:102480001123C9F3C5CF112329F08C2F8F710E941E
:10249000461682CE0E942C167FCE81E00E946A18DA
:1024A000023008F479CE82E00E946A1875CE0023CB
:1024B00059F0D93309F0E9CE8FEF97EEE3E0815080
:1024C0009040E040E1F7DFCE8C2F8F71A1CFDF91FC
:1024D000CF911F910F91FF90EF90DF90CF90BF9021
:1024E00008950F931F93CF93DF93EC016881798157
:1024F0008A810E9497178C010E94F6160E94E515AA
:10250000B801CE01DF91CF911F910F910C9465100E
:10251000CF93DF93EC018B819C81892B29F08881FB
:10252000998189238F3F59F4DF91CF910895CE018E
:102530000E947112CE01DF91CF910C947304CE01F1
:102540000E940D058111F3CF0E94D917882361F3F2
:102550008A81882349F382E0DF91CF910C946A1835
:102560000E9400180E9403180E941F180E94081D54
:102570000E94E31B90E080E00E942E0E90E080E03D
:102580000C94440E0E94C9170C94B0120E94F017CC
:102590000C94C212E92FE295EF70E250EE3070F425
:1025A000F0E0E657FB4D0C941124803F19F020F425
:1025B000883E20F481E00895843FE1F380E00895AF
:1025C000883EC0F3813FD1F7F5CF93FB882780F990
:1025D00008950E948D170C94CA12CF93DF9300D0F8
:1025E00000D00F92CDB7DEB70F900F900F900F90E5
:1025F0000F90DF91CF910895CF93DF9300D000D05B
:1026000000D0CDB7DEB726960FB6F894DEBF0FBE6A
:10261000CDBFDF91CF9108951F93CF93DF93C091EA
:10262000B70116E08091B8018C1304C0DF91CF91FF
:102630001F910895D0E01C9FF0011D9FF00D112403
:10264000E754FE4F4081518162817381848195817D
:102650000E94FC122196C770E5CF4091E90150918C
:10266000EA016091EB017091EC018091ED01909194
:10267000EE010C94FC121F93CF93DF938091EE0137
:10268000807FA9F48091EB01882389F08091B701C4
:10269000C091B8016091E9017091EA01A091EC014B
:1026A000B091ED01D62FD72316E0C81304C0DF91F7
:1026B000CF911F91089590E0109711F0DF3F19F42A
:1026C00001968770F2CF189F9001199F300D112449
:1026D000F901E754FE4F41814713F2CF4081461381
:1026E000EFCF42814111ECCF438154814A1B5B0BF8
:1026F000483C510528F78091EE018F7080618093EE
:10270000EE01F901E254FE4F80818F708061808379
:1027100089EE91E00E948812DF91CF911F910C9475
:102720000C13AF92BF92CF92DF92EF92FF920F9372
:102730001F93CF93DF93CDB7DEB761970FB6F894B1
:10274000DEBF0FBECDBF8C0185E0F801DE011D9616
:1027500001900D928A95E1F7F80140815181E28064
:1027600089EEC82E81E0D82E6091EC017091ED01C8
:102770006115710509F461C19091E9012091EA01A7
:10278000892F82238F3F09F458C1A380B480F09031
:10279000EB01F501E61BF70BFF2009F4FCC080916B
:1027A000EE01382F307FE83CF10508F0B2C031115E
:1027B00079C0FE2C251323C0941321C0E1101FC043
:1027C0008F7080618093EE010E942D13C6010E94DC
:1027D00088128091EE01F80185838F2D61960FB6E6
:1027E000F894DEBF0FBECDBFDF91CF911F910F9147
:1027F000FF90EF90DF90CF90BF90AF900895AB28FF
:1028000029F0842F85238F3F09F033C180E0F82F12
:10281000F170DF2E80FF3CC08091B7012091B8019C
:1028200036E0821315C04D875E878D859E850E9498
:102830008D17292F22952F702230F0F0243018F5B3
:102840009F70F1F0F8019581907FD1F4D12C1EC0DA
:1028500090E0389FF001399FF00D1124E754FE4FAE
:102860006181651306C06081641303C062816E11CB
:102870000FC001968770D5CF9F7011F0882331F378
:10288000805E883018F3C8010E948812FD2CA5CF05
:10289000EE2009F4A2CF8091EE0181608093EE01D9
:1028A000F12C9BCF251306C0941304C0F801EE2031
:1028B00009F48DC04D875E878D859E850E94E91243
:1028C000882319F1EE2009F18091EE01803270F039
:1028D0002091E9013091EA0138872F831986BB8660
:1028E000AA868C87CE0107960E94881286E0F8019E
:1028F000A9EEB1E001900D928A95E1F70E943B1399
:102900000E942D13FF24F39468CFC8010E948812FF
:10291000F9CF311113C07A2DB98AA88A6E2D898911
:102920000E94ED1289EE91E00E94881286E0F60185
:1029300011928A95E9F70E942D13B2CF25130FC08B
:1029400094130DC0E1100BC0F8018583C8010E94EB
:10295000881286E0F60111928A95E9F73ECF4D87FD
:102960005E878D859E850E94E912882371F2EE2094
:1029700061F28091EE01803208F4B8CF2091E90134
:102980003091EA013A8329831B82BD82AC828E8317
:10299000CE010196A9CFE83CF10508F041C0FE2C1C
:1029A000EE2009F4B2CF25132AC0941328C08091D9
:1029B000EE0180FD1BC0982F907FC1F0F801858348
:1029C000903F31F0982F907F905F8F70892B858397
:1029D000C8010E94881286E0F801A9EEB1E00190DA
:1029E0000D928A95E1F70E942D13F7CE86E0F8014B
:1029F000A9EEB1E001900D928A95E1F7EECE4D87F8
:102A00005E878D859E850E94E91281116FCF80912E
:102A1000EE0181608093EE01C8010E948812DDCE34
:102A20007A2DB98AA88A6E2D89890E94ED1286E0D6
:102A3000F60111928A95E9F7D6CFEE2009F465CF19
:102A40004D875E878D859E850E94E912F82E88232A
:102A500009F45BCF86E0F801A9EEB1E001900D9298
:102A60008A95E1F789EE91E00E94570F0E943B138F
:102A7000BACF81E08E25CBCE1F93CF93DF93CDB716
:102A8000DEB72C970FB6F894DEBF0FBECDBF4F83D5
:102A9000588769877A878B879C87CE0107960E9423
:102AA0009113882369F08A859B85892B39F04F81A2
:102AB0005885842F85238F3F09F071C016E05FC0D1
:102AC00086E0FE013796DE01119601900D928A95FF
:102AD000E1F78A859B85892B89F388859F818923E6
:102AE0008F3F61F32091B80130E0C90101968770F2
:102AF00099274091B7014817190671F40E94C61230
:102B00001092B8011092B70186E0E9EEF1E0DF0122
:102B10001D928A95E9F7D2CF96E0929FD001939FBC
:102B2000B00D1124A754BE4FFE01319601900D92B5
:102B30009A95E1F78093B8010E940C13BFCF819F53
:102B4000C001112487549E4F0E9491138823E9F0FD
:102B5000E091B7011E9FF0011124E754FE4F408120
:102B6000518162817381848195810E94FC128091E0
:102B7000B70190E00196877099278093B701809103
:102B8000B7019091B8018913DACF2C960FB6F8945B
:102B9000DEBF0FBECDBFDF91CF911F910895698534
:102BA0007A858B859C850E94FC1288CF08950C94B1
:102BB000D6150E94D715609320027093210280934E
:102BC0002202909323020C94B01208950C94D9150C
:102BD0000F931F9300912002109121022091220255
:102BE00030912302602B712B822B932B1F910F911D
:102BF0000C94D9150F931F9300912002109121027C
:102C00002091220230912302602371238223932397
:102C10001F910F910C94D9150F931F9300912002CF
:102C20001091210220912202309123026027712706
:102C3000822793271F910F910C94D9150C940A04A5
:102C40000E941E1660931C0270931D0280931E0248
:102C500090931F020C94B01260E070E0CB010C94D2
:102C60002016611571058105910529F481E0442341
:102C700061F080E00895DC01CB0104C0B695A79512
:102C8000979587954A95D2F7817008950F931F9372
:102C900041E050E060E070E08A019B0104C0000F59
:102CA000111F221F331F8A95D2F7C901B8011F9146
:102CB0000F910C9420160F931F9341E050E060E0B9
:102CC00070E004C0440F551F661F771F8A95D2F726
:102CD00080911C0290911D02A0911E02B0911F02D2
:102CE0008A019B01082B192B2A2B3B2BC901B80108
:102CF0001F910F910C9420160F931F9341E050E009
:102D000060E070E004C0440F551F661F771F8A956E
:102D1000D2F7CB01BA01609570958095909500919E
:102D20001C0210911D0220911E0230911F0260238F
:102D30007123822393231F910F910C9420160F93DC
:102D40001F9341E050E060E070E004C0440F551F65
:102D5000661F771F8A95D2F780911C0290911D0201
:102D6000A0911E02B0911F028A019B01082719271A
:102D70002A273B27C901B8011F910F910C942016F7
:102D80000F931F9300911C0210911D0220911E02AF
:102D900030911F02602B712B822B932B1F910F916F
:102DA0000C9420160F931F9300911C0210911D028A
:102DB00020911E0230911F026023712382239323EE
:102DC0001F910F910C9420160F931F9300911C02DA
:102DD00010911D0220911E0230911F026027712761
:102DE000822793271F910F910C94201608952EE0AF
:102DF000929F800D1124982F977041E001C0440FDD
:102E00009A95EAF786958695869595E0899FF001D3
:102E10001124E151FE4F90E080E070E05191DF011C
:102E200011979B01082E02C0369527950A94E2F768
:102E3000217021952527242325272C930196853061
:102E4000910561F708952EE0929F800D1124982F2F
:102E5000977086958695869525E0829FF0011124CE
:102E6000E151FE4F50E040E080E0219130E0092E3A
:102E700002C0369527950A94E2F721703327042E75
:102E800001C0220F0A94EAF7822B4F5F5F4F453053
:102E9000510559F70895BF92CF92DF92EF92FF92BA
:102EA0000F931F93CF93DF938C01C0901C02D0909F
:102EB0001D02E0901E02F0901F028091200290916E
:102EC0002102A0912202B0912302C82AD92AEA2A1B
:102ED000FB2ACFE1D0E0BC2ED701C6010C2E04C0E6
:102EE000B695A795979587950A94D2F780FD0EC061
:102EF000219788F7B12C8B2DDF91CF911F910F91E6
:102F0000FF90EF90DF90CF90BF900895B8018C2F85
:102F10000E946305019761F3EECFCF93DF93EC013D
:102F20000E944B17BE01DF91CF910C9463051F9354
:102F3000CF93DF93EB019091B601992331F0CB0150
:102F4000DF91CF911F910C948D17882379F0CB01DD
:102F50000E944B17182F682FCE010E94F716BE0152
:102F6000812FDF91CF911F910C946305CB010E94BB
:102F70002317182FF4CF682F809105019091060137
:102F80000C946E19682F80910501909106010C94A4
:102F9000701980910501909106010C94721980912D
:102FA00024028595859585950895809124028770E2
:102FB000089590912402977081E009F480E00895CB
:102FC00080913002089590913002892B80933002D5
:102FD000089580959091300298239093300208953F
:102FE00010923002089590912F02892B80932F0226
:102FF0000895809590912F02982390932F02089521
:1030000010922F02089510922E02089580912502A9
:10301000089508950C94091890912502981721F0AD
:10302000809325020C940A18089580912502882324
:1030300029F01092250280E00C940A180895E0917E
:103040000501F0910601809130028083E091050135
:10305000F0910601808190912F02892B8083E0916D
:103060000501F0910601808190912E02892B8083C9
:1030700090912502992381F0E0910501F0910601DC
:103080008081892B808380910501909106010E94A7
:10309000261981110E941518809105019091060151
:1030A0000C94150E08950C94521898E0899F900185
:1030B0001124622B609324020E945B1680912402EB
:1030C0008595859585950C9453181092240280E07F
:1030D0000C945318909124028095892380932402A4
:1030E000282F277071F4282F082E000C330B92170D
:1030F000130639F08595859585950E947C160C946C
:103100006518089590E080E00E942E2421E08C3E16
:103110009E4F09F020E0822F089582E090E00C9409
:10312000202483E090E00C942024CF9384E090E06E
:103130000E942024C82F81E290E00E942024982F32
:103140008C2FCF910895CF93C92F682F84E090E002
:103150000E9434246C2F81E290E0CF910C943424AF
:10316000AB01BC018FE090E00C944624AB01BC01A4
:1031700083E190E00C94462460E070E0CB010C9475
:10318000B61860E070E0CB010E94B0180C94BC1837
:103190006CEE7EEF90E080E00E94522460E082E0DE
:1031A00090E00E94342460E083E090E00E943424A8
:1031B00010922002109221021092220210922302F9
:1031C00060E084E090E00E94342460E081E290E0DE
:1031D0000E94342460E085E090E00E94342460E0A6
:1031E00086E090E00E9434246FEF87E090E00E9438
:1031F000342440E050E0BA0188E090E00E94462488
:1032000060E08DE090E00E94342440E050E0BA019C
:1032100088E190E00E94462460E087E190E00E940F
:10322000342440E050E0BA018CE190E00E94462452
:1032300060E080E290E00E9434240C94C1180C9469
:10324000C818682F8EE090E00C9434249C012E5F07
:103250003F4FAC01485F5F4F80E02417350709F40A
:103260000895F90191919F019923B9F38F5FF5CFEB
:10327000662349F0FC01329608962191261729F021
:10328000E817F907D1F780E0089581E008959C01DF
:10329000FC0132969FEF80E04191461751F09F3F2D
:1032A00019F4411101C0982F8F5F8630A9F79F3F15
:1032B00009F40895290F311D97FD3A95F9016283AC
:1032C0000895FC01329608962191261303C0DF0170
:1032D00011971C92E817F907B9F708950C9447194C
:1032E0000C946119029626E0FC0111922A95E9F7E7
:1032F0000895089508950C947A190E947B1980917D
:103300007502843049F11092320288E190E020E4A5
:103310000FB6F894A895809360000FBE20936000CC
:1033200080E00E94F5040E947B1983B7817F84604E
:1033300083BF83B7816083BF7894889583B78E7F7E
:1033400083BF0FB6F894A895809160008861809340
:103350006000109260000FBE08950895CF930E9400
:1033600079190E94B3070E94AD19C0E08C2F0E940A
:103370003D07892B31F4CF5FC530C1F780E0CF9195
:10338000089581E0FCCF08950C94C3190E94C612E1
:103390000E94090E0E94F5040C94C4191F921FB6D6
:1033A0001F9211248F939F93AF93BF93809132020A
:1033B000811113C080916B0290916C02A0916D02FB
:1033C000B0916E024196A11DB11D80936B02909346
:1033D0006C02A0936D02B0936E02BF91AF919F916A
:1033E0008F911F901FBE1F90189582E084BD93E0BF
:1033F00095BD9AEF97BD80936E0008952FB7F8940E
:1034000080916B0290916C02A0916D02B0916E025E
:103410002FBF08959C014FB7F89480916B02909153
:103420006C02A0916D02B0916E024FBF821B930B94
:10343000089578941F921FB61F9211248F939F9323
:10344000AF93BF9380916B0290916C02A0916D023B
:10345000B0916E020196A11DB11D80936B029093F5
:103460006C02A0936D02B0936E02BF91AF919F91D9
:103470008F911F901FBE1F90189581E08093E000F0
:1034800080E28093D8001092C9008FE19EE40197FA
:10349000F1F700C0000087E090EBDC0180937E0232
:1034A00090937F02A0938002B093810288E19CE018
:1034B0000FB6F894A895809360000FBE90936000BB
:1034C000FFCF0E948218811102C00E941F190E9422
:1034D0008D18809331020E9495189093700280930A
:1034E0006F020E949118682F70E090E080E00C94C9
:1034F000E61580913A0280FF12C060910C0185E0D0
:10350000689FB0011124759567957595679560382A
:103510007105A8F561157105A1F1862F089581FF48
:1035200009C060910C0185E0689FB0011124759578
:103530006795EDCF60910C0182FD0AC08091390240
:103540008823D1F090910B0160910C01891728F02C
:1035500085E0689FB0011124DACF869FB001112465
:1035600085E0869F9001879F300D1124692F70E0C0
:10357000C9010E94FD23CBCF65E070E0CECF8FE77D
:10358000089581E0089580913A0280FF0CC0609117
:10359000080170E0759567957595679561157105DA
:1035A00049F1862F089581FF06C06091080170E0FF
:1035B00075956795F3CF6091080182FD0BC09091DE
:1035C00039029923A1F060910701809108019617B3
:1035D00038F0682F70E06038710500F38FE70895C8
:1035E000899FC001112470E00E94FD23F4CF61E0A7
:1035F00070E0D7CF81E00895803F31F40E94791ABE
:10360000819580933E020895813F19F40E94791AB2
:10361000F8CF823F31F40E94791A819580933D0260
:103620000895833F19F40E94791AF8CF893F29F44D
:103630000E94C31A80933F0208958A3F21F40E949A
:10364000C31A8195F7CF8B3F31F40E94C31A81953D
:103650008093400208958C3F19F40E94C31AF8CF5A
:10366000843F31F480913C02816080933C02089554
:10367000853F21F480913C028260F7CF863F21F4A0
:1036800080913C028460F1CF873F21F480913C021D
:103690008860EBCF883F21F480913C028061E5CFC8
:1036A0008D3F31F480913A02816080933A0208950F
:1036B0008E3F21F480913A028260F7CF8F3FB9F7B5
:1036C00080913A028460F1CF90913D02803F41F4B5
:1036D00080913E0287FD10923E02992371F0089579
:1036E000813F29F480913E021816ACF3F6CF823F59
:1036F00081F497FFF2CF10923D0280913E029091AB
:103700003F02892B90914002892B49F71092390290
:103710000895833F19F4191674F3DFCF893F39F404
:1037200080913F021816CCF610923F02D6CF8A3F06
:1037300029F480913F0287FFD0CFF6CF8B3F39F439
:103740008091400287FFC9CF10924002C6CF8C3FC4
:1037500029F4809140021816BCF3BFCF843F31F4A6
:1037600080913C028E7F80933C02B7CF853F21F44D
:1037700080913C028D7FF7CF863F21F480913C02FF
:103780008B7FF1CF873F21F480913C02877FEBCF85
:10379000883F21F480913C028F7EE5CF8D3F31F44C
:1037A00080913A028E7F80933A0297CF8E3F21F428
:1037B00080913A028D7FF7CF8F3F09F08ECF8091B5
:1037C0003A028B7FF0CF8BE392E00E94200E0E94A2
:1037D000FE1990933802809337020895CF93DF93B8
:1037E00000D000D000D0CDB7DEB786E0EBE3F2E04A
:1037F000DE01119601900D928A95E1F780913D02CC
:1038000090913E02892B81F0809135029091360291
:103810000E940A1AAC0190913902992331F18091EA
:103820000D018417150670F180913F0290914002BE
:10383000892B91F080913302909134020E940A1AF0
:10384000AC0190913902992309F478C08091090163
:103850008417150608F480C026960FB6F894DEBFCC
:103860000FBECDBFDF91CF91089520910E018AE068
:10387000289F9001112424173507B0F69F5F90937D
:10388000390202C09F3FD1F710923F0210924002CE
:1038900080913D02181624F40E94791A80933D020B
:1038A00080913D0287FF05C00E94791A819580931F
:1038B0003D0280913E02181624F40E94791A8093EA
:1038C0003E0280913E0287FF05C00E94791A8195D1
:1038D00080933E0230913D023323A1F020913E02BD
:1038E000222381F045EB3403C00111249923F1F028
:1038F00090933D0245EB2403900111243323D1F032
:1039000030933E020E94E31B80913702909138026F
:10391000909336028093350286E0FE013196ABE348
:10392000B2E001900D928A95E1F77ECF81E080931D
:103930003D02E0CF81E080933E02E4CF20910A0176
:103940008AE0289F900111242417350708F084CFBE
:103950009F5F9093390202C09F3FD1F710923D02C2
:1039600010923E0280913F02181624F40E94C31A5E
:1039700080933F0280913F0287FF05C00E94C31AD7
:10398000819580933F0280914002181624F40E9492
:10399000C31A809340028091400287FF05C00E94B5
:1039A000C31A81958093400230913F023323A1F0E6
:1039B00020914002222381F045EB3403C001112401
:1039C0009923F1F090933F0245EB240390011124D9
:1039D0003323D1F0309340020E94E31B80913702E1
:1039E00090913802909334028093330286E0FE0176
:1039F0003196ABE3B2E001900D928A95E1F72CCFBE
:103A000081E080933F02E0CF81E080934002E4CFE9
:103A100086E0EBE3F2E0DF011D928A95E9F7109270
:103A2000390210923A020895809149020895CF9385
:103A3000DF9300D00F92CDB7DEB79091750294302E
:103A400019F589837B836A8382E08093E9008FEF95
:103A50009091E800815095FD06C095ED9A95F1F79B
:103A600000008111F5CF8091E80085FF0DC050E086
:103A700040E063E070E0CE0101960E94581F809103
:103A8000E8008E778093E8000F900F900F90DF9101
:103A9000CF910895CF93DF93EC010E943B1F8230BA
:103AA00011F0843031F4BE0184E0DF91CF910C94A9
:103AB000171DDF91CF910895BC0183E00C94171D71
:103AC000CF93DF93EC010E943B1F823011F08430D2
:103AD000F9F482E08093E9008FEF9091E800815043
:103AE00095FD06C095ED9A95F1F700008111F5CF8F
:103AF0008091E80085FF0CC050E040E066E070E097
:103B0000CE010E94581F8091E8008E778093E800D4
:103B1000DF91CF910895CF93DF93EC010E943B1F7B
:103B2000823011F0843039F581E08093E9008FEF25
:103B30009091E800815095FD06C095ED9A95F1F7BA
:103B400000008111F5CF8091E80085FF14C050E09E
:103B500040E068E070E0CE010E94581F8091E800CC
:103B60008E778093E80088E0FE01A1E4B2E0019046
:103B70000D928A95E1F7DF91CF91089580917402BB
:103B8000811109C00E94E8200E9445218091E20035
:103B900084608093E200089510927402089508955D
:103BA00008950C94C61942E061EC81E00E94642003
:103BB00042E261EC82E00C946420809177028330D1
:103BC00009F45FC030F48130C1F1823009F49BC048
:103BD00008958A3009F487C08B3009F46DC08930AC
:103BE00009F04EC080917602813209F049C080917F
:103BF0007A0290917B02029708F042C08091E8001F
:103C0000877F8093E8008091E80082FF35C0909123
:103C1000F3008091F200029729F48091F1008B7FEC
:103C2000813021F48091F100809349028091E80075
:103C30008B778093E8000C94982080917602813AEB
:103C4000F9F48091E800877F8093E80080917A0200
:103C500090917B02892B61F468E081E492E070E04E
:103C60000E94A71F8091E8008B778093E800089559
:103C700060E090E080E0F3CF809175028111C3CFC6
:103C8000089580917602813AD9F780917A029091D5
:103C90007B02892BA9F78091E800877F8093E80059
:103CA0008091E80080FFFCCF809119018093F100A2
:103CB0008091E8008E77BDCF80917602813201F746
:103CC00080917A0290917B02892BD1F68091E80055
:103CD000877F8093E8000E949820809178028093EB
:103CE00019010C94C61280917602813249F68091B6
:103CF000E800877F8093E8000E94982080917902F5
:103D000080934A02089580917602813A09F0B8CFF3
:103D10008091E800877F8093E8008091E80080FF31
:103D2000FCCF80914A02C2CF84B7877F84BF0FB691
:103D3000F894A8958091600088618093600010924B
:103D400060000FBE80E890E00FB6F89480936100A9
:103D5000909361000FBE0E94670E0E94E8200E94AF
:103D600045218091E20084608093E20078940E9473
:103D7000CE230E94710E8FE091E00E94040E80918C
:103D80007502853019F00E947B0EF9CF0E947D19D3
:103D900080917302882399F30E94AE19882379F3E6
:103DA0000E94421FECCF0C94D51E292F33272330BD
:103DB000310519F168F42130310509F44AC0223087
:103DC000310509F44BC090E080E030E020E028C0ED
:103DD0002132310579F122323105A9F780E490E0F2
:103DE00024E935E061157105D9F081E890E023E11F
:103DF00035E061307105A1F0E6CF9927813091055A
:103E000099F0009741F08230910589F00397D9F637
:103E1000EEE8F4E002C0E2ECF4E0849190E09F016F
:103E2000FA01318320830895E2EAF4E0F6CFE4E971
:103E3000F4E0F3CF89E090E028ED34E061157105FE
:103E400079F389E090E021EF34E06130710541F3CE
:103E5000BACF82E190E021E035E0E2CF8BE390E061
:103E600026EC34E0DDCF80917502843011F482E0DD
:103E7000089581E0089580914B02811102C00C9455
:103E8000331F089580E189BD82E189BD09B400FE38
:103E9000FDCF8091D8008F7D8093D8008091E00085
:103EA00082608093E0008091E00081FDFCCF089566
:103EB000AF92BF92CF92DF92FF920F931F93CF9357
:103EC000DF936C01EB018A010E94B720F82E81116B
:103ED00023C00115110539F0F80180819181C81BBB
:103EE000D90BC80ED91EB12CA12C2097A9F0809116
:103EF000E80085FD22C08091E8008E778093E8007D
:103F000001151105A1F0F80180819181A80EB91E5B
:103F1000B182A08285E0F82E8F2DDF91CF911F9185
:103F20000F91FF90DF90CF90BF90AF9008950E94C7
:103F3000B7208823D1F2F82EEFCFF60181916F01DF
:103F40008093F1002197FFEFAF1ABF0ACECFFC019B
:103F500080917C0290917D0286179707A0F06115F1
:103F6000710529F49091E8009E779093E80090E025
:103F70006115710551F4911108C08091E80082FF2C
:103F800034C080E00895BC01F2CF8091750288238F
:103F9000C1F18530C1F18091E80083FD30C080918E
:103FA000E80082FDEACF8091E80080FFE1CF8091B8
:103FB000F3002091F200382F6115710519F02830B7
:103FC000310558F091E02830310509F090E020915A
:103FD000E8002E772093E800CBCF81918093F10009
:103FE000615071092F5F3F4FE7CF809175028823A1
:103FF00041F0853041F08091E80083FFBECF81E041
:10400000089582E0089583E00895FC0180917C0288
:1040100090917D0286179707A0F06115710529F42C
:104020008091E8008E778093E80090E0611571053B
:1040300051F4911108C08091E80082FF35C080E002
:104040000895BC01F2CF809175028823C9F18530B3
:10405000C9F18091E80083FD31C08091E80082FDC4
:10406000EACF8091E80080FFE1CF8091F3002091BA
:10407000F200382F6115710519F02830310558F01C
:1040800091E02830310509F090E08091E8008E77CA
:104090008093E800CBCF84918093F10031966150FA
:1040A00071092F5F3F4FE6CF80917502882341F061
:1040B000853041F08091E80083FFBDCF81E0089515
:1040C00082E0089583E00895982F973028F08F704C
:1040D0008093E90081E008959093E900242F762FE2
:1040E00050E0981731F07091EC002091ED00509164
:1040F000F00021FD02C09F5FE8CF3091EB003E7FD2
:104100003093EB003091ED003D7F3093ED00309126
:10411000EB0031603093EB007093EC002093ED00E6
:104120005093F0002091EE0027FDE5CF80E0089548
:104130008091760287FF13C08091E80082FF06C05D
:104140008091E8008B778093E80004C0809175022D
:104150008111F2CF0895809175028823D9F380915F
:10416000E80080FFF8CF8091E8008E77ECCF2091B7
:10417000E4003091E50095E6A9012091EC00822F42
:10418000817020FF06C08091E80080FF06C080E0BB
:1041900008952091E80022FD1AC0809175028823BD
:1041A00089F0853089F08091EB0085FD0FC020916A
:1041B000E4003091E50042175307F9F29150E1F61F
:1041C00084E0089582E0089583E0089581E00895F1
:1041D0000E9456210E945E21E0EEF0E08081816025
:1041E0008083E8EDF0E080818F77808319BCA7EDB4
:1041F000B0E08C918E7F8C9380818F7E8083109233
:10420000740208950F931F93CF93DF930E9456215A
:104210000E945E21C8EDD0E088818F7788838881F5
:104220008068888388818F7D888319BC109275028D
:1042300010927102109273021092720200EE10E05E
:10424000F80180818B7F808388818160888342E050
:1042500060E080E00E946420E1EEF0E080818E7FEB
:104260008083E2EEF0E080818160808380818860DD
:104270008083F80180818E7F80838881806188833C
:10428000DF91CF911F910F910895E8EDF0E08081CB
:104290008F7E8083E7EDF0E080818160808384E021
:1042A00082BF81E0809374020C940221E8EDF0E07B
:1042B00080818E7F80831092E20008951092DA0050
:1042C0001092E10008951F920F920FB60F921124E1
:1042D0002F933F934F935F936F937F938F939F930E
:1042E000AF93BF93EF93FF938091E10082FF0BC0E8
:1042F0008091E20082FF07C08091E1008B7F809374
:10430000E1000E94CD238091DA0080FF19C08091E6
:10431000D80080FF15C08091DA008E7F8093DA008C
:104320008091D90080FF96C080E189BD82E189BD7E
:1043300009B400FEFDCF81E0809375020E94BE1D8E
:104340008091E10080FF19C08091E20080FF15C0DC
:104350008091E2008E7F8093E2008091E200806194
:104360008093E2008091D80080628093D80019BCCD
:1043700085E0809375020E94D01D8091E10084FF4A
:104380002BC08091E20084FF27C080E189BD82E1DB
:1043900089BD89B5982F917080FFFBCF8091D8009F
:1043A0008F7D8093D8008091E1008F7E8093E10023
:1043B0008091E2008F7E8093E2008091E200816034
:1043C0008093E20080917102882309F449C084E05F
:1043D000809375020E94D11D8091E10083FF29C066
:1043E0008091E20083FF25C08091E100877F809368
:1043F000E10082E080937502109271028091E100E9
:104400008E7F8093E1008091E2008E7F8093E200B6
:104410008091E20080618093E20042E060E080E011
:104420000E9464208091F00088608093F0000E94D8
:10443000CF1DFF91EF91BF91AF919F918F917F9190
:104440006F915F914F913F912F910F900FBE0F9001
:104450001F90189519BC109275020E94CC1D70CF48
:104460008091E30087FD93E090937502B3CF1F9294
:104470000F920FB60F9211242F933F934F935F9398
:104480006F937F938F939F93AF93BF93CF93DF935C
:10449000EF93FF93D091E900DF708091EC00C82F7B
:1044A000C17080FDC0E81092E9008091F000877F24
:1044B0008093F00078940E947B221092E900809112
:1044C000F00088608093F000CD2BCF70C093E9009E
:1044D000FF91EF91DF91CF91BF91AF919F918F911C
:1044E0007F916F915F914F913F912F910F900FBEF0
:1044F0000F901F9018951F93CF93DF93CDB7DEB722
:10450000AA970FB6F894DEBF0FBECDBF86E792E044
:104510002091F100FC012193CF01F2E08E379F073B
:10452000B9F70E94DD1D8091E80083FF1EC18091D4
:104530007602909177029A3008F017C1E92FF0E0E7
:10454000E856FB4D0C941124803899F0823809F01C
:104550000CC180917A028F70873008F006C1809379
:10456000E9008091EB0085FB882780F91092E90033
:1045700006C08091720290917302911182609091B5
:10458000E800977F9093E8008093F1001092F1008B
:104590008091E8008E77E5C0882309F4D3C082308B
:1045A00009F0E3C0809178028111D6C080917A022F
:1045B0008F702FEF280F263008F0D7C08093E900C6
:1045C0002091EB0020FFC8C0933031F48091EB00C4
:1045D00080628093EB00C0C09091EB00906190935B
:1045E000EB0021E030E001C0220F8A95EAF720932A
:1045F000EA001092EA008091EB008860EACF811116
:10460000B4C0109178021F778091E3008078812BED
:104610008093E3008091E800877F8093E8000E9408
:1046200098208091E80080FFFCCF8091E3008068B3
:104630008093E30082E0111183E08093750295C0BE
:104640008058823008F091C0809178029091790270
:104650008C3D23E09207A1F583E08A838AE2898377
:104660004FB7F894DE01139620E03EE051E2E32FCD
:10467000F0E050935700E49120FF03C0E295EF7003
:104680003F5FEF708E2F90E0EA30C0F0C7968D93B9
:104690009D932F5F243159F74FBF8091E800877FAA
:1046A0008093E8006AE270E0CE0101960E94A71FA5
:1046B0008091E8008B778093E80057C0C096E7CFE1
:1046C00060917A0270917B02AE014F5F5F4F0E9452
:1046D000D31EBC01892B09F448C09091E800977F54
:1046E0009093E80089819A810E940520E1CF80386B
:1046F000E1F58091E800877F8093E8008091710266
:104700008093F10045CF811130C0909178029230B2
:1047100060F58091E800877F8093E80090937102B4
:104720000E94982080917102882311F084E005C0D6
:104730008091E30087FDFACF81E0809375020E94AB
:10474000D31D13C080917802813079F481E09330D9
:1047500009F080E0809373021092E9008091E800F4
:10476000877F8093E8000E9498208091E80083FF73
:104770000AC08091E800877F8093E8008091EB0079
:1047800080628093EB00AA960FB6F894DEBF0FBE4E
:10479000CDBFDF91CF911F9108950895CF93809160
:1047A00075028823A1F0C091E900CF709091EC00D0
:1047B000892F817090FD80E8C82B1092E9008091CC
:1047C000E80083FD0E947B22CF70C093E900CF9167
:1047D0000895AA1BBB1B51E107C0AA1FBB1FA61748
:1047E000B70710F0A61BB70B881F991F5A95A9F79A
:1047F00080959095BC01CD01089597FB072E16F486
:10480000009407D077FD09D00E94E92307FC05D06A
:104810003EF4909581959F4F0895709561957F4FD7
:104820000895EE0FFF1F0590F491E02D0994FB0110
:10483000DC0102C005900D9241505040D8F7089518
:10484000F999FECF92BD81BDF89A992780B5089558
:10485000A6E1B0E044E050E00C945A24A8E1B0E0B6
:1048600042E050E00C945A24262FF999FECF92BDD5
:1048700081BDF89A019700B4021639F01FBA20BD25
:104880000FB6F894FA9AF99A0FBE08950396272F57
:104890000E9435240E943424252F0E943524242F81
:1048A0000C9435240196272F0E9435240C9434242F
:1048B000DC01CB01FC01F999FECF06C0F2BDE1BDE0
:1048C000F89A319600B40D9241505040B8F70895CF
:1048D000F894FFCF9B0BA30BAA0BAF0BB40BB90B38
:1048E000BE0BC30BC80BCD0BD20BD70B9D0B9D0B77
:1048F0009D0B9D0B9D0B9D0B9D0B9D0B9F109F106A
:10490000F710F71049116511CC10CC107011FC1183
:104910000B120B12D512D512DE12DE12E012DE12CD
:10492000DE12DE12D512D512E512DE12DE12E5120B
:10493000A422CC22B523CC22B523FF222023B523E9
:044940007723832333
:10494400000200020226022808641E140A321E1401
:104954001D8B1D601D5C1D4A1D01E200E900EA007B
:10496400B500B600B700CD008301CC008A019201E6
:1049740094012102230224022502260227022A028C
:10498400B300B4006F00700081828394969734352D
:10499400366667F7F6F5F4F1F09293373332000197
:1049A400E200E900EA00B500B600B700CD008301DB
:1049B400CC008A01920194012102230224022502DF
:1049C400260227022A02B300B4006F00700081821D
:0249D40083005E
:00000001FF
