:100000000C949C050C94E3050C94E3050C94E30517
:100010000C94E3050C94E3050C94E3050C94E305C0
:100020000C94E3050C94E3050C945A270C941627C2
:100030000C947D2B0C94E3050C94E3050C94E305E0
:100040000C94E3050C94E3050C94E3050C94A42BA9
:100050000C94E3050C94592B0C94E3050C94E305E4
:100060000C94E3050C94E3050C94E3050C94E30570
:100070000C94E3050C94E3050C94E3050C94E30560
:100080000C94A52B0C94E3050C94E3050C94E30568
:100090000C94E3050C94E3050C94E3050C94E30540
:1000A0000C94E3050C94E3050C94E30507634236D6
:1000B000B79BD8A71A39685618AEBAAB558C1D3CF9
:1000C000B7CC5763BD6DEDFD753EF6177231BF00BD
:1000D0000000803F08000000BE922449123EABAAF7
:1000E000AA2ABECDCCCC4C3E00000080BEABAAAA52
:1000F000AA3E00000000BF000000803F000000009A
:1001000000084178D3BB4387D1133D190E3CC3BDD2
:100110004282AD2B3E68EC8276BED98FE1A93E4C7F
:1001200080EFFFBE01C4FF7F3F00000000000C0114
:1001300000FF37FF000000000C0124FF37FF000024
:1001400000000C0180FF37FF000000000C0155FF8C
:1001500037FF000000000C01D5FF37FF0000000052
:100160000C022BFF37FF000000000C02AAFF37FF34
:10017000000000000C02000037FF0000000000003B
:100180000000000000000000000000002D002A0018
:100190002E008900000000000000000000000000A8
:1001A0000000130000002F003000000000000000DD
:1001B000000000000000000033002800340032007E
:1001C0000000000000000000000000000000387186
:1001D000877252002B5D000000000000000000004C
:1001E00000000000E600500051004F000000000039
:1001F000000000000000000023002400250026006D
:10020000270001571E001F002000210022000000CF
:100210001C0018000C0012002B00000014001A0033
:1002200008001500170000000D000E000F00E00090
:10023000000004001600070009000A000B0000007F
:1002400036003700005700001D001B000600190093
:1002500005001100100000000000A800E200E3000B
:10026000910000002C6200002C449000E700000088
:10027000000000000000000000000000000001007D
:10028000010001000100000000000000000000006B
:10029000000000000100000001000100000000005B
:1002A000000000000000000000000100010001004B
:1002B000010000000000000000000000000000003D
:1002C000010001000100010000000000000000002A
:1002D00000000000000065000100010001000000B6
:1002E000000000000000000000000100010001000B
:1002F00001000100010001000100010001000100F6
:1003000000000100010001000100010000000100E7
:1003100001000100010001000000010001000100D6
:1003200001000000010001000100010001000100C6
:1003300000000100010001000000010001000100B7
:100340000100010001000100000000000100E300C5
:10035000E2008B0000000100000001008A0088001C
:10036000000000000000000000000000000000008D
:100370000100010001000100000000000000000079
:100380000000000000005700000001000100000014
:10039000000000000000000000000000000001005C
:1003A000010001000000000000000000000000004B
:1003B00000005800010001000100000000000000E2
:1003C0000000000000000000010001000100010029
:1003D000000000000000000000000000010000001C
:1003E000540054005500010001000100010001000B
:1003F0000100000001005F006000610001000000DA
:100400000100010001000100010000005C005D002E
:100410005E00010000000100010001000100010078
:10042000010000005A005B00010000000100010013
:10043000010001000100010059000000000001005E
:100440000100010001000000010000002C456200D5
:100450006300000000000000000000000000000039
:1004600000004400450049004C000000000000006E
:1004700000000000000000004A0000004D00A9003C
:10048000000000000000000000000000000050001C
:100490004F000100AA000000000000000000000062
:1004A00000000000510001004B00010000000000AE
:1004B0000000000000000000000001004A004E00A3
:1004C0004D000000000000000000000000003F00A0
:1004D000400041004200430048003A003B003C001D
:1004E0003D003E0000000100010001000100460047
:1004F00000000100010001000100010000000100F6
:1005000001004B000100000001000100010001009A
:1005100001000100000001004E0001000000010088
:1005200001000100010001000100010000000000C5
:100530002E5D0100010001000000010000002E5DA1
:1005400001000100000000000000000000000000A9
:10055000000000004400450049004C00000000007D
:10056000000000000000000000004B00000001003F
:10057000010000000000000000000000000000007A
:100580000100010001000100000000000000000067
:10059000000000000000BB0001004B002E5D0000C9
:1005A00000000000000000000000000001004A0000
:1005B0004E004D00000000000000000000000000A0
:1005C0003F00400041004200430048003A003B0029
:1005D0003C003D003E000000010001000100010060
:1005E00046000000010001000801010001000000B8
:1005F000510052004F0001000000040101004C00B6
:100600004F002900500000000100BC000100000064
:10061000010001000100010050004E002800000010
:1006200000000100010001000100000001000000C5
:1006300001000100010000000000000000000000B7
:100640000000000000002D002A002E00890000009C
:100650000000000000000000000000001300000087
:100660002F0030000000000000000000000000002B
:1006700000003300280034003200000000000000B9
:1006800000000000000000003871877252002E5DEB
:100690000000000000000000000000000000010059
:1006A0000100010001000000000000000000000047
:1006B00000002300240025002600270029001E003A
:1006C0001F0020002100220000001C0018000C0068
:1006D00012002B00000014001A000800150017007B
:1006E00000000D000E000F00E000000004001600E6
:1006F000070009000A000B00000036003700005711
:1007000000001D001B00060019000500110010006C
:1007100000000000010001000100010000000100D4
:1007200000000100010001000000000000000000C6
:1007300000000000000000000100010001000100B5
:1007400000000000000000000000000000000100A8
:100750000000010001000000000000000000000097
:1007600000000000C35C0100010001000000000067
:100770000000000000000000000001000100010076
:100780000100000000000000000000000000000068
:100790000100010001000100000000000000000055
:1007A0000000000001000100010001000100010043
:1007B000C55CC75CC95C01000100000001000100CC
:1007C00001000100010000000100295D0100005C42
:1007D000010000000100CD5CC25C010000000100CE
:1007E0000100010001000100010000000100010002
:1007F000010000000100010001000100010002539E
:10080000285D00000000010001000100010000005F
:1008100001000000010001000100000000010101D1
:1008200001010101010102020202020202020203AD
:10083000030303030303030404040404040405057D
:100840000505050606060606070707070708080840
:1008500008090909090A0A0A0B0B0B0C0C0C0D0DEF
:100860000D0E0E0E0F0F0F10101111111212131387
:100870001414151516161717181819191A1A1B1B00
:100880001C1D1D1E1E1F202021222223242425265C
:1008900026272829292A2B2C2D2D2E2F3031323294
:1008A000333435363738393A3B3C3D3E3F404142A0
:1008B000434445464748494A4C4D4E4F5051535486
:1008C000555658595A5B5D5E5F616264656668693A
:1008D0006B6C6D6F7072737577787A7B7D7E8082BA
:1008E000838587888A8C8E8F91939596989A9C9E03
:1008F000A0A2A3A5A7A9ABADAFB1B3B5B7BABCBE13
:10090000C0C2C4C6C9CBCDCFD1D4D6D8DBDDDFE2DF
:10091000E4E7E9EBEEF0F3F5F8FAFDFFFFAA7F5507
:1009200040000102030D0C0405060708090A0B220A
:1009300023252628292A2C2D2F3032333536383AD4
:100940003B3D3E4042434547494A4C4E505153552A
:1009500057595A5C5E6062646668696B6D6F71734B
:100960007577797B7D7F81838587898A8C8E90924C
:100970009496989A9C9E9FA1A3A5A7A8AAACAEAF57
:10098000B1B3B4B6B8B9BBBCBEBFC1C2C3C5C6C79C
:10099000C9CACBCCCDCED0D1D2D2D3D4D5D6D7D74D
:1009A000D8D9D9DADADBDBDBDCDCDCDCDCDDDDDD95
:1009B000DDDCDCDCDCDCDBDBDBDADAD9D9D8D7D791
:1009C000D6D5D4D3D2D2D1D0CECDCCCBCAC9C7C63E
:1009D000C5C3C2C1BFBEBCBBB9B8B6B4B3B1AFAE7C
:1009E000ACAAA8A7A5A3A19F9E9C9A989694929022
:1009F0008E8C8A89878583817F7D7B7977757371FA
:100A00006F6D6B6968666462605E5C5A59575553D6
:100A100051504E4C4A4947454342403E3D3B3A388F
:100A200036353332302F2D2C2A29282625232274BF
:100A3000016A01600156014C01420138012E01009A
:100A4000007F3F1F643214783C1E1E140A05050106
:100A50000980A101850319012AB700150126B700F5
:100A6000950175108100C0050C0901A101850419CB
:100A7000012AA002150126A002950175108100C06F
:100A800005010906A101050719E029E7150025015F
:100A90009508750181029501750881010507190006
:100AA00029FF150026FF0095067508810005081925
:100AB000012905950575019102950175039101C004
:100AC00009023B00020100A0FA0904000001030131
:100AD00001000921110100012240000705810308DE
:100AE000000A0904010001030000000921110100AE
:100AF000012232000705820320000A1201100100C2
:100B0000000008EDFE5A1731000102030104033012
:100B10000000000C034A006F006E006500730000C7
:100B20000010036A00700073006B0065006E006EB9
:100B3000000000040309040011241FBECFEFDAE017
:100B4000DEBFCDBF04B603FE27C08091BC069091E6
:100B5000BD06A091BE06B091BF068730904BA7405E
:100B6000B04BD1F41092BC061092BD061092BE0696
:100B70001092BF0614BE84B7877F84BF0FB6F89467
:100B8000A895809160008861809360001092600059
:100B90000FBEE0E0F8E3099526E0A0EFB4E001C065
:100BA0001D92AC3BB207E1F714E0A0E0B1E0E2EE49
:100BB000FAE602C005900D92A03FB107D9F70E9456
:100BC00037280C9437350C940000E8EDF0E0808174
:100BD0008E7F80831092E2001092DA001092E10082
:100BE000A0EEB0E08C9181608C9380818F778083C0
:100BF00019BCA7EDB0E08C918E7F8C9380818F7EA5
:100C000080831092880608952091E4003091E500D9
:100C100095E6A9012091EC00822F817020FF06C08B
:100C20008091E80080FF06C080E008952091E800F0
:100C300022FD1AC080919506882389F0853089F0BD
:100C40008091EB0085FD0FC02091E4003091E5001C
:100C500042175307F9F29150E1F684E0089582E0DB
:100C6000089583E0089581E00895EF92FF920F9335
:100C70001F93CF937C018B010E940406C82F811122
:100C800017C08091E80085FD0BC08091E8008E7749
:100C90008093E8000E940406882399F3C82F08C0B7
:100CA000F70181917F018093F1000150110949F70B
:100CB0008C2FCF911F910F91FF90EF90089580910D
:100CC000970687FF13C08091E80082FF06C08091DD
:100CD000E8008B778093E80004C08091950681112D
:100CE000F2CF0895809195068823D9F38091E8008A
:100CF00080FFF8CF8091E8008E77ECCF982F90930B
:100D0000E900242F762F50E0891731F07091EC0024
:100D10002091ED005091F00021FD07C09F5F9730BA
:100D200071F78093E90081E008953091EB003E7FF8
:100D30003093EB003091ED003D7F3093ED0030912A
:100D4000EB0031603093EB007093EC002093ED00EA
:100D50005093F0002091EE0027FDE0CF80E0089551
:100D6000CF92DF92EF92FF920F931F93CF93DF9377
:100D7000C8EDD0E088818F7E8883E7EDF0E0808148
:100D80008160808384E082BF81E0809388068881CF
:100D90008E7F888302EE10E0F80110821092DA0054
:100DA00081EEC82ED12CF601108288818F7788833E
:100DB00088818068888388818F7D888319BC1092A0
:100DC000950610929606109294061092930690EE55
:100DD000E92EF12CF70180818B7F808388818160EF
:100DE000888342E060E080E00E947E06F601808118
:100DF0008E7F8083F801808181608083808188601C
:100E00008083F70180818E7F8083888180618883E1
:100E1000DF91CF911F910F91FF90EF90DF90CF90D6
:100E20000895FC0180919D0690919E068617970774
:100E3000A0F06115710529F49091E8009E779093D8
:100E4000E80090E06115710551F4911108C080919E
:100E5000E80082FF34C080E00895BC01F2CF8091A9
:100E600095068823C1F18530C1F18091E80083FDAA
:100E700030C08091E80082FDEACF8091E80080FFD9
:100E8000E1CF8091F3002091F200382F61157105B8
:100E900019F02830310558F091E02830310509F07B
:100EA00090E02091E8002E772093E800CBCF81914D
:100EB0008093F100615071092F5F3F4FE7CF809120
:100EC0009506882341F0853041F08091E80083FF4A
:100ED000BECF81E0089582E0089583E008950895EB
:100EE000089580918A0608959C014FB7F8948091E7
:100EF0001E0690911F06A0912006B09121064FBFBB
:100F0000821B930B08952FB7F89480911E06909141
:100F10001F06A0912006B09121062FBF08959C01C5
:100F2000FC0132969FEF80E04191461751F09F3FC0
:100F300019F4411101C0982F8F5F8630A9F79F3FA8
:100F400009F40895290F311D97FD3A95F90162833F
:100F500008958091190681111092190608958095BF
:100F6000909118069823909318060895809118067A
:100F700090911706892B90911606892B8093F00487
:100F800090911906992391F0892B8093F00420E029
:100F900082EF94E0FC013191CF0131112F5FF4E039
:100FA000883F9F07B9F721110E94A907E0913D06EC
:100FB000F0913E06309731F00280F381E02D80EF12
:100FC00094E0099408952BE0929F800D1124982FAE
:100FD000977086958695869525E0829FF00111246D
:100FE000EB53FA4F50E040E080E0219130E0092ED1
:100FF00002C0369527950A94E2F721703327042E14
:1010000001C0220F0A94EAF7822B4F5F5F4F4530F1
:10101000510559F708952BE0929F800D1124982FC8
:10102000977041E001C0440F9A95EAF7869586953E
:10103000869595E0899FF0011124EB53FA4F90E0DB
:1010400080E070E05191DF0111979B01082E02C0F2
:10105000369527950A94E2F72170219525272423B8
:1010600025272C9301968530910561F708952091ED
:10107000C4059091930556E0291302C080E00895BD
:1010800030E0529FF001539FF00D1124EC56FA4FBF
:101090007181761306C07081781303C07281741356
:1010A00004C02F5F3F4F2770E7CF81E00895452BA5
:1010B00039F0682381E06F3F09F080E08170089586
:1010C00081E0FCCF8091C40590919305981301C0F5
:1010D00008958F5F8770FACF882341F080959091B3
:1010E00017068923809317060C94B6070895882362
:1010F00039F090911706982B909317060C94B60729
:101100000895882321F00E94AF070C94B607089534
:10111000882339F090911806982B909318060C9418
:10112000B607089520916D0530916E05281739078F
:1011300071F090936E0580936D05E0913D06F091FE
:101140003E06309721F00084F185E02D0994089542
:1011500020916B0530916C052817390771F0909339
:101160006C0580936B05E0913D06F0913E0630974B
:1011700021F00680F781E02D09940895109217065A
:10118000109216060E94B60790E080E00E94A80820
:1011900090E080E00C949208882381F19CEF980FF6
:1011A000913A78F4E2EFF4E028EF34E0919189137A
:1011B00003C0DF0111971C922E173F07B9F70C945B
:1011C000B60790E2980F983050F4877091E001C014
:1011D000990F8A95EAF7892F0E94AF07F0CF9BE518
:1011E000980F933020F490E080E00C94A808885A7F
:1011F000873120F490E080E00C9492080895CF931A
:10120000C82F882309F44EC08CEF8C0F813AF8F474
:10121000E2EFF4E088EF94E0DF012D91C21759F07E
:101220008A179B07D1F76C2F80EF94E00E948F07FD
:10123000CF910C94B6072191C21303C0DF0111971F
:101240001C928E179F07B9F70E94B607ECCF80E279
:101250008C0F883068F4C77021E030E001C0220FA5
:10126000CA95EAF780911806822B80931806E0CF82
:10127000EBE5EC0FE33040F4F0E0E556FB4F808106
:1012800090E0CF910C94A808C85AC73158F4EC2FBD
:10129000F0E0EE0FFF1FE256FB4F80819181CF916E
:1012A0000C949208CF910895E0913D06F0913E068E
:1012B000309721F00190F081E02D099480E00895AD
:1012C000CF93DF93EC0181E0898B809118069F8199
:1012D000892B80931806809117069885892B809317
:1012E00017060E94B607EA81FB81309739F06C89B6
:1012F0007D89CE010696DF91CF910994DF91CF9140
:101300000895EF92FF920F931F93CF93DF93EC0119
:101310008A85811139C0EB80FC8087E5F81A26E1C7
:101320002E9DC0012F9D900D1124DC01AD5CBC4FA2
:101330001496ED91FC911597309731F054966D917C
:101340007C91875C9C4F099586E18E9D80018F9DE5
:10135000100D11240D5C1C4FF80187810E94AF070E
:10136000F8018085982F90958091170689238093A6
:1013700017060E94B607188219861B861E821D82D8
:1013800010928A0510928905DF91CF911F910F91DC
:10139000FF90EF900895FA01811101C0FB010994BB
:1013A00080915C06982F9E7F61F4817082608093AB
:1013B0005C0680915F068B3F18F08AEF80935F0692
:1013C00008958833B0F381708663F1CFAF92BF92F6
:1013D000DF92EF92FF920F931F93CF93DF93082F2B
:1013E000162FE901E42FF0E0E45EF74F611110C021
:1013F000E4915E2F4E2F4983E8835A83DF91CF918A
:101400001F910F91FF90EF90DF90BF90AF900895E4
:10141000E62EF12C4491D42EE42FF0E026E0829FBA
:10142000C00111242FEF30E0B9010E943030802F2D
:1014300090E0880F991F55E5569FD001579FB00D3A
:1014400011248A1B9B0B982F990F890F5901AE18F5
:10145000BF08AE9ED001AF9EB00DBE9EB00D112450
:101460005B2F189F80011124012F11275901A01A09
:10147000B10AAE9E8001AF9E100DBE9E100D1124CC
:101480005901A81AB108AE9CC001AF9C900DBE9C3A
:10149000900D1124892F9927281B390B2E9FC001ED
:1014A0002F9F900D3E9F900D1124E92F6230710502
:1014B000A1F050F46115710509F49DCF61307105FB
:1014C00081F0EB2F512F97CF6430710569F080F0D8
:1014D0006630710509F48FCFF4CFE42F4B2F592FCD
:1014E0008ACFE42F412F87CFEB2F542F492F83CF63
:1014F0004B2F5D2DE12F7FCF9091380692FF06C0D4
:10150000282F28712830F9F4877F846093FF06C064
:10151000282F28712831F1F4877E846120913906C3
:1015200020FF06C0382F38713830D9F4877F8160AA
:1015300021FF06C0282F28712831D1F4877E8161D0
:1015400094FD877E0895282F24712430F9F68B7F2F
:101550008860DCCF282F2471243101F78B7E8861CD
:10156000DDCF382F3171313019F78E7F8860E0CFB1
:10157000282F2171213121F78E7E8861E1CFCF9311
:10158000DF93972F70E02BE0929F600D711D112467
:10159000FB0139E7839FE00DF11D1124EE0FFF1FC2
:1015A000E258FE4FC591D491CE01C238D105B9F1B0
:1015B000E8F5C133D10509F499C050F5C932D10518
:1015C00009F48DC0CA32D10509F497C0C11542E5AE
:1015D000D40708F0B6C0C11521E5D20708F024C130
:1015E000C83ED10508F09DC0C03ED10568F5C83A97
:1015F000D10508F089C0C53AD10508F0EDC0C13069
:10160000D10511F1209709F443C02497E8F440C0B4
:10161000C533D10509F45CC0C933D105B9F62091B1
:101620003806237089F080EE90E00EC0C33ED105ED
:1016300091F168F4C03ED105F9F0C23ED10531F612
:101640002091380622FD20C0DF91CF910895C63E3B
:10165000D10561F1C73ED10581F1C43ED10509F044
:10166000B5CF2091390621FFEFCF8091380684FD58
:101670000FC087EE90E0E8CF2091380620FD01C131
:101680003091390630FFE0CF83EE90E024FFDCCFCD
:1016900090E080E0D9CF2091380622FDF5C030914E
:1016A000390630FDC0CF24FFCFCFF2CF20913806CE
:1016B00023FFCACF24FDECCFDCCF2091380623FDD9
:1016C000E6C03091390631FFEECF84EE90E0BCCF1A
:1016D0002091380625FFB8CF89E290E0B5CF209160
:1016E000380625FFB1CF85E390E0AECF20913806D4
:1016F00026FFAACF8AE290E0A7CF2091380626FFE6
:10170000A3CF81E390E0A0CFCF3BD10508F6C85A24
:10171000D0E0CC0FDD1FC256DB4F888199819464E5
:1017200093CFC11530E5D30708F062C0C11540E47E
:10173000D40708F059C0DA95C115DF4108F484CF09
:10174000A7CFC11536E5D30718F5C11545E5D40770
:1017500008F080C0C11584E5D80708F076C09C2F3A
:1017600096959695AE0143705527C115D34508F45B
:1017700060C021E030E002C0220F331F4A95E2F73B
:1017800040E2949FC0011124822B932B9A685CCF76
:10179000C1153AE5D30778F4C11549E5D40708F037
:1017A00063C0C11588E5D80708F472CF9C2F88273D
:1017B000806F906A49CFCE0190568115904208F013
:1017C00067CF8D2F8F710E947C0A90E0982F882719
:1017D00088279F718C2B46C0C55AD0E0C556DB4F79
:1017E000888190E0906430CFCE019F70906A2CCFBA
:1017F0009E01E4E036952795EA95E1F723708C2F5A
:1018000086958695837030E2839FC0011124922BC8
:10181000C37021E030E002C0220F331FCA95E2F707
:10182000822B932B9C6810CF9C2F8827816F906A06
:101830000BCF21E030E002C0220F331F4A95E2F7C0
:1018400040E2949FC0011124EBCF9C2F8827846F26
:10185000906AFACE8C2F0E947C0A90E0982F8827FD
:1018600088279F719062F0CE8C2F8F700E947C0A27
:1018700034E0D695C7953A95E1F7CF709C2F9069E3
:10188000E3CE89E390E0E0CE82EE90E0DDCE86EE1E
:1018900090E0DACEBF92CF92DF92EF92FF920F9359
:1018A0001F93CF93DF938C01C0909F06D090A0062A
:1018B000E090A106F090A20680911A0690911B0676
:1018C000A0911C06B0911D06C82AD92AEA2AFB2A33
:1018D000CFE1D0E0BC2ED701C6010C2E04C0B695D6
:1018E000A795979587950A94D2F780FD0EC021970A
:1018F00088F7B12C8B2DDF91CF911F910F91FF9025
:10190000EF90DF90CF90BF900895B8018C2F0E9488
:10191000BF0A019761F3EECFCF93DF93EC010E94F2
:101920004A0CBE01DF91CF910C94BF0A0E948C0C2F
:10193000292F2F7092959F7092509E3078F4E92F46
:10194000F0E0E75CFA4C0C945830803F19F020F43A
:10195000883E20F481E00895843FE1F380E008951B
:10196000883EC0F3813FD1F7F5CF822F86958695CB
:10197000869508951F93CF93DF9300D000D00F92E8
:10198000CDB7DEB749835A8389819A81662331F1C5
:10199000222321F10E944A0C182F682F89819A81F5
:1019A0000E940B088A81E981F0E09BE0899FE00DAD
:1019B000F11D112489E7189FE00DF11D1124EE0F90
:1019C000FF1FE258FE4F859194910F900F900F905A
:1019D0000F900F90DF91CF911F9108950E94E30720
:1019E000182FE0CFCF93DF939C013A9521153F410B
:1019F00068F5EC01CC27D170DC01AA27B270AC01EC
:101A0000442754709C012227387094FF11C080E154
:101A1000CD2B09F480E0AB2B09F08062452B09F057
:101A20008064232B09F08068FB01DF91CF9109943A
:101A300081E0CD2B09F480E0AB2B09F08260452BCF
:101A400009F08460232B81F38860EECFDF91CF9182
:101A50000895CF93DF93EC010E94CC08CE01805E05
:101A60009109089720F06CE678E0209711F461E87E
:101A700078E0CE01DF91CF910C94F20CFC018081D3
:101A8000813029F4FB01808191810C94290D8230F1
:101A900021F4FB0182819381F8CF0895CF93DF93E6
:101AA000EC01805E9109089720F067E778E02097C5
:101AB00011F468E878E0CE010E94F20C8C2FDF91DF
:101AC000CF910C94FF08FC018081813029F4FB0147
:101AD000808191810C944E0D823021F4FB01828132
:101AE0009381F8CF0895CF93DF93EC018881823002
:101AF00039F4FB01828193810E944E0D81E08B8736
:101B0000DF91CF910895CF9384E090E00E94D03090
:101B1000C82F81E290E00E94D030982F8C2FCF9177
:101B20000895CF93DF9300D00F92CDB7DEB7909199
:101B30009506943019F589837B836A8382E08093CC
:101B4000E9008FEF9091E800815095FD06C095ED7A
:101B50009A95F1F700008111F5CF8091E80085FF9B
:101B60000DC050E040E063E070E0CE0101960E94BD
:101B700035068091E8008E778093E8000F900F90F3
:101B80000F90DF91CF910895BC0184E00C94910DEA
:101B9000BC0183E00C94910DCF93DF93EC0181E0C5
:101BA0008093E9008FEF9091E800815095FD06C089
:101BB00095ED9A95F1F700008111F5CF8091E8003D
:101BC00085FF14C050E040E068E070E0CE010E9464
:101BD00035068091E8008E778093E80088E0FE016A
:101BE000ABE8B6E001900D928A95E1F7DF91CF91D5
:101BF0000895CF93C82F0E94FF088C2FCF910C948B
:101C0000CC080F931F93CF93DF93C42FD22FFC01E7
:101C100082818823A1F040938B050E9483079093D3
:101C20006A0580936905C77081E001C0880FCA9575
:101C3000EAF7DF91CF911F910F910C9488081091D2
:101C40008B05141335C08091690590916A050E9437
:101C50007407883C910560F5C0E2CD0F1D17B9F0FF
:101C600080E2810F883040F4177081E001C0880F56
:101C70001A95EAF70E948108C83048F481E09D2F48
:101C8000977001C0880F9A95EAF70E948808802F04
:101C90000E94F90DC83098F4D77081E001C0880F18
:101CA000DA95EAF7DF91CF911F910F910C9481089B
:101CB000C77081E001C0880FCA95EAF7F3CFDF91C2
:101CC000CF911F910F91089590E080E00E94DE3047
:101CD00021E08C3E9E4F09F020E0822F0895CF92A4
:101CE000DF92EF92FF926B017C010E94D009B70155
:101CF000A60188E090E0FF90EF90DF90CF900C94E9
:101D0000F63080916006882319F081508093600638
:101D100060915C0670915D0680915E0690915F0611
:101D20000C946F0E80916006833018F48F5F80935F
:101D3000600660915C0670915D0680915E069091F0
:101D40005F060C946F0EECE5F6E083E08083118271
:101D50008FEF82838AEF8383148260817181828115
:101D600093810C946F0E6CEE7EEF90E080E00E9409
:101D7000023160E082E090E00E94E43060E083E0C5
:101D800090E00E94E43010921A0610921B06109206
:101D90001C0610921D0660E084E090E00E94E43092
:101DA00060E081E290E00E94E43060E085E090E055
:101DB0000E94E43060E086E090E00E94E4306FEF43
:101DC00087E090E00E94E43040E050E0BA0188E013
:101DD00090E00E94F63060E08DE090E00E94E430F8
:101DE00040E050E0BA0188E190E00E94F63060E007
:101DF00087E190E00E94E43040E050E0BA018CE1DD
:101E000090E00E94F63060E080E290E00E94E430D2
:101E100040E050E0BA018FE090E00E94F63040E0F0
:101E200050E0BA0183E190E00C94F6300F931F93D9
:101E3000CF93DF930E94640E811102C00E94B30E03
:101E400087E090E00E94D0308093BA068091BB0674
:101E500081114BC03E9A809171008D7F80937100FB
:101E6000279A80916F00877F80936F0002E0009334
:101E700090001AE110939100C1ECD1E1D09397004A
:101E8000C093960023EA3BE04EE855E460912201BE
:101E90007091230180912401909125010E94453386
:101EA0000E945F32709399006093980000938000C5
:101EB00010938100D0938700C093860023EA3BE013
:101EC0004EE855E460912201709123018091240134
:101ED000909125010E9445330E945F3270938D00DE
:101EE00060938C0081E08093BB068091BA0680FFEE
:101EF0000AC063E070E08AE091E0DF91CF911F912A
:101F00000F910C94C90FDF91CF911F910F910895FC
:101F10008091BB06811102C00E94160F10923D05F0
:101F200010923C05809171008D7F809371008091AB
:101F300090008F738093900080916F00877F8093D3
:101F40006F0080918000837F809380001092B8069C
:101F50001092B90610920C0510920D0510920E0504
:101F600010920F0510923405109235051092360527
:101F700010923705E4E1F5E0ABEFB4E01192119275
:101F8000119211921D921D9285E0E433F807B1F78A
:101F900008950F931F93CF93DF93EC018B018091F2
:101FA000BB06811102C00E94160F8091BA0680FF05
:101FB00054C0809171008D7F8093710080916F007B
:101FC000877F80936F008091B90681110E94880FEE
:101FD00081E08093B806D093B706C093B6061093FD
:101FE000B5060093B4061092B3061092AF06109295
:101FF000B0061092B1061092B2061092AE06109280
:10200000AD0688819981AA81BB818093A9069093AE
:10201000AA06A093AB06B093AC0620E030E040E8FF
:102020005EE36C817D818E819F810E944533609348
:10203000A5067093A6068093A7069093A806109213
:10204000A4061092A30680917100826080937100B3
:1020500080919000806880939000DF91CF911F91D4
:102060000F91089581E08093870568E070E087EC28
:1020700091E00C94C90F81E08093880568E070E0DE
:1020800087E491E00C94C90F6091BA066160609397
:10209000BA0687E090E00E94E43062E070E087E2F8
:1020A00091E00C94C90F8091880581110C94880FE0
:1020B00008950E9453101092880568E070E087E848
:1020C00091E00C94C90F62E070E087E391E00E9418
:1020D000C90F2FEF81EE94E0215080409040E1F74E
:1020E00000C000000E94880F6091BA066E7F609366
:1020F000BA0687E090E00C94E43010921806E2EF04
:10210000F4E086E0DF011D928A95E9F70C94BE08A1
:102110001F93CF93DF93CDB7DEB7AA970FB6F8948E
:10212000DEBF0FBECDBF87E996E02091F100FC0134
:102130002193CF01F6E08F399F07B9F78091980678
:10214000833009F46FC0B8F4813009F446C082309E
:1021500009F4B0C08091E80083FF87C280919706A0
:10216000909198069A3008F080C2E92FF0E0E95B80
:10217000FA4C0C9458308A3009F48BC08B3009F437
:102180006EC0893039F780919706813219F78091B6
:102190009B0690919C060297E8F68091E800877F65
:1021A0008093E8008091E80082FF37C09091F300AF
:1021B0008091F200029729F48091F1008B7F8130A9
:1021C00021F48091F10080938A068091E8008B775A
:1021D0008093E8000E945F06BDCF80919706813A08
:1021E00009F0B8CF8091E800877F8093E800809164
:1021F0009B0690919C06892B61F468E08BE896E041
:1022000070E00E9411078091E8008B778093E800CE
:10221000A1CF60E090E080E0F3CF8091950681113E
:10222000C1CF98CF80919706813A09F093CF8091E2
:102230009B0690919C06892B09F08CCF8091E80039
:10224000877F8093E8008091E80080FFFCCF809139
:10225000E2038093F1008091E8008E77B9CF8091FE
:102260009706813209F076CF80919B0690919C066B
:10227000892B09F06FCF8091E800877F8093E80079
:102280000E945F06809199068093E2030E947D1070
:1022900061CF80919706813209F05CCF8091E80090
:1022A000877F8093E8000E945F0680919A06809362
:1022B000890650CF80919706813A09F04BCF8091E3
:1022C000E800877F8093E8008091E80080FFFCCFE2
:1022D00080918906BECF803899F0823809F0C5C157
:1022E00080919B068F70873008F0BFC18093E90012
:1022F0008091EB0085FB882780F91092E90006C0E9
:102300008091930690919406911182609091E800DB
:10231000977F9093E8008093F1001092F1008091F4
:10232000E8008E779EC1882309F48CC1823009F0C1
:102330009CC18091990681118FC180919B068F70FD
:102340002FEF280F263008F090C18093E9002091EC
:10235000EB0020FF81C1933031F48091EB0080626B
:102360008093EB0079C19091EB0090619093EB002A
:1023700021E030E001C0220F8A95EAF72093EA00BD
:102380001092EA008091EB008860EACF81116DC164
:10239000109199061F778091E3008078812B8093BC
:1023A000E3008091E800877F8093E8000E945F0649
:1023B0008091E80080FFFCCF8091E30080688093EB
:1023C000E30082E0111183E0809395064EC18058AE
:1023D000823008F04AC18091990690919A068C3D0E
:1023E00023E09207A1F583E08A838AE289834FB7CD
:1023F000F894DE01139620E03EE051E2E32FF0E096
:1024000050935700E49120FF03C0E295EF703F5FC7
:10241000EF708E2F90E0EA30C0F0C7968D939D93B9
:102420002F5F243159F74FBF8091E800877F809359
:10243000E8006AE270E0CE0101960E9411078091E7
:10244000E8008B778093E80010C1C096E7CF4091F9
:102450009B0650919C06292F33272330310509F420
:1024600045C078F52130310509F47BC08BE390E05D
:10247000E0ECFAE02230310509F0F7C02091E800E5
:10248000277F2093E80020919D0630919E068217B9
:10249000930708F49C0140E02115310509F070C054
:1024A00041116EC08091E80082FDC9CF80919506F0
:1024B000882329F2853019F28091E80083FFF2CF5A
:1024C000BECF2132310509F440C02232310509F076
:1024D000CCC04115510509F44EC04130510509F0F9
:1024E000C4C082E390E0EEE4FAE0C8CF99278130DF
:1024F0009105D9F0009771F082309105F1F00397C2
:1025000009F0B3C0EDE0FBE0E4918E2F90E0EDE048
:10251000FBE007C0E3E3FBE0E4918E2F90E0E3E310
:10252000FBE0009709F4A1C0A9CFE1E2FBE0E49150
:102530008E2F90E0E1E2FBE0F4CFE3E1FBE0E491F9
:102540008E2F90E0E3E1FBE0ECCF4115510571F0F7
:102550004130510509F089C089E090E0EBEEFAE0E6
:102560008DCF82E190E0EBEFFAE088CF89E090E058
:10257000E2EDFAE083CF80E490E0E0E8FAE07ECF9D
:1025800080919506882309F45ACF853009F457CFF6
:102590008091E80083FD53CF8091E80082FD82CFD7
:1025A0008091E80080FF78CF9091F3008091F20055
:1025B0002115310519F08830910550F041E0089758
:1025C00009F040E08091E8008E778093E80064CFC6
:1025D00044914093F1003196215031090196E8CFA2
:1025E000803809F042C08091E800877F8093E8003E
:1025F000809196068093F10092CE811136C01091A1
:102600009906123090F58091E800877F8093E8006A
:10261000109396060E945F06112311F084E005C016
:102620008091E30087FDFACF81E08093950642E038
:1026300061EC81E00E947E0642E261EC82E00E9451
:102640007E0613C080919906813079F481E0933041
:1026500009F080E0809394061092E9008091E800F0
:10266000877F8093E8000E945F068091E80083FFE7
:102670000AC08091E800877F8093E8008091EB009A
:1026800080628093EB00AA960FB6F894DEBF0FBE6F
:10269000CDBFDF91CF911F9108955F926F927F928E
:1026A0008F929F92AF92BF92CF92DF92EF92FF9262
:1026B0000F931F93CF93DF93CDB7DEB7AA970FB6D3
:1026C000F894DEBF0FBECDBF80915C0680FD0AC0CE
:1026D000EFE3F5E0118210821282339625E0E936AD
:1026E000F207C1F780903B0690903C06811491045C
:1026F00009F458C0D12CC12C66246394712C13E0CA
:10270000512E8091630693010C2C01C0220F0A9474
:10271000EAF7822309F43EC0F601EE0FFF1FE80D31
:10272000F91DE590F490E114F104E1F145E050E089
:10273000B701CE0101960E94BA3009810F3F51F1D5
:102740008A81800F9927991F8F30910514F08EE0B0
:1027500090E05C01AA0CBB1C8A0D9B1DFC01E15C96
:10276000FA4F5F01059D80011124015C1A4F0A1583
:102770001B0520F0F5E0EF0EF11CD8CF4D814B3F4B
:1027800008F04AEF98016C818B810E94E6090D5F89
:102790001F4FEDCF2FEFC21AD20A38E0C316D10473
:1027A00009F0AFCF71E2A72E79E0B72EDE011196C6
:1027B000AE01455D5F4F1A2F7B2FF5018491282FC5
:1027C00030E0C901880F991F820F931F815C9A4FD7
:1027D000FC01C080D180E280CD92DD92ED92FFEFCE
:1027E000AF1ABF0AA417B50741F7809A31B33E7FED
:1027F00021B321606FB7F894812F972FFC0171915D
:10280000CF01E8E021BB000000C077FF31BB770FAC
:10281000000000C000C000C031BB00C0EA9591F7C5
:102820008417950759F76FBF8FE594E00197F1F78B
:1028300000C00000AA960FB6F894DEBF0FBECDBF51
:10284000DF91CF911F910F91FF90EF90DF90CF908C
:10285000BF90AF909F908F907F906F905F90089502
:102860000F931F93CF93DF93CFE3D5E0FE01118247
:1028700010821282339685E0E936F807C1F710E03E
:1028800000E080913E05082E000C990B08171907EF
:10289000A4F180911302082E000C990B8017910768
:1028A00064F140915F064B3F08F04AEF9E01609152
:1028B0005E0680915D060E94E6090F5F1F4F23961A
:1028C0000E301105F1F60E944D1380911202909185
:1028D0003E05980F90933E0520911302280F2093F8
:1028E0001302121614F49D301CF08195809312028D
:1028F000DF91CF911F910F910895198218821A824A
:10290000DCCFEF92FF921F93CF93DF93EC018FE325
:10291000E82E85E0F82E10E040915F064B3F08F06E
:102920004AEF8C81970160915E06810F0E94E60953
:102930001E5E83E0E80EF11C1C3F71F70E944D13F0
:102940009A818C8190FF08C08F5F8C83DF91CF913B
:102950001F91FF90EF9008958150F7CF90915C0602
:1029600090FF0CC0EFE3F5E08183608342833396F0
:1029700095E0E936F907C1F70C944D130895CF930C
:10298000DF9300D00F92CDB7DEB790915C0690FF39
:102990000DC04B3F08F04AEF9E012F5F3F4F0E9452
:1029A000E6094B8169818A810E94AE140F900F90D5
:1029B0000F90DF91CF910895CF93DF93EC01EC81DD
:1029C000F0E0E15DF64F4491ECE5F6E06281818153
:1029D0000E94BF148C818F5F8C83DF91CF9108950B
:1029E000CF93DF93EC01ECE5F6E0438162818C81CB
:1029F0000E94BF148C818F5F8C83DF91CF910895EB
:102A00005F926F927F928F929F92AF92BF92CF927E
:102A1000DF92EF92FF920F931F93CF93DF9300D03B
:102A20000F92CDB7DEB7082F762E142F622E90911D
:102A30005C0690FF2DC0E92FE695AE2FB0E0AA5FAF
:102A4000BB4F8C91809361069E7F9230A1F54B3FE6
:102A500008F04AEF9E012F5F3F4F672D802F0E94A5
:102A6000E6094B8169818A810E94AE1400935D065C
:102A700070925E0610935F06662051F060915C06CE
:102A800070915D0680915E0690915F060E946F0EC8
:102A90000F900F900F90DF91CF911F910F91FF90AA
:102AA000EF90DF90CF90BF90AF909F908F907F90EE
:102AB0006F905F900895823019F410915F06D6CF21
:102AC000863019F400915D06D1CF8930D9F3823177
:102AD00069F6E2518E2F8170582EE695F0E0E45EA3
:102AE000F64FA590B490BB248FE3E82E85E0F82E36
:102AF000D12CC12C9EE0892E912CC601B4010E94DC
:102B00003030802F511016C0860F412F1B3F08F028
:102B10004AEF9701672D0E94E609CA0CDB1C83E08F
:102B2000E80EF11C89E6E81685E0F80631F70E9408
:102B30004D139CCF861BE9CFECE5F6E0438128E0FE
:102B4000421B08F440E021E0628181810C94001571
:102B5000ECE5F6E0438128E0420F08F44FEF21E076
:102B6000628181810C940015ECE5F6E0628128E039
:102B7000621B08F460E021E0438181810C94001520
:102B8000ECE5F6E0628128E0620F08F46FEF21E0E7
:102B9000438181810C940015ECE5F6E0818121E010
:102BA0004381628188500C940015ECE5F6E0818148
:102BB00021E043816281885F0C94001590915C064E
:102BC00090FF3DC09170811129C0926090935C0686
:102BD000662351F060915C0670915D0680915E06FF
:102BE00090915F060E946F0E60915C06669570E0A2
:102BF0004BE050E087E092E00E94C330892BA9F0BF
:102C00001092620681E08093590620E040915F06B1
:102C100060915E0680915D060C9400158C3110F079
:102C20009663D4CF880F982BD1CF81E08093620632
:102C30000E9483079093570680935606E3CF08952A
:102C400021E030E0A90102C0440F551F8A95E2F748
:102C5000CA0120916306662399F0822B8093630654
:102C600080916206811106C080915C0660E08695C5
:102C70000E94DE1580915C0680FD05C00C944D130A
:102C800080958223EBCF0895CF92DF92EF92FF924F
:102C90006B017C0161E0C114D104E104F10409F08D
:102CA0006C2D617080E00E94201660E0C114D10498
:102CB000E104F10441F0D701C601B695A7959795B7
:102CC0008795682F617081E00E94201660E0C11432
:102CD000D104E104F10459F0D701C60122E0B69510
:102CE000A795979587952A95D1F7682F617082E00F
:102CF0000E942016C0921A06D0921B06E0921C0673
:102D0000F0921D06FF90EF90DF90CF900C94BE08DC
:102D100081FB662760F983E00C942016CF92DF9246
:102D2000EF92FF926B017C0160E0C114D104E104D9
:102D3000F10459F0DC01C60162E0B695A7959795BC
:102D400087956A95D1F7682F617082E00E942016FE
:102D500060E0C114D104E104F10459F0D701C601C7
:102D600053E0B695A795979587955A95D1F7682F13
:102D7000617084E00E94201660E0C114D104E10477
:102D8000F10459F0D701C60144E0B695A79597958F
:102D900087954A95D1F7682F617085E00E942016CB
:102DA00060E0C114D104E104F10459F0D701C60177
:102DB00035E0B695A795979587953A95D1F7682F01
:102DC000617086E00E94201660E0C114D104E10425
:102DD000F10459F0D701C60126E0B695A79597955D
:102DE00087952A95D1F7682F617087E00E94201699
:102DF000C701B601FF90EF90DF90CF9008950E9439
:102E00008E1660939F067093A0068093A106909300
:102E1000A2060C94BE080F931F9360919F067091B9
:102E2000A0068091A1069091A2068B019C010871D9
:102E3000112722273327083111052105310529F4EF
:102E400060641F910F910C94FF166F7BFACF0F9364
:102E50001F9341E050E060E070E004C0440F551F54
:102E6000661F771F8A95D2F7CB01BA0160957095DE
:102E70008095909500919F061091A0062091A10643
:102E80003091A20660237123822393231F910F9117
:102E90000C94FF1690911506809589238093150652
:102EA000282F277071F4282F082E000C330B92174F
:102EB000130639F08595859585950E942717109200
:102EC00015060895FC01838194818130974549F46A
:102ED00080910901843019F482E00E942717109232
:102EE000090108950F931F9341E050E060E070E006
:102EF00004C0440F551F661F771F8A95D2F7809133
:102F00009F069091A006A091A106B091A2068A0109
:102F10009B01082B192B2A2B3B2BC901B8011F91B0
:102F20000F910C94FF16FC019081913081F4828501
:102F3000811113C0909309012381348121303745D9
:102F400079F5933091F058F491110CC008959230B6
:102F500071F3933061F398E0EDCF94E0EBCF9430D0
:102F6000E1F0089589E20C94F90D80919F0690910B
:102F7000A006A091A106B091A2060097A105B105F7
:102F800061F022E0B695A795979587952A95D1F798
:102F900080FF03C082E00C94271782E00C94721724
:102FA000089580915C068695815009F48BE161E07B
:102FB0000C94DE1580915C0686958F5F8C3108F04D
:102FC00081E061E00C94DE1590915C0690FF07C0F3
:102FD0009695981720F0961710F40C94DA1761E084
:102FE0000C94DE150F931F93962F811108C08AEA67
:102FF000911101C089EA1F910F910C94F90D813054
:1030000009F070C040919F065091A0066091A10602
:103010007091A2068B012227332780E0011511054C
:103020002105310519F0B901A80180E1052F162FFE
:10303000272F3327011511052105310519F0885F68
:10304000B901A8018A019B01F4E0369527951795EF
:103050000795FA95D1F7011511052105310519F0EC
:103060008C5FB901A8018A019B01E2E036952795A2
:1030700017950795EA95D1F7011511052105310539
:1030800019F08E5FB901A801769567955795479518
:10309000452B462B472B09F08F5F843079F0863023
:1030A000B9F0833009F0A3CF992321F01F910F913C
:1030B0000C94CC151F910F910C94D515992321F0E8
:1030C0001F910F910C949C151F910F910C94A815B2
:1030D000992321F01F910F910C94D1171F910F91FB
:1030E0000C94DA171F910F910895CF92DF92EF920F
:1030F000FF92CF93C82F8091BB06811102C00E941E
:10310000160F8091BA0680FF7DC080913C0590919A
:103110003D0508970CF076C0809171008D7F8093FB
:10312000710080916F00877F80936F008091B80657
:1031300081110E94880F8C2F8554990BBC01072E9A
:10314000000C880B990B0E94903220E030E040E4A4
:1031500051E40E94ED319B01AC0160E070E080E041
:1031600090E40E94B23320E030E04CED53E40E9442
:1031700045336B017C0181E08093B9061092130501
:103180001092120520E030E0A901C701B6010E94AB
:1031900040331816ECF480913C0590913D05FC01FC
:1031A000EE0FFF1FEE0FFF1FEC5EFA4FC082D182C1
:1031B000E282F382FC01EE0FFF1FE550FB4F2FE090
:1031C00030E031832083019690933D0580933C0548
:1031D000809171008260809371008091900080687E
:1031E0008093900080913C0590913D05029754F0AA
:1031F00080916F00886080936F008091800088606C
:1032000080938000CF91FF90EF90DF90CF90089552
:10321000CF92DF92EF92FF920F931F93CF93DF93A2
:10322000C82F8091B906882309F48DC08091BB0610
:10323000811102C00E94160F8C2F8554990BBC017E
:10324000072E000C880B990B0E94903220E030E092
:1032500040E451E40E94ED319B01AC0160E070E07C
:1032600080E090E40E94B23320E030E04CED53E483
:103270000E9445336B017C0104E115E0C7E0D0E01A
:10328000A7019601F801648D758D868D978D0E943A
:10329000E831811172C0FE01EE0FFF1FEE0FFF1F1C
:1032A000EC5EFA4F1082118212821382CC0FDD1F66
:1032B000C550DB4F1982188285E0E033F80709F02A
:1032C0004BC080913C0590913D05019797FD5DC0F5
:1032D00090933D0580933C0580913C0590913D0580
:1032E00020911005309111052817390724F010920C
:1032F000110510921005892B31F5809171008D7F99
:1033000080937100809190008F73809390008091E2
:103310006F00877F80936F0080918000837F809310
:10332000800010920C0510920D0510920E0510925F
:103330000F05109234051092350510923605109243
:1033400037051092B906DF91CF911F910F91FF9031
:10335000EF90DF90CF90089584819581A681B78109
:1033600081939193A193B19310821182128213825F
:103370008A819B81899399939DCF2197045011094C
:10338000CF3FDC0709F07CCF9CCF10923D05109217
:103390003C05A2CF2F923F924F925F926F927F9205
:1033A0008F929F92AF92BF92CF92DF92EF92FF9255
:1033B0000F931F93CF93DF9302E216E02CECA22E23
:1033C00024E0B22EB801312C212CCC24C394D12C72
:1033D000DB016D907D90BD011E921E92E5018991E9
:1033E0005E01E82FE295EF70F0E091A18F70460149
:1033F00001C0880C8A95EAF7892F882981A382A1C8
:10340000582C5094852182A3D0EADA95F1F790E008
:1034100080E0381621F19C0124533B4FE90148809C
:10342000242D22952F7030E0E901E8A04D915C91A8
:1034300011979601082E02C0220F331F0A94E2F75B
:10344000F12CD42DDF7002C0F594E794DA95E2F701
:10345000E0FC3EC0242B352B11963C932E93019615
:103460008B309105B1F681A1582251A282A1882A00
:1034700082A281E02D913C912615370509F480E068
:10348000282A3394EBE03E12A3CF222031F181E0D1
:103490008093FA040E9483079093F9048093F804C0
:1034A0008091F8049091F9040E9474070697C8F07F
:1034B000E0E4F6E088E396E0D8012D913D918D019E
:1034C000219331938A179B07B9F71092FA0409C028
:1034D0002095309524233523BFCF8091FA048111A4
:1034E000DFCF809184058823F1F080918005909151
:1034F0008105009779F40E9483079093810580935A
:10350000800580918205282F30E0882329F1C901A8
:10351000019726C00E947407209131033091320335
:103520002817390740F380915F038F3F09F078C077
:10353000822DDF91CF911F910F91FF90EF90DF903F
:10354000CF90BF90AF909F908F907F906F905F9043
:103550004F903F902F900895809183058150990B53
:1035600040918805442389F020593A4FF901D081D0
:1035700080599A4FDC018C910E940819809188052E
:10358000882319F08D2F0E9475188091820590E094
:1035900001966091830570E00E944430809382051B
:1035A000C2CFF29EF001F39EF00D1124ED5CFC4FB2
:1035B000C288D388C114D10419F498ECC92ED12C37
:1035C000F29E8001F39E100D11240D5C1C4FF8013A
:1035D00086818823C9F0858596850E947407C81660
:1035E000D90690F4DF9D60011124D80151968C9189
:1035F000811105C0C6018D5C9C4F0E946009C60107
:10360000875C9C4F0E948109DF5F2D2F30E0809105
:103610005F03082E000C990B8217930714F688CFCE
:10362000D0E086E1F82EF1CF4F925F926F927F92B9
:103630008F929F92AF92BF92CF92DF92EF92FF92C2
:103640000F931F93CF93DF93CDB7DEB7A3970FB63A
:10365000F894DEBF0FBECDBF7C01DC0113964D9107
:103660005C91149711966C9111978C910E94570858
:10367000C82E81110C942C2421E0F7014081518146
:103680006281738184810E94BA0C8C01D7011296E9
:103690008C91811147C00032BCE51B0709F083C043
:1036A000D70112968C91882309F444C18091BA06FF
:1036B000682F6D7F81FF62606093BA0687E090E0BB
:1036C0000E94E4300532FCE51F0709F458C10332BB
:1036D000ECE51E0709F02EC1F7018281882309F469
:1036E00079C029E038E348E95FE360912C027091EA
:1036F0002D0280912E0290912F020E9445334B01A2
:103700005C0120E030E84BEB54E40E94E83187FF95
:1037100061C080922C0290922D02A0922E02B09253
:103720002F0258C080915F038F3F11F40C94F22355
:1037300053E3A52E53E0B52E912C812CDD24D39498
:1037400080915F03082E000C990B881599050CF4E5
:10375000A2CFF50186818823F9F0818592858017B3
:10376000910739F48091890590918A058017910716
:1037700099F0D5011F96DC921F971C961C930E930F
:103780001B9751968C91811103C0C5010E9460095D
:10379000C50106960E948109BFEF8B1A9B0AE6E1DC
:1037A000AE0EB11CCDCF0132BCE51B0709F4B4C08D
:1037B0000232ECE51E0709F085CFF70182818823EC
:1037C00049F06091BA066D7F6093BA0687E090E099
:1037D0000E94E4308091BA06982F9370933009F0DC
:1037E0007CC0F7019281992309F477C098012E518A
:1037F0003C452230310508F444C19091880591116F
:103800006CC090918705911168C080FF66C060917F
:103810002C0270912D0280912E0290912F029B011B
:10382000AC010E947C314B015C010E94AA30BC01BA
:10383000990F880B990B0E94903220E03EEF4FEFDA
:1038400056E40E94ED312DEC3CEC4CE45DE30E942B
:10385000453320E030E040E85FE30E947C31A50181
:1038600094010E94453360931C0270931D02809363
:103870001E0290931F020E94AA30BC01990F880B70
:10388000990B0E94903220E03EEF4FEF56E40E94E9
:10389000ED312DEC3CEC4CE45DE30E94453320E03F
:1038A00030E040E85FE30E947C3120912C023091AF
:1038B0002D0240912E0250912F020E9445336093B9
:1038C000240270932502809326029093270263E0DE
:1038D00070E084E192E00E94C90F0B32FDE51F0702
:1038E00009F4B4C008F05EC008323DE5130709F4DE
:1038F0006CC009325DE5150709F499C00D31ACE5DE
:103900001A0709F0BEC0D70112968C91882309F4DA
:1039100056C10E94441068C0D70112968C9188232A
:1039200049F06091BA0662606093BA0687E090E061
:103930000E94E4300432BCE51B0709F04BCFD701ED
:1039400012968C91882309F445CF29E038E348E9A1
:103950005FE360912C0270912D0280912E02909174
:103960002F020E94ED314B015C0120E030E042E883
:1039700052E40E94403318160CF02CCFCACED70167
:1039800012968C91882309F425CF80E090E0ACED6D
:10399000B3E480932C0290932D02A0932E02B09357
:1039A0002F0218CF0C328DE5180709F45DC00E32D6
:1039B0009DE5190709F0A2CFF7018281882309F458
:1039C0005CC086E00E9472170FC0F70182818823D5
:1039D00059F061E083E090E00E94E43061E070E043
:1039E00080E090E00E94441680911506877009F4EB
:1039F00033C7F7018281882309F42EC782E0A3969A
:103A00000FB6F894DEBF0FBECDBFDF91CF911F91EF
:103A10000F91FF90EF90DF90CF90BF90AF909F906D
:103A20008F907F906F905F904F900C944A17D701C2
:103A300012968C918823C1F262E083E090E00E94AC
:103A4000E43062E070E080E090E0CCCFF70182816A
:103A5000882321F083E00E94721703C083E00E9454
:103A600027170E940B17C0CFD70112968C9188237D
:103A700011F084E0F0CF84E0F2CF86E00E942717B7
:103A8000B3CF0E31BCE51B0741F4F70182818823D7
:103A900009F495C00E946310A7CF0F31FCE51F0702
:103AA00059F4D70112968C91882309F488C080912B
:103AB000BA0680FDEFCF2DCFC8018A529C450297F0
:103AC00070F4F7018281882309F479C010926F05A0
:103AD00064E070E080E392E00E94C90F85CF063277
:103AE000FCE51F0749F4D70112968C91882309F44D
:103AF00066C00E943B1078CF0732BCE51B0741F43B
:103B0000F7018281882309F45AC00E9459106CCFB2
:103B10000832FCE51F0759F480918805D7011296F9
:103B20009C91992309F44BC08111EFCFE2CF0C3265
:103B3000BCE51B0741F4F7018281882309F43FC0EB
:103B40000E94321051CF0D32FCE51F0761F4D701FE
:103B500012968C91882399F11092870568E070E0A5
:103B600080E592E0B9CF0E32BCE51B0749F4F701BE
:103B70008281882321F1809187058111EDCFE0CFEB
:103B80000932FCE51F07D9F4D70112968C918823DE
:103B9000B1F00E9453102091300330E02F5F3F4F6F
:103BA000237033272093300348E2429FC001439F94
:103BB000900D112465E070E080579D4F8DCF2091CE
:103BC000880521112AC080918705811126C0C8016E
:103BD00097558F3F910509F008F4BCC0033FFCE501
:103BE0001F0709F46FC108F057C1083D3CE51307F2
:103BF00009F462C1093D5CE5150709F475C1073D8B
:103C00008CE5180709F0EDC006E221EE41EE67ED04
:103C10007CE5C7010E94010EE7CEF7013281332314
:103C200009F44AC0003E110561F40E94531081E07E
:103C30008093860510928505109284051092830565
:103C4000D3CE023E110571F40E9453108091860577
:103C5000882319F081E080938505109286051092E3
:103C60008405C2CE033E110591F480918505882319
:103C700019F10E9453101092860581E0809384050B
:103C8000109282051092810510928005ADCE809130
:103C90003103909132030A970235110541F0013545
:103CA000110551F480913103909132030A9690935B
:103CB00032038093310398CED70111968C911197DE
:103CC0004C91BBE08B9FC00111248E5D9B4F840FF4
:103CD000911DFC0180819091300347E3D42E9923FC
:103CE000C1F093E2E3EEF3E0DE01119601900D9254
:103CF0009A95E1F74CE0642F0E942430849F802D38
:103D00001124895CE1E0F0E0EC0FFD1FE90FF11DEB
:103D1000D080D80E3323C1F0222319F08D2D0E94BC
:103D2000751880918605882351F080918305E82FCE
:103D3000F0E0E059FA4FD0828F5F809383050F3F08
:103D4000110508F044CF50CE2223C9F38D2D0E94D7
:103D50000819F5CF20915F03022E000C330B2817B2
:103D6000390714F480935F03D70112962C911297B0
:103D700036E1389F4001399F900C1124F401ED5C2D
:103D8000FC4F5F01208B12969C918681992309F448
:103D900076C0128701878F5F86830E948307D501D3
:103DA0001E969C938E931D978091190617968C935F
:103DB00017978091170690911806892B18968C9367
:103DC0001897ED91FC911197309739F054966D91B9
:103DD0007C91C401875C9C4F099510938A050093E0
:103DE0008905F7019281992309F409C510928B0581
:103DF0000230FCE51F0708F418C506312CE5120750
:103E000038F098012A5F3C452930310508F00DC58E
:103E10000E94830D909339068093380600313CE56B
:103E2000130709F422C108F09CC008308CE518077C
:103E300009F4FDC008F071C00430ACE51A0709F4BC
:103E4000EEC008F057C00230ECE51E0709F4E1C0EF
:103E500080913806826003301C4509F4DDC0609112
:103E600038061091390684E090E00E94E430612F1A
:103E700081E290E00E94E4300E947D10B5CD88235D
:103E800009F4AFCF8189882309F4ABCFC401875CE3
:103E90009C4F0E948109A5CF053F9CE51907F1F0D1
:103EA000B8F0063FBCE51B0709F09BCF07E225EE03
:103EB00046EE66EF7CE5ADCE07E225EE45EE68ED19
:103EC0007CE5A7CE06E221EE40EE63EF7CE5A1CED5
:103ED00007E225EE44EE64EF7CE59BCE06E221EEA0
:103EE00042EE65EF7CE595CE08E221E045EE69ED16
:103EF0007CE58FCE80913806806106302CE5120774
:103F000009F48AC080913806886007301C4508F49F
:103F100083C08091380680627FC00C305CE5150755
:103F200009F49BC058F40A309CE5190709F489C0CC
:103F300008F481C0809138068E7F6EC0809138066B
:103F4000877F0E30BCE51B0709F466C080913806F8
:103F50008B7F0F301C4508F45FC0809138068F7E40
:103F60005BC00B3FFCE51F0709F45DC030F5033172
:103F70003CE5130709F481C078F401318CE518079A
:103F800009F477C002311C4509F069CF0E947D1009
:103F9000809138068F7740C00531ACE51A0709F4E7
:103FA00080C008F49CC08091390681600A3F1C459E
:103FB00009F055CF8093390652CF0F3FFCE51F071C
:103FC00009F465C0A8F40D3F3CE5130709F449C0A6
:103FD000809139068E7F0E3F1C4560F38091390633
:103FE00083608093390664E070E080E893E032C03B
:103FF00001308DE5180709F47BC008F462C060E069
:1040000002301D4509F02BCF8EE090E00E94E43095
:1040100026CF8091380681608093380620CF80912A
:1040200038068460F9CF809139068260C3CF8091D1
:1040300038068064F1CF0E947D1080913806806838
:10404000EBCF809138068C608093380664E070E096
:1040500080EA93E00E94C90F02CF809138068D7FDD
:10406000DBCF809139068D7FA5CF809138068F7D7B
:10407000D3CF809138068F7BCFCF80913806837F56
:104080008093380662E070E080E793E0E3CF8091B0
:1040900039068C7F8093390662E070E080E693E019
:1040A000D9CF8091380682FB992790F921E0922799
:1040B00090FB82F990FB83F98093380683FFE2CF6F
:1040C000C5CF80913906982F909591708E7F892B5E
:1040D00090FB81F98093390681FFDECF84CF0E9467
:1040E0007D1090913806892F97FB87F9805894CFDF
:1040F00061E08ACF85E38CC3992309F486C080915F
:1041000018068272F801E25CFC45E431F10508F022
:1041100073C0EF5AFA4C0C94583080915C0680FFC3
:104120001BC08E7F80935C0660915C0670915D067B
:1041300080915E0690915F060E946F0E109262065B
:10414000EFEFF0E722E0E150F0402040E1F700C05F
:1041500000000E944D1348CC816080935C0661E0B2
:1041600086950E94DE1540CC41ED57E16AED77E17E
:104170000E94CB0939CC4AED57E161ED77E1F8CFE8
:104180004CEC55E165ED75E1F3CF45ED55E16CEC97
:1041900075E1EECF44EB55E160EC75E1E9CF40EC21
:1041A00055E164EB75E1E4CF4CE955E168EA75E16E
:1041B000DFCF48EA55E16CE975E1DACF41E85EE02E
:1041C00062E97EE0D5CF42E95EE061E87EE0D0CFF3
:1041D00061E081E0C6CF65E082E00E94E41704CC94
:1041E00068E086E0FACF6EE089E0F7CF61E18FE02A
:1041F000F4CF6BE182E1F1CF01153CE5130709F43F
:1042000047C00E3D1C4509F483C0D7010D911C9198
:10421000992309F480C0C8010E944A0CD82E682F47
:10422000C8010E940B08B8018D2D0E94BF0A8C01A5
:10423000882EF701A580A2943FE0A322D280D1105E
:1042400010921706809115068770A1F0DD2089F085
:10425000812F807F803421F080E2800F883050F001
:1042600082E00E944A17809115068770CC24C3947F
:104270008111C12CB12EB2942FE0B222FBE0FB15CC
:1042800008F480C0EB2DF0E0EB59FA4C0C94583058
:104290000E947D100E9453100E9483078C0163E0EE
:1042A00070E080EC93E00E94C90FC8010E9474077F
:1042B0008A3F910530F10E94880F81E08093E000F1
:1042C00080E28093D8001092C900AFE1BEE411975C
:1042D000F1F700C0000087E090EBDC018093BC06A2
:1042E0009093BD06A093BE06B093BF0688E19CE004
:1042F0000FB6F894A895809360000FBE909360006D
:10430000FFCF8FE99FE00197F1F700C00000CDCF0C
:104310000E94B30E69CBC8010E94E307D82E83CF59
:10432000212F2F70A22E107F19F0A29490EFA922B6
:10433000DD20C9F0AA2069F080E2800F883010F0FB
:1043400081100BC080911806A82AA09218060E941E
:10435000B607802F0E94FF0815C080911706A82A73
:10436000A0921706F4CF802F0E94CC08AA2051F00B
:10437000005E083010F081104BC08A2D0E94AF07FC
:104380000E94B607AB2DA850BB0B149720F40E94D7
:1043900054090E948816CC20A9F08091150680FD52
:1043A00011C0F70112828595859585950E94721737
:1043B000C7010E94141B80911506859585958595EA
:1043C0000E94271720E0D7014C9111965C9111971C
:1043D00012966C91129713967C91139714968C9168
:1043E000A3960FB6F894DEBF0FBECDBFDF91CF917D
:1043F0001F910F91FF90EF90DF90CF90BF90AF9003
:104400009F908F907F906F905F904F900C94BA0C1C
:10441000A09480911706A822A0921706B1CF312F41
:104420003F70932E107F103219F0929480EF9822F3
:10443000882089F051E0851679F1DD20D1F1AA209C
:1044400089F1D70115968C91159780FF82CF8F70D7
:1044500015968C9327C0DD2091F090911906892D37
:10446000892BA11003C00E9488088CCFA1E0AA125A
:10447000FACF981709F486CF8093190683CFA1103D
:1044800006C00E94A907892D0E9481087BCFB1E058
:10449000AB1609F477CFF5CFDD2031F0E2E0EA1575
:1044A00008F470CF892DDFCFF1E0FA1508F46ACF58
:1044B000EACFAA2041F3B9E38B1209C0EFEFF7EE80
:1044C00023E0E150F0402040E1F700C00000802FE1
:1044D0000E94CC0857CF812F86958695837061F016
:1044E000813009F04FCFC8019370D11002C090E025
:1044F00080E00E94920846CFC8019370D11002C09C
:1045000090E080E00E94A8083DCF812F837009F0E1
:1045100066C0D11037CF802F829586958770880F1F
:10452000880F602F6F70462E512C712C612C082E35
:1045300004C0440C551C661C771C0A94D2F740E05A
:1045400050E0BA0104FF0FC04FE050E060E070E0BF
:1045500004C0440F551F661F771F8A95D2F74095F8
:10456000509560957095812F8695869583708230E1
:1045700019F1D8F400911A0610911B0620911C061F
:1045800030911D06813069F0442955296629772923
:10459000CB01BA0160237123822393230E94441626
:1045A000F1CE402A512A622A732ACB01BA0164292A
:1045B000752986299729F2CF442955296629772913
:1045C00000911A0610911B0620911C0630911D06C1
:1045D000CB01BA016027712782279327DFCF869509
:1045E000DD2011F0812F8170882309F4CBCE802F3C
:1045F000829586958770880F880F602F6F70462E82
:10460000512C712C612C082E04C0440C551C661CC6
:10461000771C0A94D2F740E050E0BA0104FF0FC0C3
:104620004FE050E060E070E004C0440F551F661F8B
:10463000771F8A95D2F74095509560957095812F98
:10464000869586958370823019F1D8F400919F0683
:104650001091A0062091A1063091A206813069F048
:104660004429552966297729CB01BA016023712392
:10467000822393230E94FF1685CE402A512A622A64
:10468000732ACB01BA016429752986299729F2CFAB
:10469000442955296629772900919F061091A00683
:1046A0002091A1063091A206CB01BA0160277127A3
:1046B00082279327DFCF1F70DD2029F0812F0E94F2
:1046C0007217802FD0CE802F0E948108812F0E94E8
:1046D000271758CE802F32EF831609F450C03815B3
:1046E00078F050EF851619F191EF891609F43FC063
:1046F000DD2009F467C0A1102CCE812F8F713CC042
:10470000A3EF8A1609F440C0B4EF8B12F1CFDD207D
:1047100009F44DC01F71812F0E94721728E0129F6B
:10472000C0011124836080931506812F25C0DD20F0
:10473000C9F0E1E0EA1508F425CE1F7161E070E0F0
:1047400080E090E004C0660F771F881F991F1A95BC
:10475000D2F700919F061091A0062091A1063091FA
:10476000A206A4CFF2E0FA1508F40CCEE6CF812F12
:104770008F71DD2009F4ABCF0E94721703CE812F19
:104780008F71DD20C9F3A3CF60E070E0CB01DD20A5
:1047900009F470CF1F7161E070E080E090E004C028
:1047A000660F771F881F991F1A95D2F763CF81E094
:1047B0000E944A1731E03A1508F0E4CD82E00E94E9
:1047C0004A17E0CDAA2059F0893309F080CE5FEF77
:1047D00087EE93E0515080409040E1F776CE812FF4
:1047E0008F7175CF00322CE5120711F40C94561B13
:1047F00001325CE5150709F494C80C94D81B063106
:104800001C4509F002CD80918C05811173CC89E2A1
:10481000E2EFF4E09191891303C0DF0111971C923C
:10482000B4E0E83FFB07B1F714C006318CE5180788
:1048300009F062CC809118068A7A91E009F490E040
:1048400090938C0569E2811165E380EF94E00E940A
:104850008F070E94B607C8C8A3960FB6F894DEBFAC
:104860000FBECDBFDF91CF911F910F91FF90EF90C1
:10487000DF90CF90BF90AF909F908F907F906F9080
:104880005F904F900895BF92CF92DF92EF92FF9288
:104890000F931F93CF93DF9380919205807F61F4F4
:1048A00080918F05882341F0C091C40586E0B82E21
:1048B000809193058C130AC0DF91CF911F910F91C6
:1048C000FF90EF90DF90CF90BF900895F0908D050E
:1048D000E0908E05C0909005D0909105A6016E2DB8
:1048E0008F2D0E945708D0E081113EC0BC9E8001F0
:1048F000BD9E100D1124F801EC56FA4F51815E1146
:1049000033C040814F1130C0828181112DC0E380BE
:10491000F480EC18FD0820E060918F0570919005FF
:10492000809191050E94BA0C88ECE816F104E0F43D
:10493000809192058F70806180939205F801E7560F
:10494000FA4F80818F70806180838DE895E00E94AE
:10495000141BDF91CF911F910F91FF90EF90DF908B
:10496000CF90BF900C9462082196C770A1CF5F9240
:104970006F927F928F929F92AF92BF92CF92DF926F
:10498000EF92FF920F931F93CF93DF93CDB7DEB7D4
:1049900061970FB6F894DEBF0FBECDBF8C0185E0E6
:1049A000F801DE011D9601900D928A95E1F7F8015C
:1049B0007080E18062808DE8A82E85E0B82E80901E
:1049C000900590909105A40160918E0580918D05D0
:1049D0000E945708811180C1F801C380D480F090F3
:1049E0008F05C601881999094C0120E040918D0579
:1049F00050918E05FF2009F429C16F2D709190050B
:104A0000809191050E94BA0C5090920598EC8916FD
:104A1000910408F0D3C04091900550919105B09059
:104A20008D05A0908E05852D807F6A2D09F080C0B0
:104A30008B2D0E945708F62C81112AC0EA1028C03D
:104A40007B1026C0611024C0852D8F7080618093FB
:104A500092058DE895E00E94141B80919205F80163
:104A600085838F2D61960FB6F894DEBF0FBECDBF44
:104A7000DF91CF911F910F91FF90EF90DF90CF903A
:104A8000BF90AF909F908F907F906F905F900895B0
:104A900020E040918D0550918E0560918F057091B9
:104AA0009005809191050E94BA0CA6016E2D872D6C
:104AB0000E945708811124C081E08625F82FF170EB
:104AC000CF2E80FF2BC0462D6E2D872D0E943708DC
:104AD000D82E811123C07D86EE868D859E850E940D
:104AE0008C0C292F22952F70223060F0243088F40E
:104AF0009F7061F0F8019581907F41F4FD2CB1CF5A
:104B000080E0DCCF9F7011F08823C1F3805E883095
:104B1000A8F3C8010E94141BDC2CF0CF662009F416
:104B2000A0CF80919205816080939205F12C99CF5E
:104B30008B2D0E945708811114C0EA1012C07B10FF
:104B400010C061100EC0F8015582C8010E94141BEC
:104B500086E0F801ADE8B5E001900D928A95E1F7A5
:104B600080CF7D86EE868D859E850E94960C88235B
:104B700009F16620F9F080919205803270F0209161
:104B80008D0530918E0538872F831986DB86CA867E
:104B90008C87CE0107960E94141B86E0F801ADE8D1
:104BA000B5E001900D928A95E1F70E944324FF241D
:104BB000F39457CFC8010E94141BF9CF852D807F35
:104BC00051F48DE895E00E94141B86E0F5011192E6
:104BD0008A95E9F7ABCF90908D0580908E05409136
:104BE000900550919105682D892D0E9457088111DB
:104BF00011C0E8100FC079100DC061100BC0F80192
:104C00005582C8010E94141B86E0F50111928A9515
:104C1000E9F727CF7D86EE868D859E850E94960CCE
:104C2000882341F2662031F280919205803208F4A7
:104C3000B4CF20918D0530918E053A8329831B8254
:104C4000DD82CC828E83CE010196A5CF60E070918B
:104C50009005809191050E94BA0CF8EC8F16910492
:104C600098F6F62C662009F4A5CFD0908D05C0905B
:104C70008E0540919005509191056C2D8D2D0E94CF
:104C80005708811118C0EC1016C07D1014C0809117
:104C9000920580FD5DCF982F907F09F459CFF801E0
:104CA0008583903F09F451CF982F907F905F8F704C
:104CB000892B85834ACF7D86EE868D859E850E94D1
:104CC000960C81116ACF8091920581608093920544
:104CD000C8010E94141BC5CE662009F46BCF7D86E7
:104CE000EE868D859E850E94960CF82E882309F409
:104CF00061CF86E0F801ADE8B5E001900D928A95AC
:104D0000E1F780918D0590918E050E948C0C0E9498
:104D10004324A7CE1F93CF93DF93CDB7DEB767971A
:104D20000FB6F894DEBF0FBECDBF4B8B5C8B6D8B87
:104D30007E8B8F8B1A8A198A85E0FE017396DE01BD
:104D40001D9601900D928A95E1F786E0FE013D9651
:104D5000DE01179601900D928A95E1F7CE01079634
:104D60000E94B724811111C086E0FE013796DE0152
:104D7000119601900D928A95E1F74A855B856885C9
:104D80008F810E945708882389F016E08091C4051E
:104D900090919305891337C067960FB6F894DEBFDC
:104DA0000FBECDBFDF91CF911F9108952091930544
:104DB00030E0C9010196877099274091C4054817D2
:104DC000190699F096E0929FD001939FB00D11249F
:104DD000AC56BA4FFE01319601900D929A95E1F7CB
:104DE000809393050E946208D0CF0E947D1010929C
:104DF00093051092C40586E0EDE8F5E0DF011D9211
:104E00008A95E9F7C2CF819FC00111248C569A4F31
:104E10000E94B724882309F4BFCF8091C40590E095
:104E20000196877099278093C405B0CF1F920F9287
:104E30000FB60F9211242F933F934F935F936F936D
:104E40007F938F939F93AF93BF93CF93DF93EF9312
:104E5000FF93D091E900DF708091EC00C82FC17002
:104E600080FDC0E81092E9008091F000877F809378
:104E7000F00078940E9488101092E9008091F00070
:104E800088608093F000CD2BCF70C093E900FF9134
:104E9000EF91DF91CF91BF91AF919F918F917F91D2
:104EA0006F915F914F913F912F910F900FBE0F9097
:104EB0001F9018951F920F920FB60F9211242F93E7
:104EC0003F934F935F936F937F938F939F93AF9392
:104ED000BF93EF93FF938091E10082FF09C080911F
:104EE000E20082FF05C08091E1008B7F8093E100AA
:104EF0008091DA0080FF24C08091D80080FF20C01C
:104F00008091DA008E7F8093DA008091D90080FF53
:104F1000A1C080E189BD82E189BD09B400FEFDCF59
:104F200081E08093950680918806811109C00E94D6
:104F3000E5050E94B0068091E20084608093E20063
:104F40008091E10080FF17C08091E20080FF13C0D4
:104F50008091E2008E7F8093E2008091E200806188
:104F60008093E2008091D80080628093D80019BCC1
:104F700085E0809395068091E10084FF2FC08091A9
:104F8000E20084FF2BC080E189BD82E189BD89B543
:104F9000982F917080FFFBCF8091D8008F7D8093F8
:104FA000D8008091E1008F7E8093E1008091E20043
:104FB0008F7E8093E2008091E20081608093E20026
:104FC00080919606882309F44BC084E0809395066F
:104FD0000E947D100E9454090E9488168091E10071
:104FE00083FF27C08091E20083FF23C08091E1000E
:104FF000877F8093E10082E0809395061092960669
:105000008091E1008E7F8093E1008091E2008E7FAD
:105010008093E2008091E20080618093E20042E0B0
:1050200060E080E00E947E068091F00088608093BE
:10503000F000FF91EF91BF91AF919F918F917F9180
:105040006F915F914F913F912F910F900FBE0F90F5
:105050001F90189519BC109295061092880670CF73
:105060008091E30087FD93E090939506B1CFCDB793
:10507000DEB72C970FB6F894DEBF0FBECDBF84B756
:10508000877F84BF0FB6F894A895809160008861EF
:1050900080936000109260000FBE80E890E00FB631
:1050A000F89480936100909361000FBE85B780688B
:1050B00085BF85B7806885BF0E94E5050E94B00660
:1050C0008091E20084608093E2007894809195065C
:1050D0008823A1F01091E9001F709091EC00892FB6
:1050E000817090FD80E8182B1092E9008091E80013
:1050F00083FD0E9488101F701093E90082E084BD38
:1051000093E095BD9AEF97BD80936E00ACECB4E050
:1051100047ED54E061E070E08D91E82FE295EF708B
:10512000F0E011A18F709B0101C0220F8A95EAF770
:10513000922F9095912391A382A1822B82A34A174B
:105140005B0751F7ACECB4E047ED54E061E070E090
:105150008D91E82FE295EF70F0E011A18F709B0127
:1051600001C0220F8A95EAF7922F9095912391A37F
:1051700082A1822B82A34A175B0751F7E2E2F6E095
:1051800088E396E0A0E4B6E0119211921D921D9280
:105190008E179F07C9F70E94640E811102C00E94FA
:1051A000B30E0E94160F0E94640E811102C00E946D
:1051B000B30E82E090E00E94D030809371060E948E
:1051C000830D909339068093380683E090E00E9427
:1051D000D030682F70E090E080E00E94441660912B
:1051E0009F067091A0068091A1069091A2060E9450
:1051F0008E1680913A06811133C00E94640E81118F
:1052000004C00E94B30E0E94A30E88E090E00E94AA
:10521000D83060935C0670935D0680935E06909331
:105220005F066E7F71F40E94A30E88E090E00E94FA
:10523000D83060935C0670935D0680935E06909311
:105240005F060E94D0091092620680915C0680FF82
:1052500004C060E086950E94DE1581E080933A06E6
:105260006FEE74E0ECE68E2EE6E09E2E27EE34E044
:10527000EBEEF4E041E050E01191812F82958F70C8
:1052800090E0DC019196FC9091971F70E12E6A01ED
:1052900001C0CC0C1A95EAF70C2D00950F219196C0
:1052A0000C93919792961C9192971C2992961C931D
:1052B000D901FD909D010F2D02950F7010E0D801CE
:1052C0009196BC90BF2DBF70FB2E6A0101C0CC0C23
:1052D000BA95EAF7DC2CD094DB20D8019196DC92C9
:1052E00091979296DC909297DC289296DC92DC0162
:1052F00090968C9190E002C095958795EA94E2F79C
:105300008170D80190960C9110E002C01595079518
:10531000FA94E2F790E000FD92E0892BD4018D939E
:105320004D016E177F0709F0A7CF8FE29AE09093A7
:105330003C0680933B0688ED93E090933E06809375
:105340003D0622242A9456E5452E56E0552E68E166
:10535000662E712C80919506853009F40EC10E944D
:10536000CA19E2E7F6E0A0E4B6E010E000E0702F32
:105370008D919D91219131912817390709F43EC1F2
:105380002827392760E0EE24E394F12CA70142237B
:105390005323452B09F42CC169837A839701282371
:1053A000392391E0232B09F490E09B830E9483072B
:1053B0008160782F9D838C8349815A816B818D8197
:1053C0000E948A26000F111FF801EE58F94F8081C4
:1053D0009181E826F926F182E08280916206882395
:1053E00009F441C080916106E0915C06E695E81BF6
:1053F000E0935806823009F017C1F0E0E65BF54F04
:10540000E4910E2F10E0ECEDEE2EE4E1FE2E809103
:105410005906882389F0109259060E948307980143
:1054200020953095820F931F9093570680935606D0
:1054300010925B0610925A0680915606909157067C
:105440000E9474078017910770F0E0915606F09162
:1054500057060E0F1F1F109357060093560686E53A
:1054600096E0F701099508E616E084E6E82E86E066
:10547000F82E97EEA92E94E0B92E2BEE822E24E082
:10548000922E3CE6C32E36E0D32E312CD601ED9180
:105490006D01EE0FEE0FD4012D914D01A22FA295BB
:1054A000AF70B0E090968C9190E02F7002C095950F
:1054B00087952A95E2F781709927D5014D915D0175
:1054C000A42FA295AF70B0E090962C9130E04F7071
:1054D00002C0359527954A95E2F7A90141705527F5
:1054E00020FF02C042E050E0842BE82BD601119748
:1054F000EC931C870B87EF70F0E0E952FB4F808143
:10550000F8019081890F8083843044F0D7018C9119
:105510008F5F8C9360E0832D0E94F217F8018081E9
:105520008D3F44F4D7018C9181508C9361E0832DA1
:105530000E94F2170F5F1F4FF8013197AB85BC85B2
:105540008C91837887FF03C081508C6F8F5F80833D
:105550003394BFEFEB1AFB0AE4E03E1297CF0E94B0
:10556000540990917006891709F4F4CE0E945409E9
:10557000809370060E948816EDCE80919506843047
:1055800029F110923F0680E40FB6F894A895609236
:1055900060000FBE8093600080E00E94881683B791
:1055A000817F846083BF83B7816083BF789488954F
:1055B00083B78E7F83BF0FB6F894A8958091600063
:1055C000886180936000109260000FBE8091940605
:1055D000882309F4BFCE0E94CA19E0E4F6E0819165
:1055E0009191892B09F04FC04E165F06C1F7B2CEDC
:1055F0006F5FEE0CFF1C6B3009F0C8CE0F5F1F4FC2
:105600000B30110509F0B3CE2E822F8218860E942E
:1056100083078160782F9A8789874E815F816885AB
:105620008A850E948A26D9CE863059F4F0E0E95B5B
:10563000F54FE4910E2F10E070EFE72E74E1F72E96
:10564000E6CE893061F4E695F0E0EC5BF54FE4914D
:105650000E2F10E061E8E62E64E1F62ED8CE00EDC4
:1056600017E04FE6E42E47E0F42E8F3009F0CFCE5E
:10567000F0E0EF5BF54FE4910E2F10E050E3E52EE4
:1056800054E1F52EC4CEF0E1F9BD82E189BD09B443
:1056900000FEFDCF8091D8008F7D8093D80080914F
:1056A000E00082608093E0008091E00081FDFCCF0B
:1056B00051CE78941F921FB61F9211248F939F93FF
:1056C000AF93BF9380911E0690911F06A091200674
:1056D000B09121060196A11DB11D80931E069093E5
:1056E0001F06A0932006B0932106BF91AF919F9112
:1056F0008F911F901FBE1F9018951F921FB61F926B
:1057000011248F939F93AF93BF9380913F06811194
:1057100013C080911E0690911F06A0912006B091A3
:1057200021064196A11DB11D80931E0690931F0670
:10573000A0932006B0932106BF91AF919F918F91C6
:105740001F901FBE1F90189518951F920F920FB6AD
:105750000F9211244F925F926F927F928F929F923D
:10576000AF92BF92CF92DF92EF92FF922F933F932F
:105770004F935F936F937F938F939F93AF93BF9359
:10578000EF93FF938091B906882309F4DFC1E0907D
:105790003C05F0903D051E141F040CF0D7C121E01C
:1057A000E216F10409F4F5C020E030E0A9016091AF
:1057B00038057091390580913A0590913B050E941A
:1057C000E83181110BC3F701EE0FFF1FEE0FFF1F32
:1057D000E45FFA4F80809180A280B380809126019F
:1057E000882309F4F2C2C0903405D0903505E090CA
:1057F0003605F090370520E030E0A901C701B60179
:105800000E94E831882309F4E0C2A5019401C70190
:10581000B6010E94E83187FFA1C2A501940160E0B2
:1058200070E08CED93EC0E94ED3120E030E040E43C
:1058300051E40E94ED3120E030E040E05FE30E945F
:1058400045339B01AC0160E070E080E090E40E9491
:10585000B233A50194010E9445339B01AC01C701FD
:10586000B6010E94E83187FF79C2A701960160E086
:1058700070E08CED93E40E94ED3120E030E040E4F4
:1058800051E40E94ED3120E030E040E05FE30E940F
:1058900045339B01AC0160E070E080E090E40E9441
:1058A000B2339B01AC01C701B6010E94453360933E
:1058B0003405709335058093360590933705C09075
:1058C0003405D0903505E0903605F090370580918D
:1058D0001205909113058F3F980729F00196909338
:1058E00013058093120580916F05811116C01092E7
:1058F000260180E090E0A0E0BFE380932201909336
:105900002301A0932401B093250110923805109231
:10591000390510923A0510923B0520E034E244EF3D
:1059200051E4C701B6010E94E83187FF08C0B6EF15
:10593000CB2EB8E2DB2EB4EFEB2EB1E4FB2E20E051
:1059400030E040E051E4C701B6010E9445339B01BD
:10595000AC0160E074E284E79BE40E94ED316B01EE
:105960007C010E945F3270938700609386002091D3
:105970002201309123014091240150912501C7015A
:10598000B6010E9445330E945F3270938D00609390
:105990008C00409038055090390560903A05709021
:1059A0003B05E0903C05F0903D0520E030E0A9018A
:1059B000C301B2010E94403318160CF013C282E0FA
:1059C000E816F1040CF452C0809110059091110575
:1059D000B7010E9444306C0190931105809310052B
:1059E0008090AF069090B006A090B106B090B2063D
:1059F00020E030E040E85FE3C501B4010E947C3163
:105A00006093AF067093B0068093B1069093B20690
:105A1000F601EE0FFF1FEE0FFF1FEC5EFA4FA30122
:105A2000920160817181828193810E94ED3120E039
:105A300030E040E05EE30E9445339B01AC01C501CC
:105A4000B4010E94403318168CF4C6010196B701C8
:105A50000E94443090931105809310051092AF0678
:105A60001092B0061092B1061092B206E0911005A5
:105A7000F0911105EE0FFF1FEE0FFF1FEC5EFA4FC6
:105A8000C080D180E280F38080911205909113054F
:105A90008F3F980729F00196909313058093120584
:105AA00080916F05811116C01092260180E090E070
:105AB000A0E0BFE38093220190932301A0932401EF
:105AC000B0932501109238051092390510923A05CD
:105AD00010923B0520E034E244EF51E4C701B601E7
