:100000000C9423050C946A050C946A050C946A05FB
:100010000C946A050C946A050C946A050C946A05A4
:100020000C946A050C946A050C94E11F0C949D1FB6
:100030000C94E5230C946A050C946A050C946A05EB
:100040000C946A050C946A050C946A050C946A0574
:100050000C946A050C94C1230C946A050C946A05EF
:100060000C946A050C946A050C946A050C946A0554
:100070000C946A050C946A050C946A050C946A0544
:100080000C946A050C946A050C946A050C946A0534
:100090000C946A050C946A050C946A050C946A0524
:1000A0000C946A050C946A050C946A05010100FF22
:1000B000FFFF00000000010124FFFFFF000000001F
:1000C000010180FFFFFF00000000010155FFFFFF5D
:1000D000000000000101D5FFFFFF0000000000014B
:1000E0002BFFFFFF000000000001AAFFFFFF000040
:1000F000000000010000FFFF0000000000010101FE
:1001000001010101010102020202020202020203D4
:1001100003030303030303040404040404040505A4
:100120000505050606060606070707070708080867
:1001300008090909090A0A0A0B0B0B0C0C0C0D0D16
:100140000D0E0E0E0F0F0F101011111112121313AE
:100150001414151516161717181819191A1A1B1B27
:100160001C1D1D1E1E1F2020212222232424252683
:1001700026272829292A2B2C2D2D2E2F30313232BB
:10018000333435363738393A3B3C3D3E3F404142C7
:10019000434445464748494A4C4D4E4F50515354AD
:1001A000555658595A5B5D5E5F6162646566686961
:1001B0006B6C6D6F7072737577787A7B7D7E8082E1
:1001C000838587888A8C8E8F91939596989A9C9E2A
:1001D000A0A2A3A5A7A9ABADAFB1B3B5B7BABCBE3A
:1001E000C0C2C4C6C9CBCDCFD1D4D6D8DBDDDFE207
:1001F000E4E7E9EBEEF0F3F5F8FAFDFFFFAA7F552F
:1002000040000000000000000000000000000000AE
:1002100000000000007E0F00D4FFFFFFC7000000B9
:100220007800000000000000002A2B2800000000D9
:100230000000000000000000000000002900000095
:10024000002C1E3420212224342627252E362D373B
:1002500038271E1F202122232425263333362E370C
:10026000381F0405060708090A0B0C0D0E0F1011A4
:1002700012131415161718191A1B1C1D2F313023B1
:100280002D350405060708090A0B0C0D0E0F101179
:1002900012131415161718191A1B1C1D2F3130357F
:1002A0004C0102E2600103E20000000000000000D7
:1002B000000000000000002D002A002E0089000030
:1002C000000000000000000000000000001300001B
:1002D000002F0030000000000000000000000000BF
:1002E000000000330028003400320000000000004D
:1002F0000000000000000000003871877252002BDF
:100300005D0000000000000000000000000000E6AA
:1003100000500051004F00000000000000000000ED
:100320000000002300240025002600270001571E9E
:10033000001F0020002100220000001C0018000CFB
:100340000012002B00000014001A0008001500170E
:100350000000000D000E000F00E000000004001679
:1003600000070009000A000B0000003600370000FB
:100370005700001D001B00060019000500110010A9
:100380000000000000A800E200E300910000002C43
:100390006200002C449000E7000000000000000014
:1003A0000000000000000000000100010001000149
:1003B000000000000000000000000000000000013C
:1003C000000000010001000000000000000000002B
:1003D0000000000000010001000100010000000019
:1003E000000000000000000000000001000100010A
:1003F00000010000000000000000000000000000FC
:100400000065000100010001000000000000000084
:1004100000000000000100010001000100010001D6
:1004200000010001000100010001000000010001C5
:1004300000010001000100000001000100010001B5
:1004400000010000000100010001000100000001A6
:100450000001000100010001000100000001000195
:100460000001000000010001000100010001000185
:10047000000100000000000100E300E2008B00002A
:10048000000100000001008A008800000000000058
:100490000000000000000000000000010001000159
:1004A000000100000000000000000000000000004B
:1004B00000570000000100010000000000000000E3
:1004C0000000000000000000000100010001000029
:1004D00000000000000000000000000000580001C3
:1004E000000100010000000000000000000000000A
:1004F00000000001000100010001000000000000F8
:1005000000000000000000010000005400540055ED
:1005100000010001000100010001000100000001D4
:10052000005F0060006100010000000100010001A7
:10053000000100010000005C005D005E00010000A1
:100540000001000100010001000100010000005A4B
:10055000005B00010000000100010001000100013A
:10056000000100590000000000010001000100012D
:10057000000000010000002C456200630000000044
:1005800000000000000000000000000000440045E2
:100590000049004C000000000000000000000000C6
:1005A0000000004A0000004D00A90000000000000B
:1005B00000000000000000000050004F000100AAF1
:1005C00000000000000000000000000000000051DA
:1005D0000001004B000100000000000000000000CE
:1005E000000000000001004A004E004D0000000025
:1005F0000000000000000000003F004000410042F9
:1006000000430048003A003B003C003D003E000033
:10061000000100010001000100460000000100018E
:10062000000100010001000000010001004B000179
:1006300000000001000100010001000100010000B4
:100640000001004E00010000000100010001000156
:1006500000010001000100000000002E5D0100010A
:100660000001000000010000002E5D0100010000FB
:100670000000000000000000000000000000004436
:1006800000450049004C0000000000000000000090
:1006900000000000004B000000010001000000000D
:1006A0000000000000000000000000010001000147
:1006B0000001000000000000000000000000000039
:1006C00000BB0001004B002E5D0000000000000098
:1006D0000000000000000001004A004E004D000034
:1006E00000000000000000000000003F004000414A
:1006F000004200430048003A003B003C003D003E01
:10070000000000010001000100010046000000019E
:100710000001000801010001000000510052004FDB
:100720000001000000040101004C004F00290050AE
:100730000000000100BC00010000000100010001F8
:1007400000010050004E00280000000000010001E0
:100750000001000100000001000000010001000193
:100760000000000000000000000000000000000089
:10077000002D002A002E008900000000000000006B
:1007800000000000000000130000002F00300000F7
:1007900000000000000000000000000000330028FE
:1007A00000340032000000000000000000000000E3
:1007B0000000003871877252002E5D0000000000BA
:1007C0000000000000000000000100010001000125
:1007D00000000000000000000000000000230024D2
:1007E0000025002600270029001E001F00200021F0
:1007F00000220000001C0018000C0012002B00005A
:100800000014001A0008001500170000000D000E6B
:10081000000F00E000000004001600070009000AB5
:10082000000B00000036003700005700001D001BC1
:100830000006001900050011001000000000000172
:1008400000010001000100000001000000010001A2
:100850000001000000000000000000000000000097
:100860000000000100010001000100000000000084
:100870000000000000000000000100000001000175
:10088000000000000000000000000000000000C3A5
:100890005C010001000100000000000000000000F9
:1008A0000000000000010001000100010000000044
:1008B0000000000000000000000000010001000135
:1008C0000001000000000000000000000000000126
:1008D0000001000100010001000100C55CC75CC906
:1008E0005C010001000000010001000100010001A5
:1008F0000000000100295D0100005C010000000112
:1009000000CD5CC25C01000000010001000100019B
:1009100000010001000000010001000100000001D1
:100920000001000100010001000253285D000000E9
:1009300000010001000100010000000100000001B1
:1009400000010001000000F200E800DE00D400CA4F
:1009500000C000B600AC000000643214050109803C
:10096000A101850319012AB700150126B7009501D9
:1009700075108100C0050C0901A101850419012A27
:10098000A002150126A002950175108100C0050185
:100990000906A101050719E029E7150025019508B9
:1009A000750181029501750881010507190029FF6C
:1009B000150026FF00950675088100050819012914
:1009C00005950575019102950175039101C0090214
:1009D0003B00020100A0FA0904000001030101002C
:1009E0000921110100012240000705810308000AC6
:1009F0000904010001030000000921110100012286
:100A000032000705820320000A12011001000000D5
:100A100008EDFE5A17300001020301040330000004
:100A2000000C034A006F006E0065007300000010A8
:100A3000036A00700073006B0065006E006E0000BA
:100A400000040309040011241FBECFEFDAE0DEBF6B
:100A5000CDBF04B603FE27C080910803909109031F
:100A6000A0910A03B0910B038730904BA740B04B85
:100A7000D1F4109208031092090310920A03109205
:100A80000B0314BE84B7877F84BF0FB6F894A89574
:100A900080916000886180936000109260000FBEBA
:100AA000E0E0F8E3099511E0A0E0B1E0E2E9F9E463
:100AB00002C005900D92A03BB107D9F723E0A0EB4F
:100AC000B1E001C01D92A830B207E1F70E94BE203C
:100AD0000C9484240C940000E8EDF0E080818E7F7B
:100AE00080831092E2001092DA001092E100A0EEF2
:100AF000B0E08C9181608C9380818F77808319BC6A
:100B0000A7EDB0E08C918E7F8C9380818F7E808367
:100B10001092ED0208952091E4003091E50095E6F1
:100B2000A9012091EC00822F817020FF06C08091E6
:100B3000E80080FF06C080E008952091E80022FDD3
:100B40001AC08091FA02882389F0853089F080915B
:100B5000EB0085FD0FC02091E4003091E5004217C5
:100B60005307F9F29150E1F684E0089582E0089588
:100B700083E0089581E00895EF92FF920F931F9311
:100B8000CF937C018B010E948B05C82F811117C068
:100B90008091E80085FD0BC08091E8008E778093FE
:100BA000E8000E948B05882399F3C82F08C0F7013D
:100BB00081917F018093F1000150110949F78C2F39
:100BC000CF911F910F91FF90EF9008958091FC02BB
:100BD00087FF13C08091E80082FF06C08091E80083
:100BE0008B778093E80004C08091FA028111F2CFE4
:100BF00008958091FA028823D9F38091E80080FF5C
:100C0000F8CF8091E8008E77ECCF982F9093E90091
:100C1000242F762F50E0891731F07091EC0020914D
:100C2000ED005091F00021FD07C09F5F973071F7F4
:100C30008093E90081E008953091EB003E7F30938E
:100C4000EB003091ED003D7F3093ED003091EB00F3
:100C500031603093EB007093EC002093ED005093E3
:100C6000F0002091EE0027FDE0CF80E00895CF92C4
:100C7000DF92EF92FF920F931F93CF93DF93C8ED14
:100C8000D0E088818F7E8883E7EDF0E0808181600D
:100C9000808384E082BF81E08093ED0288818E7F33
:100CA000888302EE10E0F80110821092DA0081EEE3
:100CB000C82ED12CF601108288818F778883888195
:100CC0008068888388818F7D888319BC1092FA029E
:100CD0001092FB021092F9021092F80290EEE92EA7
:100CE000F12CF70180818B7F8083888181608883EC
:100CF00042E060E080E00E940506F60180818E7F80
:100D00008083F80180818160808380818860808316
:100D1000F70180818E7F8083888180618883DF9165
:100D2000CF911F910F91FF90EF90DF90CF9008959A
:100D3000FC01809102039091030386179707A0F0AE
:100D40006115710529F49091E8009E779093E80071
:100D500090E06115710551F4911108C08091E8008F
:100D600082FF34C080E00895BC01F2CF8091FA0286
:100D70008823C1F18530C1F18091E80083FD30C046
:100D80008091E80082FDEACF8091E80080FFE1CF0A
:100D90008091F3002091F200382F6115710519F050
:100DA0002830310558F091E02830310509F090E005
:100DB0002091E8002E772093E800CBCF819180939B
:100DC000F100615071092F5F3F4FE7CF8091FA0228
:100DD000882341F0853041F08091E80083FFBECF49
:100DE00081E0089582E0089583E0089508950895CC
:100DF0008091EF0208959C014FB7F894809183028F
:100E000090918402A0918502B09186024FBF821B0F
:100E1000930B08952FB7F8948091830290918402E8
:100E2000A0918502B09186022FBF08959C01FC011C
:100E300032969FEF80E04191461751F09F3F19F4A1
:100E4000411101C0982F8F5F8630A9F79F3F09F4A9
:100E50000895290F311D97FD3A95F9016283089590
:100E600080917E02811110927E020895809590916A
:100E70007D02982390937D02089580917D02909148
:100E80007C02892B90917B02892B8093B0019091F9
:100E90007E02992391F0892B8093B00120E082EBB0
:100EA00091E0FC013191CF0131112F5FF1E0883BDE
:100EB0009F07B9F721110E943007E091A202F0913B
:100EC000A302309731F00280F381E02D80EB91E0B6
:100ED000099408952BE0929F800D1124982F97700C
:100EE00086958695869525E0829FF0011124E65D22
:100EF000FD4F50E040E080E0219130E0092E02C03B
:100F0000369527950A94E2F721703327042E01C005
:100F1000220F0A94EAF7822B4F5F5F4F453051054D
:100F200059F708952BE0929F800D1124982F977008
:100F300041E001C0440F9A95EAF78695869586951B
:100F400095E0899FF0011124E65DFD4F90E080E07F
:100F500070E05191DF0111979B01082E02C0369578
:100F600027950A94E2F72170219525272423252728
:100F70002C9301968530910561F70895809129029F
:100F80009091F801981301C008958F5F8770FACF90
:100F9000882341F0809590917C02892380937C0284
:100FA0000C943D070895882339F090917C02982B8A
:100FB00090937C020C943D070895882321F00E94B1
:100FC00036070C943D070895882339F090917D02EF
:100FD000982B90937D020C943D0708952091E90190
:100FE0003091EA012817390771F09093EA01809354
:100FF000E901E091A202F091A302309721F0008470
:10100000F185E02D099408952091E7013091E801E0
:101010002817390771F09093E8018093E701E09178
:10102000A202F091A302309721F00680F781E02D13
:101030000994089510927C0210927B020E943D0751
:1010400090E080E00E94040890E080E00C94EE07BD
:10105000882381F19CEF980F913A78F4E2EBF1E06C
:1010600028EB31E09191891303C0DF0111971C92A5
:101070002E173F07B9F70C943D0790E2980F983070
:1010800050F4877091E001C0990F8A95EAF7892F93
:101090000E943607F0CF9BE5980F933020F490E044
:1010A00080E00C940408885A873120F490E080E0B6
:1010B0000C94EE070895CF93C82F882309F44EC0EF
:1010C0008CEF8C0F813AF8F4E2EBF1E088EB91E0E1
:1010D000DF012D91C21759F08A179B07D1F76C2FAA
:1010E00080EB91E00E941607CF910C943D0721916F
:1010F000C21303C0DF0111971C928E179F07B9F727
:101100000E943D07ECCF80E28C0F883068F4C770F6
:1011100021E030E001C0220FCA95EAF780917D02FC
:10112000822B80937D02E0CFEBE5EC0FE33040F4BF
:10113000F0E0E55AFE4F808190E0CF910C940408D6
:10114000C85AC73158F4EC2FF0E0EE0FFF1FE25AF7
:10115000FE4F80819181CF910C94EE07CF9108953D
:10116000E091A202F091A302309721F00190F0816A
:10117000E02D099480E00895CF93DF93EC0181E0A6
:10118000898B80917D029F81892B80937D02809144
:101190007C029885892B80937C020E943D07EA811E
:1011A000FB81309739F06C897D89CE010696DF91FD
:1011B000CF910994DF91CF910895EF92FF920F9311
:1011C0001F93CF93DF93EC018A85811139C0EB80A7
:1011D000FC8087E5F81A26E12E9DC0012F9D900D19
:1011E0001124DC01AF5EBE4F1496ED91FC91159772
:1011F000309731F054966D917C91895E9E4F0995A0
:1012000086E18E9D80018F9D100D11240F5E1E4F73
:10121000F80187810E943607F8018085982F909504
:1012200080917C02892380937C020E943D07188272
:1012300019861B861E821D821092EF011092EE010C
:10124000DF91CF911F910F91FF90EF900895FA01D8
:10125000811101C0FB0109948091C102982F9E7FEA
:1012600061F4817082608093C1028091C4028D3DDF
:1012700018F08CED8093C40208958432B0F381702D
:101280008262F1CFAF92BF92DF92EF92FF920F9303
:101290001F93CF93DF93082F162FE901E42FF0E07F
:1012A000E450FF4F611110C0E4915E2F4E2F49832F
:1012B000E8835A83DF91CF911F910F91FF90EF90B8
:1012C000DF90BF90AF900895E62EF12C4491D42E7C
:1012D000E42FF0E026E0829FC00111242FEF30E0E0
:1012E000B9010E940C24802F90E0880F991F55E5CA
:1012F000569FD001579FB00D11248A1B9B0B982F2E
:10130000990F890F5901AE18BF08AE9ED001AF9E4C
:10131000B00DBE9EB00D11245B2F189F80011124CB
:10132000012F11275901A01AB10AAE9E8001AF9E6C
:10133000100DBE9E100D11245901A81AB108AE9CC3
:10134000C001AF9C900DBE9C900D1124892F992750
:10135000281B390B2E9FC0012F9F900D3E9F900D93
:101360001124E92F62307105A1F050F46115710567
:1013700009F49DCF6130710581F0EB2F512F97CF8C
:101380006430710569F080F06630710509F48FCF23
:10139000F4CFE42F4B2F592F8ACFE42F412F87CF43
:1013A000EB2F542F492F83CF4B2F5D2DE12F7FCF74
:1013B00090919D0292FF06C0282F28712830F9F4E1
:1013C000877F846093FF06C0282F28712831F1F4AD
:1013D000877E846120919E0220FF06C0382F3871DD
:1013E0003830D9F4877F816021FF06C0282F28710B
:1013F0002831D1F4877E816194FD877E0895282F5E
:1014000024712430F9F68B7F8860DCCF282F24717B
:10141000243101F78B7E8861DDCF382F3171313077
:1014200019F78E7F8860E0CF282F2171213121F7B5
:101430008E7E8861E1CFCF93DF93972F70E02BE012
:10144000929F600D711D1124FB0139E7839FE00D10
:10145000F11D1124EE0FFF1FE755FD4FC591D491EB
:10146000CE01C238D105B9F1E8F5C133D10509F48F
:1014700099C050F5C932D10509F48DC0CA32D105E1
:1014800009F497C0C11542E5D40708F0B6C0C115EC
:1014900021E5D20708F024C1C83ED10508F09DC05F
:1014A000C03ED10568F5C83AD10508F089C0C53AF3
:1014B000D10508F0EDC0C130D10511F1209709F434
:1014C00043C02497E8F440C0C533D10509F45CC09B
:1014D000C933D105B9F620919D02237089F080EEC1
:1014E00090E00EC0C33ED10591F168F4C03ED10535
:1014F000F9F0C23ED10531F620919D0222FD20C0B7
:10150000DF91CF910895C63ED10561F1C73ED10567
:1015100081F1C43ED10509F0B5CF20919E0221FF93
:10152000EFCF80919D0284FD0FC087EE90E0E8CF61
:1015300020919D0220FD01C130919E0230FFE0CF3D
:1015400083EE90E024FFDCCF90E080E0D9CF2091C3
:101550009D0222FDF5C030919E0230FDC0CF24FFD8
:10156000CFCFF2CF20919D0223FFCACF24FDECCF35
:10157000DCCF20919D0223FDE6C030919E0231FF19
:10158000EECF84EE90E0BCCF20919D0225FFB8CF36
:1015900089E290E0B5CF20919D0225FFB1CF85E390
:1015A00090E0AECF20919D0226FFAACF8AE290E084
:1015B000A7CF20919D0226FFA3CF81E390E0A0CF8B
:1015C000CF3BD10508F6C85AD0E0CC0FDD1FC25A78
:1015D000DE4F88819981946493CFC11530E5D3079C
:1015E00008F062C0C11540E4D40708F059C0DA958C
:1015F000C115DF4108F484CFA7CFC11536E5D30765
:1016000018F5C11545E5D40708F080C0C11584E57B
:10161000D80708F076C09C2F96959695AE0143703A
:101620005527C115D34508F460C021E030E002C061
:10163000220F331F4A95E2F740E2949FC001112424
:10164000822B932B9A685CCFC1153AE5D30778F4C7
:10165000C11549E5D40708F063C0C11588E5D8076E
:1016600008F472CF9C2F8827806F906A49CFCE01F3
:1016700090568115904208F067CF8D2F8F710E9490
:10168000D80990E0982F882788279F718C2B46C017
:10169000C55AD0E0C55ADE4F888190E0906430CFC3
:1016A000CE019F70906A2CCF9E01E4E0369527957D
:1016B000EA95E1F723708C2F86958695837030E24A
:1016C000839FC0011124922BC37021E030E002C03F
:1016D000220F331FCA95E2F7822B932B9C6810CF01
:1016E0009C2F8827816F906A0BCF21E030E002C0E9
:1016F000220F331F4A95E2F740E2949FC001112464
:10170000EBCF9C2F8827846F906AFACE8C2F0E9493
:10171000D80990E0982F882788279F719062F0CE93
:101720008C2F8F700E94D80934E0D695C7953A95D2
:10173000E1F7CF709C2F9069E3CE89E390E0E0CE93
:1017400082EE90E0DDCE86EE90E0DACEBF92CF92D0
:10175000DF92EF92FF920F931F93CF93DF938C0151
:10176000C0900403D0900503E0900603F0900703B7
:1017700080917F0290918002A0918102B0918202BB
:10178000C82AD92AEA2AFB2ACFE1D0E0BC2ED70109
:10179000C6010C2E04C0B695A795979587950A9417
:1017A000D2F780FD0EC0219788F7B12C8B2DDF91E9
:1017B000CF911F910F91FF90EF90DF90CF90BF904E
:1017C0000895B8018C2F0E941B0A019761F3EECF98
:1017D000CF93DF93EC010E94A60BBE01DF91CF9166
:1017E0000C941B0A0E94E80B292F2F7092959F7072
:1017F00092509E3078F4E92FF0E0EA57FB4D0C94BC
:101800002024803F19F020F4883E20F481E00895E0
:10181000843FE1F380E00895883EC0F3813FD1F733
:10182000F5CF822F8695869586950895CF93DF9381
:101830009C013A9521153F4168F5EC01CC27D17008
:10184000DC01AA27B270AC01442754709C01222706
:10185000387094FF11C080E1CD2B09F480E0AB2BF0
:1018600009F08062452B09F08064232B09F0806821
:10187000FB01DF91CF91099481E0CD2B09F480E049
:10188000AB2B09F08260452B09F08460232B81F398
:101890008860EECFDF91CF910895CF93DF93EC0175
:1018A0000E942808CE01805E9109089720F068EC1C
:1018B00077E0209711F46DED77E0CE01DF91CF91C5
:1018C0000C94160CFC018081813029F4FB0180818D
:1018D00091810C944D0C823021F4FB018281938123
:1018E000F8CF0895CF93DF93EC01805E91090897BC
:1018F00020F063ED77E0209711F464EE77E0CE01FD
:101900000E94160C8C2FDF91CF910C945B08FC0188
:101910008081813029F4FB01808191810C94720CCB
:10192000823021F4FB0182819381F8CF0895CF9317
:10193000DF93EC018881823039F4FB01828193814D
:101940000E94720C81E08B87DF91CF910895CF9335
:1019500084E090E00E943C24C82F81E290E00E9445
:101960003C24982F8C2FCF910895CF93DF9300D0F4
:101970000F92CDB7DEB79091FA02943019F58983B2
:101980007B836A8382E08093E9008FEF9091E80087
:10199000815095FD06C095ED9A95F1F700008111F3
:1019A000F5CF8091E80085FF0DC050E040E063E096
:1019B00070E0CE0101960E94BC058091E8008E7710
:1019C0008093E8000F900F900F90DF91CF910895D2
:1019D000BC0184E00C94B50CBC0183E00C94B50C04
:1019E000CF93DF93EC0181E08093E9008FEF90913A
:1019F000E800815095FD06C095ED9A95F1F700003D
:101A00008111F5CF8091E80085FF14C050E040E0DF
:101A100068E070E0CE010E94BC058091E8008E77FE
:101A20008093E80088E0FE01A0EFB2E001900D9203
:101A30008A95E1F7DF91CF910895CF93C82F0E9447
:101A40005B08C93349F42FEF87EE93E021508040C3
:101A50009040E1F700C000008C2FCF910C94280833
:101A60000F931F93CF93DF93C42FD22FFC0182815A
:101A70008823A1F04093F0010E940A079093E601A9
:101A80008093E501C77081E001C0880FCA95EAF72D
:101A9000DF91CF911F910F910C94E4071091F00109
:101AA000141335C08091E5019091E6010E94FB0678
:101AB000883C910560F5C0E2CD0F1D17B9F080E2BA
:101AC000810F883040F4177081E001C0880F1A95AB
:101AD000EAF70E94DD07C83048F481E09D2F977037
:101AE00001C0880F9A95EAF70E94E407802F0E94B0
:101AF0001D0DC83098F4D77081E001C0880FDA95C9
:101B0000EAF7DF91CF911F910F910C94DD07C77019
:101B100081E001C0880FCA95EAF7F3CFDF91CF913A
:101B20001F910F9108952F923F924F925F926F9263
:101B30007F928F929F92AF92BF92CF92DF92EF925D
:101B4000FF920F931F93CF93DF9307E812E02CE8E7
:101B5000A22E21E0B22EB801212C312CCC24C3942A
:101B6000D12CDB016D907D90BD011E921E92E5018E
:101B700089915E01E82FE295EF70F0E091A18F70FE
:101B8000460101C0880C8A95EAF7892F882981A32C
:101B900082A1582C5094852182A3D0EADA95F1F7DE
:101BA00090E080E0281621F19C0124573E4FE90186
:101BB0004880242D22952F7030E0E901E8A04D9156
:101BC0005C9111979601082E02C0220F331F0A94D0
:101BD000E2F7F12CD42DDF7002C0F594E794DA958A
:101BE000E2F7E0FC3EC0242B352B11963C932E935C
:101BF00001968B309105B1F681A1582251A282A1A4
:101C0000882A82A281E02D913C912615370509F49E
:101C100080E0382A2394EBE02E12A3CF332031F159
:101C200081E08093BA010E940A079093B9018093E2
:101C3000B8018091B8019091B9010E94FB06069706
:101C4000C8F0E5EAF2E08DE992E0D8012D913D91EE
:101C50008D01219331938A179B07B9F71092BA012E
:101C600009C02095309524233523BFCF8091BA0138
:101C70008111DFCF80913D018F3F09F053C0832D4B
:101C8000DF91CF911F910F91FF90EF90DF90CF9058
:101C9000BF90AF909F908F907F906F905F904F908C
:101CA0003F902F900895F29EF001F39EF00D1124C5
:101CB000EF5EFE4FC288D388C114D10419F498ECAA
:101CC000C92ED12CF29E8001F39E100D11240F5EBF
:101CD0001E4FF80186818823C9F0858596850E946C
:101CE000FB06C816D90690F4DF9D60011124D801C7
:101CF00051968C91811105C0C6018F5E9E4F0E9446
:101D0000BC08C601895E9E4F0E94DD08DF5F2D2F53
:101D100030E080913D01082E000C990B821793074B
:101D200014F6ADCFD0E086E1F82EF1CFCF92DF925E
:101D3000EF92FF926B017C010E942C09B701A60172
:101D400088E090E0FF90EF90DF90CF900C946224B9
:101D50008091C502882319F081508093C50260915B
:101D6000C1027091C2028091C3029091C4020C948E
:101D7000960E8091C502833018F48F5F8093C50260
:101D80006091C1027091C2028091C3029091C4021D
:101D90000C94960EE1ECF2E083E0808311828FEFE9
:101DA00082838CED8383148260817181828193812F
:101DB0000C94960E6CEE7EEF90E080E00E946E2414
:101DC00060E082E090E00E94502460E083E090E0D8
:101DD0000E94502410927F02109280021092810281
:101DE0001092820260E084E090E00E94502460E063
:101DF00081E290E00E94502460E085E090E00E9443
:101E0000502460E086E090E00E9450246FEF87E06D
:101E100090E00E94502440E050E0BA0188E090E059
:101E20000E94622460E08DE090E00E94502440E037
:101E300050E0BA0188E190E00E94622460E087E10E
:101E400090E00E94502440E050E0BA018CE190E024
:101E50000E94622460E080E290E00E94502440E012
:101E600050E0BA018FE090E00E94622440E050E030
:101E7000BA0183E190E00C94622410927D02E2EBBF
:101E8000F1E086E0DF011D928A95E9F70C941A08CB
:101E90001F93CF93DF93CDB7DEB7AA970FB6F89411
:101EA000DEBF0FBECDBF8CEF92E02091F100FC01B0
:101EB0002193CF01F3E084309F07B9F78091FD02B1
:101EC000833009F46FC0B8F4813009F446C0823021
:101ED00009F4B0C08091E80083FF87C28091FC02C2
:101EE0009091FD029A3008F080C2E92FF0E0EC56A4
:101EF000FB4D0C9420248A3009F48BC08B3009F4FC
:101F00006EC0893039F78091FC02813219F78091D7
:101F10000003909101030297E8F68091E800877F23
:101F20008093E8008091E80082FF37C09091F30031
:101F30008091F200029729F48091F1008B7F81302B
:101F400021F48091F1008093EF028091E8008B777B
:101F50008093E8000E94E605BDCF8091FC02813AA3
:101F600009F0B8CF8091E800877F8093E8008091E6
:101F7000000390910103892B61F468E080EF92E007
:101F800070E00E9498068091E8008B778093E800CB
:101F9000A1CF60E090E080E0F3CF8091FA02811160
:101FA000C1CF98CF8091FC02813A09F093CF809104
:101FB000000390910103892B09F08CCF8091E800F8
:101FC000877F8093E8008091E80080FFFCCF8091BC
:101FD00048018093F1008091E8008E77B9CF80911D
:101FE000FC02813209F076CF8091000390910103C9
:101FF000892B09F06FCF8091E800877F8093E800FC
:102000000E94E6058091FE02809348010E943D0FE8
:1020100061CF8091FC02813209F05CCF8091E800B1
:10202000877F8093E8000E94E6058091FF028093FD
:10203000EE0250CF8091FC02813A09F04BCF8091A3
:10204000E800877F8093E8008091E80080FFFCCF64
:102050008091EE02BECF803899F0823809F0C5C178
:10206000809100038F70873008F0BFC18093E90032
:102070008091EB0085FB882780F91092E90006C06B
:102080008091F8029091F902911182609091E8009C
:10209000977F9093E8008093F1001092F100809177
:1020A000E8008E779EC1882309F48CC1823009F044
:1020B0009CC18091FE0281118FC1809100038F70BD
:1020C0002FEF280F263008F090C18093E90020916F
:1020D000EB0020FF81C1933031F48091EB008062EE
:1020E0008093EB0079C19091EB0090619093EB00AD
:1020F00021E030E001C0220F8A95EAF72093EA0040
:102100001092EA008091EB008860EACF81116DC1E6
:102110001091FE021F778091E3008078812B8093DD
:10212000E3008091E800877F8093E8000E94E60545
:102130008091E80080FFFCCF8091E300806880936D
:10214000E30082E0111183E08093FA024EC18058CF
:10215000823008F04AC18091FE029091FF028C3DCE
:1021600023E09207A1F583E08A838AE289834FB74F
:10217000F894DE01139620E03EE051E2E32FF0E018
:1021800050935700E49120FF03C0E295EF703F5F4A
:10219000EF708E2F90E0EA30C0F0C7968D939D933C
:1021A0002F5F243159F74FBF8091E800877F8093DC
:1021B000E8006AE270E0CE0101960E9498068091E4
:1021C000E8008B778093E80010C1C096E7CF40917C
:1021D000000350910103292F33272330310509F4DF
:1021E00045C078F52130310509F47BC08BE390E0E0
:1021F000EEECF9E02230310509F0F7C02091E8005B
:10220000277F2093E8002091020330910303821777
:10221000930708F49C0140E02115310509F070C0D6
:1022200041116EC08091E80082FDC9CF8091FA0211
:10223000882329F2853019F28091E80083FFF2CFDC
:10224000BECF2132310509F440C02232310509F0F8
:10225000CCC04115510509F44EC04130510509F07B
:10226000C4C082E390E0ECE5F9E0C8CF9927813063
:102270009105D9F0009771F082309105F1F0039744
:1022800009F0B3C0EBE1FAE0E4918E2F90E0EBE1CE
:10229000FAE007C0E1E4FAE0E4918E2F90E0E1E497
:1022A000FAE0009709F4A1C0A9CFEFE2FAE0E491C7
:1022B0008E2F90E0EFE2FAE0F4CFE1E2FAE0E49171
:1022C0008E2F90E0E1E2FAE0ECCF4115510571F07C
:1022D0004130510509F089C089E090E0E9EFF9E06B
:1022E0008DCF82E190E0E9E0FAE088CF89E090E0EC
:1022F000E0EEF9E083CF80E490E0EEE8F9E07ECF15
:102300008091FA02882309F45ACF853009F457CF17
:102310008091E80083FD53CF8091E80082FD82CF59
:102320008091E80080FF78CF9091F3008091F200D7
:102330002115310519F08830910550F041E00897DA
:1023400009F040E08091E8008E778093E80064CF48
:1023500044914093F1003196215031090196E8CF24
:10236000803809F042C08091E800877F8093E800C0
:102370008091FB028093F10092CE811136C01091C2
:10238000FE02123090F58091E800877F8093E8008C
:102390001093FB020E94E605112311F084E005C0B2
:1023A0008091E30087FDFACF81E08093FA0242E05A
:1023B00061EC81E00E94050642E261EC82E00E944D
:1023C000050613C08091FE02813079F481E09330DC
:1023D00009F080E08093F9021092E9008091E80012
:1023E000877F8093E8000E94E6058091E80083FFE4
:1023F0000AC08091E800877F8093E8008091EB001D
:1024000080628093EB00AA960FB6F894DEBF0FBEF1
:10241000CDBFDF91CF911F9108955F926F927F9210
:102420008F929F92AF92BF92CF92DF92EF92FF92E4
:102430000F931F93CF93DF9300D000D00F92CDB7AF
:10244000DEB78091C10280FD0AC0EBEBF1E01182A2
:1024500010821282339621E0E53EF207C1F78090A8
:10246000A0029090A1028114910409F458C0D12CCB
:10247000C12C66246394712C53E0552E8091C802C0
:1024800093010C2C01C0220F0A94EAF7822309F46D
:102490003EC0F601EE0FFF1FE80DF91DE590F49028
:1024A000E114F104E1F145E050E0B701CE010196FD
:1024B0000E94262409810F3F51F18A81800F9927BC
:1024C000991F8F30910514F08EE090E05C01AA0C0A
:1024D000BB1C8A0D9B1DFC01E554FE4F5F01059D51
:1024E0008001112405541E4F0A151B0520F0F5E04C
:1024F000EF0EF11CD8CF4D814D3D08F04CED980109
:102500006C818B810E9442090D5F1F4FEDCF2FEF31
:10251000C21AD20A38E0C316D10409F0AFCF279A05
:1025200035B13F7725B120684FB7F8948BEB91E038
:10253000FC015191CF0168E025B9000000C057FFB0
:1025400035B9550F000000C000C000C035B900C04B
:102550006A9591F7F1E0853E9F0751F74FBF8FE5F0
:1025600094E00197F1F700C000000F900F900F90DA
:102570000F900F90DF91CF911F910F91FF90EF90EF
:10258000DF90CF90BF90AF909F908F907F906F9093
:102590005F900895EF92FF921F93CF93DF93EC012A
:1025A0008BEBE82E81E0F82E10E04091C4024D3D07
:1025B00008F04CED8C8197016091C302810F0E945D
:1025C00042091E5E83E0E80EF11C1C3F71F70E9479
:1025D0000D129A818C8190FF08C08F5F8C83DF91F0
:1025E000CF911F91FF90EF9008958150F7CF5F92A8
:1025F0006F927F928F929F92AF92BF92CF92DF9213
:10260000EF92FF920F931F93CF93DF9300D00F921F
:10261000CDB7DEB7082F762E142F622E8091C1021F
:1026200080FF40C0E82FE695AE2FB0E0A75BBE4F1D
:102630009C919093C6028E7F8230F1F44D3D08F05C
:102640004CED9E012F5F3F4F672D802F0E94420966
:102650008091C10280FF14C08B8199812A81EBEBAC
:10266000F1E0218390838283339631E0E53EF307E6
:10267000C1F70E940D1204C0923039F50091C202D8
:102680000093C2027092C3021093C402662051F0FC
:102690006091C1027091C2028091C3029091C40204
:1026A0000E94960E0F900F900F90DF91CF911F9187
:1026B0000F91FF90EF90DF90CF90BF90AF909F90E1
:1026C0008F907F906F905F9008959830C9F6E85092
:1026D0008E2F8170582EE695F0E0E450FE4FA590C5
:1026E000B490BB248BEBE82E81E0F82ED12CC12CCA
:1026F0009EE0892E912CC601B4010E940C24802FEB
:10270000511014C0860F412F1D3D08F04CED97016C
:10271000672D0E944209CA0CDB1C33E0E30EF11C5A
:1027200085EEE81681E0F80631F7A3CF861BEBCFE4
:10273000E1ECF2E0438128E0421B08F440E021E0B4
:10274000628181810C94F712E1ECF2E0438128E090
:10275000420F08F44FEF21E0628181810C94F7125F
:10276000E1ECF2E0628128E0621B08F460E021E025
:10277000438181810C94F712E1ECF2E0628128E060
:10278000620F08F46FEF21E0438181810C94F7120E
:10279000E1ECF2E0818121E04381628188500C9478
:1027A000F712E1ECF2E0818121E043816281885FF0
:1027B0000C94F7129091C10290FF3DC0917081116D
:1027C00029C092609093C102662351F06091C102CA
:1027D0007091C2028091C3029091C4020E94960E31
:1027E0006091C102669570E04BE050E086E091E0B8
:1027F0000E942F24892BA9F01092C70281E08093B8
:10280000BE0220E04091C4026091C3028091C202E6
:102810000C94F712823110F09262D4CF880F982B6B
:10282000D1CF81E08093C7020E940A079093BC0237
:102830008093BB02E3CF089521E030E0A90102C0FC
:10284000440F551F8A95E2F7CA012091C8026623FA
:1028500099F0822B8093C8028091C702811106C033
:102860008091C10260E086950E94DA138091C102D6
:1028700080FD05C00C940D1280958223EBCF089546
:10288000CF92DF92EF92FF926B017C0161E0C11465
:10289000D104E104F10409F06C2D617080E00E9424
:1028A0001C1460E0C114D104E104F10441F0D7012B
:1028B000C601B695A79597958795682F617081E0B9
:1028C0000E941C1460E0C114D104E104F10459F029
:1028D000D701C60122E0B695A795979587952A95C9
:1028E000D1F7682F617082E00E941C14C0927F02B1
:1028F000D0928002E0928102F0928202FF90EF90EB
:10290000DF90CF900C941A0881FB662760F983E072
:102910000C941C14CF92DF92EF92FF926B017C011A
:1029200060E0C114D104E104F10459F0DC01C601F6
:1029300062E0B695A795979587956A95D1F7682F28
:10294000617082E00E941C1460E0C114D104E104B3
:10295000F10459F0D701C60153E0B695A7959795B4
:1029600087955A95D1F7682F617084E00E941C14F6
:1029700060E0C114D104E104F10459F0D701C601AB
:1029800044E0B695A795979587954A95D1F7682F16
:10299000617085E00E941C1460E0C114D104E10460
:1029A000F10459F0D701C60135E0B695A795979582
:1029B00087953A95D1F7682F617086E00E941C14C4
:1029C00060E0C114D104E104F10459F0D701C6015B
:1029D00026E0B695A795979587952A95D1F7682F04
:1029E000617087E00E941C14C701B601FF90EF9050
:1029F000DF90CF9008950E948A146093040370932F
:102A0000050380930603909307030C941A080F9311
:102A10001F936091040370910503809106039091C8
:102A200007038B019C0108711127222733270831E6
:102A300011052105310529F460641F910F910C9453
:102A4000FB146F7BFACF0F931F9341E050E060E0DF
:102A500070E004C0440F551F661F771F8A95D2F798
:102A6000CB01BA0160957095809590950091040313
:102A70001091050320910603309107036023712311
:102A8000822393231F910F910C94FB1490917A024F
:102A90008095892380937A02282F277071F4282F3C
:102AA000082E000C330B9217130639F08595859587
:102AB00085950E94231510927A020895FC01838166
:102AC00094818130974549F480910501843019F44F
:102AD00082E00E9423151092050108950F931F9321
:102AE00041E050E060E070E004C0440F551F661FF5
:102AF000771F8A95D2F78091040390910503A091E6
:102B00000603B09107038A019B01082B192B2A2B7E
:102B10003B2BC901B8011F910F910C94FB14FC01D0
:102B20009081913081F48285811113C090930501C9
:102B3000238134812130374579F5933091F058F471
:102B400091110CC00895923071F3933079F398E0AD
:102B5000EDCF94E0EBCF9430E1F0089589E20C944E
:102B60001D0D8091040390910503A0910603B0917F
:102B700007030097A105B10561F022E0B695A7957E
:102B8000979587952A95D1F780FF03C082E00C9432
:102B9000231582E00C946E1508958091C1028695EC
:102BA000815009F481E161E00C94DA138091C10253
:102BB00086958F5F823108F081E061E00C94DA1332
:102BC0009091C10290FF07C09695981720F0961734
:102BD00010F40C94D61561E00C94DA134F925F92C6
:102BE0006F927F928F929F92AF92BF92CF92DF921D
:102BF000EF92FF920F931F93CF93DF9300D000D0FB
:102C00000F92CDB7DEB77C01DC0113968D919C91BC
:102C10001497892B41F01C911196DC90812F8D2106
:102C20008F3F09F0DCC60F900F900F900F900F9020
:102C3000DF91CF911F910F91FF90EF90DF90CF9098
:102C4000BF90AF909F908F907F906F905F904F90CC
:102C500008950E94A60B082F682F89819A810E94EF
:102C60009207E12FF0E0BBE0DB9EE00DF11D1124A7
:102C700029E7029FE00DF11D1124EE0FFF1FE7551C
:102C8000FD4F05911491D70112968C9181110DC0C1
:102C9000F7018281F801E852FD45EB30F10508F0BB
:102CA00070C1E256FB4D0C94202480913D018F3F72
:102CB00079F361E1C62E61E0D62EB12CA12C9924C6
:102CC000939480913D01082E000C990B8A159B0569
:102CD000FCF2D60116968C9116978823D9F0199696
:102CE0008D919C918017910739F48091EE0190911C
:102CF000EF018017910771F0F6019786148703871B
:102D00008189811103C0C6010E94BC08C6010696D4
:102D10000E94DD08FFEFAF1ABF0A26E1C20ED11CE8
:102D2000D0CF882359F061E083E090E00E945024E6
:102D300061E070E080E090E00E94401480917A02AF
:102D4000877009F470CFD70112968C91882309F40B
:102D50006ACF82E00F900F900F900F900F90DF914D
:102D6000CF911F910F91FF90EF90DF90CF90BF9088
:102D7000AF909F908F907F906F905F904F900C944A
:102D800046158823D9F262E083E090E00E94502447
:102D900062E070E080E090E0CFCF882331F083E004
:102DA0000E946E150E940715C9CF83E00E9423156B
:102DB000F9CF882311F084E0F3CF84E0F7CF8823A4
:102DC00021F086E00E946E15B9CF86E00E9423159F
:102DD000B5CF882379F081E08093ED01D701139678
:102DE0008D919C919093EC018093EB0186EE0E9473
:102DF0005B08A4CF86EE0E9428088091ED0188230D
:102E0000C1F0F701838194812091EB013091EC01B5
:102E1000821B930B883C910560F480EE0E945B0856
:102E20008CE20E945B088CE20E94280880EE0E94DF
:102E300028081092ED0182CF8111CDCF86EE0E943D
:102E400028088091ED018823A1F3D70113968D9175
:102E50009C912091EB013091EC01821B930B883CFB
:102E6000910538F701EA12E05AE0852EF801249125
:102E70002223F9F2213009F043C031968491813048
:102E800049F40E5F1F4FF80184910E941D0D0F5FE2
:102E90001F4FECCF823039F40E5F1F4FF801849141
:102EA0000E945B08F4CF833039F40E5F1F4FF801A6
:102EB00084910E942808EBCF843009F060C00E5F37
:102EC0001F4FF801249190E080E0F80131962053E3
:102ED000330B2A30310548F00197C8F2AFE9BFE063
:102EE0001197F1F700C00000F7CF889EA001899EDE
:102EF000500D1124C901840F951F24918F01E5CF36
:102F0000E22FF0E0EF5DFD4F9490822F869586953D
:102F1000869590E0FC01EF5EFD4FA4902770B12CE8
:102F2000022E02C0B594A7940A94E2F7E1E0AE2223
:102F3000BB24FC01EF5FFD4FC490D12C02C0D5949F
:102F4000C7942A95E2F7F1E0CF22DD24A114B10461
:102F500019F081EE0E945B08C114D10419F086EECD
:102F60000E945B08892D0E941D0DCD2819F086EE68
:102F70000E942808AB2809F48ACF81EE9ACF8F01EE
:102F800086CF81111092ED01980137552F3F310501
:102F900011F008F0A8C040913D01042E000C550B23
:102FA0004217530714F420933D0196E1929F50017C
:102FB000939FB00C112495012F5E3E4F6901D901FA
:102FC00050968C935097F701928116968C91169794
:102FD000992309F47AC01A961C930E9319978F5F60
:102FE00016968C930E940A07D6011E969C938E9388
:102FF0001D9780917E0217968C93179780917C0283
:1030000090917D02892B18968C931897ED91FC91E5
:103010001197309739F054966D917C91C501895E76
:103020009E4F09951093EF010093EE01D701129680
:103030009C91992309F4E6C41092F0010230BCE59A
:103040001B0708F4F6C40631ECE51E0738F09801BA
:103050002A5F3C452930310508F0EBC40E94A70CDB
:1030600090939E0280939D020031FCE51F0709F4B6
:103070002DC108F0BEC008303CE5130709F418C1A3
:1030800008F08DC004309CE5190709F409C108F067
:1030900073C00230BCE51B0709F4FCC080919D029F
:1030A000826003301C4509F4F8C060919D021091C4
:1030B0009E0284E090E00E945024612F81E290E023
:1030C0000E9450240E943D0F39CE882309F4AECFD0
:1030D000F9018189882309F4A9CFC501895E9E4F32
:1030E0000E94DD08A3CF033FFCE51F0769F1B0F4A0
:1030F000083D3CE5130711F1093D8CE51807B1F1D6
:10310000073D9CE5190709F091CF06E221EE41EE5B
:1031100067ED7CE5C7010E94300D10CE053FACE5A0
:103120001A07F1F0B8F0063FECE51E0709F07ECF74
:1031300007E225EE46EE66EF7CE5ECCF07E225EEF2
:1031400045EE68ED7CE5E6CF06E221EE40EE63EF6A
:103150007CE5E0CF07E225EE44EE64EF7CE5DACFD4
:1031600006E221EE42EE65EF7CE5D4CF08E221E0F5
:1031700045EE69ED7CE5CECF80919D028061063001
:10318000FCE51F0709F489C080919D028860073023
:103190001C4508F482C080919D0280627EC08091AF
:1031A0009D028D7F0C303CE5130709F476C070F466
:1031B00080919D028C600A309CE5190709F46DC06E
:1031C00008F47AC080919D028E7F67C080919D0235
:1031D000877F0E30BCE51B0709F45FC080919D021C
:1031E0008B7F0F301C4508F458C080919D028F7E64
:1031F00054C00B3FFCE51F0709F456C030F50331FE
:103200003CE5130709F46AC078F401319CE519071D
:1032100009F460C002311C4509F047CF0E943D0F00
:1032200080919D028F7739C00531BCE51B0709F4F9
:103230005DC008F471C080919E0281600A3F1C4508
:1032400009F033CF80939E0230CF0F3F2CE5120759
:1032500009F448C070F40D3F8CE5180799F180918E
:103260009E028E7F0E3F1C4568F380919E02836014
:10327000E9CF0130ADE51A0709F457C008F442C0A0
:1032800060E002301D4509F010CF8EE090E00E9412
:1032900050240BCF80919D02816080939D0205CFC9
:1032A00080919D028460F9CF80919E028260CACF96
:1032B00080919D028064F1CF0E943D0F80919D021C
:1032C0008068EBCF80919E028D7FBCCF80919D0264
:1032D0008F7DE3CF80919D028F7BDFCF80919D0218
:1032E000837FDBCF80919E028C7FACCF80919D024B
:1032F00082FB992790F921E0922790FB82F990FBBD
:1033000083F9CBCF80919E02982F909591708E7FFC
:10331000892B90FB81F996CF0E943D0F90919D02E1
:10332000892F97FB87F98058B8CF61E0AECF85E34E
:1033300072C3992309F47DC080917D028272F801E5
:10334000E25CFC45E431F10508F06AC0E755FB4D4D
:103350000C9420248091C10280FF1BC08E7F80933B
:10336000C1026091C1027091C2028091C30290912A
:10337000C4020E94960E1092C702FFEF20E732E0CF
:10338000F15020403040E1F700C000000E940D12D3
:10339000D5CC81608093C10261E086950E94DA13EA
:1033A000CDCC4DEC55E166ED75E10E942709C6CC08
:1033B00046ED55E16DEC75E1F8CF48EC53E161ED78
:1033C00073E1F3CF41ED53E168EC73E1EECF40EBF5
:1033D00053E16CEB73E1E9CF4CEB53E160EB73E14C
:1033E000E4CF48E953E164EA73E1DFCF44EA53E113
:1033F00068E973E1DACF48EA5EE069EB7EE0D5CFB9
:1034000049EB5EE068EA7EE0D0CF61E081E0C6CFC4
:1034100067E082E00E94E01591CC61E188E0FACF9C
:1034200001158CE5180709F44AC00E3D1C4509F446
:1034300075C0F70100811181992309F472C0C80198
:103440000E94A60BD82E682FC8010E949207B801CF
:103450008D2D0E941B0A8C01882ED7011596AC90E9
:103460001597A2944FE0A4221296DC90D1101092EE
:103470007C0280917A02877099F0DD2089F0812F9B
:10348000807F803421F080E2800F883048F082E035
:103490000E94461580917A028770CC24C3948111D2
:1034A000C12CB12EB2943FE0B322BBE0BB1508F4AF
:1034B0006FC0EB2DF0E0E354FB4D0C9420240E94F0
:1034C0003D0FBFEFE4E3FCE0B150E040F040E1F736
:1034D00000C0000081E08093E00080E28093D8008B
:1034E0001092C9008FE19EE40197F1F700C000003F
:1034F00087E090EBDC018093080390930903A0938D
:103500000A03B0930B0388E19CE00FB6F894A895EA
:10351000809360000FBE90936000FFCF0E94DA0E90
:103520000DCCC8010E946A07D82E91CFE12FEF7011
:10353000AE2E107F19F0A29420EFA222DD20C9F058
:10354000AA2069F080E2800F883010F081100BC053
:1035500080917D02A82AA0927D020E943D07802FC3
:103560000E945B0815C080917C02A82AA0927C0270
:10357000F4CF802F0E942808AA2051F0005E083066
:1035800010F0811045C08A2D0E9436070E943D0729
:10359000AB2DA850BB0B149720F40E94B0080E94DA
:1035A0008414CC20A9F080917A0280FD11C0F7012B
:1035B00012828595859585950E946E15C7010E949A
:1035C000EE1580917A028595859585950E94231543
:1035D00085E0F701DE01119601900D928A95E1F7E1
:1035E00089819A810E946A079A81E981F0E02BE043
:1035F000929FE00DF11D112439E7839FE00DF11D2D
:103600001124EE0FFF1FE755FD4F859194910BCBD1
:10361000A09480917C02A822A0927C02B7CFF12FC7
:10362000FF709F2E107F103219F0929490EF992224
:10363000882071F021E0821661F1DD20B9F1AA2025
:1036400071F1F701858180FF8ACF8F70858327C054
:10365000DD2091F090917E02892D892BA11003C06D
:103660000E94E40795CF31E0A312FACF981709F42E
:103670008FCF80937E028CCFA11006C00E943007AE
:10368000892D0E94DD0784CF81E0A81609F480CF40
:10369000F5CFDD2031F092E09A1508F479CF892D2D
:1036A000DFCFA1E0AA1508F473CFEACFAA2041F337
:1036B000F9E38F1209C02FEF37EE83E0215030403D
:1036C0008040E1F700C00000802F0E94280860CFF2
:1036D000812F86958695837061F0813009F058CFEF
:1036E000C8019370D11002C090E080E00E94EE0704
:1036F0004FCFC8019370D11002C090E080E00E94CB
:10370000040846CF812F837009F066C0D11040CFE6
:10371000802F829586958770880F880F602F6F7035
:10372000462E512C712C612C082E04C0440C551CC3
:10373000661C771C0A94D2F740E050E0BA0104FFFF
:103740000FC04FE050E060E070E004C0440F551F30
:10375000661F771F8A95D2F74095509560957095B2
:10376000812F869586958370823019F1D8F4009167
:103770007F0210918002209181023091820281307B
:1037800069F04429552966297729CB01BA016023BC
:103790007123822393230E944014FACE402A512A97
:1037A000622A732ACB01BA016429752986299729CF
:1037B000F2CF442955296629772900917F0210917B
:1037C00080022091810230918202CB01BA016027F0
:1037D000712782279327DFCF8695DD2011F0812F77
:1037E0008170882309F4D4CE802F829586958770C6
:1037F000880F880F602F6F70462E512C712C612C12
:10380000082E04C0440C551C661C771C0A94D2F781
:1038100040E050E0BA0104FF0FC04FE050E060E02C
:1038200070E004C0440F551F661F771F8A95D2F7BA
:103830004095509560957095812F869586958370FB
:10384000823019F1D8F400910403109105032091FE
:10385000060330910703813069F044295529662910
:103860007729CB01BA0160237123822393230E941D
:10387000FB148ECE402A512A622A732ACB01BA0148
:103880006429752986299729F2CF44295529662963
:1038900077290091040310910503209106033091CC
:1038A0000703CB01BA016027712782279327DFCF57
:1038B0001F70DD2029F0812F0E946E15802FD0CE41
:1038C000802F0E94DD07812F0E94231561CE802F5B
:1038D00092EF891609F450C0981578F0A0EF8A1677
:1038E00019F1B1EF8B1609F43FC0DD2009F467C070
:1038F000A11035CE812F8F713CC0E3EF8E1609F4F5
:1039000040C0F4EF8F12F1CFDD2009F44DC01F71DC
:10391000812F0E946E15A8E01A9FC00111248360B8
:1039200080937A02812F25C0DD20C9F021E02A157D
:1039300008F42ECE1F7161E070E080E090E004C0DA
:10394000660F771F881F991F1A95D2F700910403FD
:10395000109105032091060330910703A4CF32E0B4
:103960003A1508F415CEE6CF812F8F71DD2009F4CA
:10397000ABCF0E946E150CCE812F8F71DD20C9F365
:10398000A3CF60E070E0CB01DD2009F470CF1F71A0
:1039900061E070E080E090E004C0660F771F881F50
:1039A000991F1A95D2F763CF81E00E944615B1E0C6
:1039B000BA1508F0EDCD82E00E944615E9CDAA20A7
:1039C00059F0893309F080CEEFEFF7EE23E0E150B4
:1039D000F0402040E1F776CE812F8F7175CF85E0E2
:1039E000F701DE01119601900D928A95E1F7D7015A
:1039F00012962C9189819A8121112BC90E946A0704
:103A0000082F2FC906311C4509F013CD8091F10113
:103A100081118DCC89E2E2EBF1E028EB31E091916C
:103A2000891303C0DF0111971C922E173F07B9F7C6
:103A300014C00631ECE51E0709F07BCC80917D02B5
:103A40008A7A91E009F490E09093F10169E28111A2
:103A500065E380EB91E00E9416070E943D076EC966
:103A60001F93CF93DF938091F701807FA9F480911A
:103A7000F401882389F080912902D091F8016091A6
:103A8000F2017091F301A091F501B091F601C62FFA
:103A9000C72316E0D81304C0DF91CF911F9108957A
:103AA00090E0109711F0CF3F19F401968770F2CF94
:103AB000189F9001199F300D1124F901E750FE4F16
:103AC00041814713F2CF40814613EFCF428141112C
:103AD000ECCF438154814A1B5B0B483C510528F7CE
:103AE0008091F7018F7080618093F701F901E250B6
:103AF000FE4F80818F708061808382EF91E00E9411
:103B0000EE15DF91CF911F910C94BE07AF92BF923B
:103B1000CF92DF92EF92FF920F931F93CF93DF9399
:103B2000CDB7DEB761970FB6F894DEBF0FBECDBF3D
:103B30008C0185E0F801DE011D9601900D928A95B9
:103B4000E1F7F80180819181E28022EFA22E21E04D
:103B5000B22E6091F5017091F6016115710509F4BD
:103B60003EC13091F2014091F301232F24232F3FD6
:103B700009F435C1C380D480F090F401F601E61B4E
:103B8000F70BFF2009F4FBC02091F701522F507F63
:103B9000E83CF10508F0BBC0511178C0FE2C491378
:103BA00021C038131FC0E1101DC02F702061209369
:103BB000F701C5010E94EE158091F701F801858398
:103BC0008F2D61960FB6F894DEBF0FBECDBFDF918B
:103BD000CF911F910F91FF90EF90DF90CF90BF900A
:103BE000AF900895CD2829F0282F29232F3F09F0E1
:103BF00014C120E0F22FF170DF2E20FF3DC0209194
:103C000029024091F80156E0241315C08D879E8744
:103C10008D859E850E94E80B292F22952F702230DA
:103C2000F8F0243020F59F70F9F0F8019581907F2D
:103C3000D9F4D12C1FC030E0529FF001539FF00DFA
:103C40001124E750FE4F6181961306C060818613F0
:103C500003C06281E61210C02F5F3F4F2770D4CFA0
:103C60009F7011F0882329F3805E883010F3C8011B
:103C70000E94EE15FD2CA4CFEE2009F4A1CF809177
:103C8000F70181608093F701F12C9ACF491312C09C
:103C9000381310C0E1100EC0F8012583C8010E943E
:103CA000EE1586E0F801A2EFB1E001900D928A9541
:103CB000E1F786CF8D879E878D859E850E94F20BCA
:103CC000882309F1EE20F9F08091F701803270F03D
:103CD0002091F2013091F30138872F831986DB861A
:103CE000CA868C87CE0107960E94EE1586E0F80101
:103CF000A2EFB1E001900D928A95E1F70E94301D8C
:103D0000FF24F3945DCFC8010E94EE15F9CF511145
:103D10000AC082EF91E00E94EE1586E0F501119253
:103D20008A95E9F7B1CF49130FC038130DC0E110E0
:103D30000BC0F8012583C8010E94EE1586E0F5014D
:103D400011928A95E9F73CCF8D879E878D859E8558
:103D50000E94F20B8823B9F2EE20A9F28091F701BC
:103D6000803220F22091F2013091F3013A832983CD
:103D70001B82DD82CC828E83CE010196B5CFE83CDA
:103D8000F105E0F6FE2CEE2009F4BDCF491316C074
:103D9000381314C08091F70180FD83CF982F907F56
:103DA00009F47FCFF8018583903F09F477CF982FEE
:103DB000907F905F8F70892B858370CF8D879E87D2
:103DC0008D859E850E94F20B811190CF8091F70125
:103DD00081608093F701C8010E94EE15F1CEEE20BC
:103DE00009F491CF8D879E878D859E850E94F20B69
:103DF000F82E882309F487CF86E0F801A2EFB1E01E
:103E000001900D928A95E1F78091F2019091F30172
:103E10000E94E80B0E94301DD3CE21E02E25EACE71
:103E20001F93CF93DF93CDB7DEB767970FB6F894A4
:103E3000DEBF0FBECDBF4B8B5C8B6D8B7E8B8F8BB4
:103E40001A8A198A85E0FE017396DE011D9601909B
:103E50000D928A95E1F786E0FE013D96DE01179608
:103E600001900D928A95E1F7CE0107960E94861D7A
:103E7000882389F016E0809129029091F801891336
:103E800049C067960FB6F894DEBF0FBECDBFDF9175
:103E9000CF911F91089586E0FE013796DE011196BD
:103EA00001900D928A95E1F78A859B85892B11F304
:103EB0008F81988589238F3FE9F22091F80130E0C6
:103EC000C901019687709927409129024817190660
:103ED00071F40E943D0F1092F8011092290286E0C1
:103EE000E2EFF1E0DF011D928A95E9F7C3CF96E09A
:103EF000929FD001939FB00D1124A750BE4FFE0199
:103F0000319601900D929A95E1F78093F8010E9405
:103F1000BE07B0CF819FC001112487509E4F0E94E1
:103F2000861D882309F4ADCF8091290290E0019687
:103F300087709927809329029ECF1F920F920FB608
:103F40000F9211242F933F934F935F936F937F931F
:103F50008F939F93AF93BF93CF93DF93EF93FF9391
:103F6000D091E900DF708091EC00C82FC17080FD16
:103F7000C0E81092E9008091F000877F8093F00004
:103F800078940E94480F1092E9008091F0008860B8
:103F90008093F000CD2BCF70C093E900FF91EF919B
:103FA000DF91CF91BF91AF919F918F917F916F9151
:103FB0005F914F913F912F910F900FBE0F901F90E7
:103FC00018951F920F920FB60F9211242F933F93C3
:103FD0004F935F936F937F938F939F93AF93BF9311
:103FE000EF93FF938091E10082FF09C08091E2008E
:103FF00082FF05C08091E1008B7F8093E10080917A
:10400000DA0080FF24C08091D80080FF20C080911A
:10401000DA008E7F8093DA008091D90080FFA1C002
:1040200080E189BD82E189BD09B400FEFDCF81E058
:104030008093FA028091ED02811109C00E946C0503
:104040000E9437068091E20084608093E2008091B4
:10405000E10080FF17C08091E20080FF13C08091D3
:10406000E2008E7F8093E2008091E2008061809385
:10407000E2008091D80080628093D80019BC85E06E
:104080008093FA028091E10084FF2FC08091E200CA
:1040900084FF2BC080E189BD82E189BD89B5982F5D
:1040A000917080FFFBCF8091D8008F7D8093D800E6
:1040B0008091E1008F7E8093E1008091E2008F7E0D
:1040C0008093E2008091E20081608093E200809121
:1040D000FB02882309F44BC084E08093FA020E941B
:1040E0003D0F0E94B0080E9484148091E10083FF7C
:1040F00027C08091E20083FF23C08091E100877F89
:104100008093E10082E08093FA021092FB0280919A
:10411000E1008E7F8093E1008091E2008E7F8093AA
:10412000E2008091E20080618093E20042E060E082
:1041300080E00E9405068091F00088608093F00086
:10414000FF91EF91BF91AF919F918F917F916F916F
:104150005F914F913F912F910F900FBE0F901F9045
:10416000189519BC1092FA021092ED0270CF80914E
:10417000E30087FD93E09093FA02B1CFCDB7DEB7AD
:104180002C970FB6F894DEBF0FBECDBF84B7877FE4
:1041900084BF0FB6F894A8958091600088618093E1
:1041A0006000109260000FBE80E890E00FB6F894B7
:1041B00080936100909361000FBE85B7806885BFD2
:1041C00085B7806885BF0E946C050E943706809184
:1041D000E20084608093E20078948091FA02882360
:1041E000A1F01091E9001F709091EC00892F81706F
:1041F00090FD80E8182B1092E9008091E80083FD83
:104200000E94480F1F701093E90082E084BD93E084
:1042100095BD9AEF97BD80936E00ACE8B1E047E999
:1042200051E061E070E08D91E82FE295EF70F0E0F1
:1042300011A18F709B0101C0220F8A95EAF7922F7E
:104240009095912391A382A1822B82A34A175B07A9
:1042500051F7ACE8B1E047E951E061E070E08D91E1
:10426000E82FE295EF70F0E011A18F709B0101C083
:10427000220F8A95EAF7922F9095912391A382A11C
:10428000822B82A34A175B0751F7E7E8F2E08DE93A
:1042900092E0A5EAB2E0119211921D921D928E1742
:1042A0009F07C9F790E080E00E944A248C3E9E4F11
:1042B00059F00E94DA0E90E080E00E944A248C3E81
:1042C0009E4F11F00E94DA0E82E090E00E943C24A2
:1042D0008093D6020E94A70C90939E0280939D0229
:1042E00083E090E00E943C24682F70E090E080E042
:1042F0000E944014609104037091050380910603AD
:10430000909107030E948A1480919F02811136C008
:1043100090E080E00E944A248C3E9E4F21F00E9453
:10432000DA0E0E94CA0E88E090E00E944424609356
:10433000C1027093C2028093C3029093C4026E7F45
:1043400071F40E94CA0E88E090E00E9444246093B9
:10435000C1027093C2028093C3029093C4020E9470
:104360002C091092C7028091C10280FF04C060E056
:1043700086950E94DA1381E080939F026FEA71E0D4
:10438000E1ED8E2EE2E09E2E27EA31E0EBEAF1E04D
:1043900041E050E01191812F82958F7090E0DC0117
:1043A0009196FC9091971F70E12E6A0101C0CC0C90
:1043B0001A95EAF70C2D00950F2191960C93919781
:1043C00092961C9192971C2992961C93D901FD906C
:1043D0009D010F2D02950F7010E0D8019196BC90B1
:1043E000BF2DBF70FB2E6A0101C0CC0CBA95EAF755
:1043F000DC2CD094DB20D8019196DC929197929698
:10440000DC909297DC289296DC92DC0190968C915D
:1044100090E002C095958795EA94E2F78170D80103
:1044200090960C9110E002C015950795FA94E2F76A
:1044300090E000FD92E0892BD4018D934D016E1721
:104440007F0709F0A7CF87E499E09093A1028093BA
:10445000A0028EE391E09093A3028093A202222413
:104460002A945BEB452E52E0552E68E1662E712CA6
:104470008091FA02853009F418C10E94930DE7ED8E
:10448000F2E0A5EAB2E010E000E0702F8D919D917E
:10449000219131912817390709F447C12827392775
:1044A00060E0EE24E394F12CA9014E215F21452B1D
:1044B00009F435C169837A8397012823392391E070
:1044C000232B09F490E09B830E940A078160782FD8
:1044D0009D838C8349815A816B818D810E94101F3D
:1044E000000F111FF801E952FD4F80819181E826EC
:1044F000F926F182E0828091C702882309F447C03F
:104500008091C602E091C102E695E81BE093BD02EE
:1045100000ED17E046EFE42E46E0F42E823059F429
:10452000E695F0E0E75AF64FE4910E2F10E05AECD2
:10453000E52E52E1F52E8091BE02882389F010927B
:10454000BE020E940A07980120953095820F931FA2
:104550009093BC028093BB021092C0021092BF02E3
:104560008091BB029091BC020E94FB0680179107CC
:1045700070F0E091BB02F091BC020E0F1F1F109370
:10458000BC020093BB028BEB92E0F70109950DECA6
:1045900012E089ECE82E82E0F82E97EAA92E91E04D
:1045A000B92E2BEA822E21E0922E31EDC32E32E07D
:1045B000D32E312CD601ED916D01EE0FEE0FD4010B
:1045C0002D914D01A22FA295AF70B0E090968C91E5
:1045D00090E02F7002C0959587952A95E2F781703B
:1045E0009927D5014D915D01A42FA295AF70B0E040
:1045F00090962C9130E04F7002C0359527954A95E2
:10460000E2F7A9014170552720FF02C042E050E0C7
:10461000842BE82BD6011197EC931C870B87EF7046
:10462000F0E0E956FE4F8081F8019081890F808388
:10463000843054F0D7018C918F5F8C93B1E0B31527
:1046400088F089EA0E941D0DF80180818D3F54F4A5
:10465000D7018C9181508C93B1E0B31518F08AEAA0
:104660000E941D0D0F5F1F4FF8013197AB85BC8570
:104670008C91837887FF03C081508C6F8F5F80831C
:104680003394BFEFEB1AFB0AE4E03E1293CF0E9493
:10469000B0089091D502891709F4EACE0E94B008BB
:1046A0008093D5020E948414E3CE8091FA02843074
:1046B00029F11092A402B0E40FB6F894A895609284
:1046C00060000FBEB093600080E00E94841483B746
:1046D000817F846083BF83B7816083BF789488952E
:1046E00083B78E7F83BF0FB6F894A8958091600042
:1046F000886180936000109260000FBE8091F90283
:10470000882309F4B5CE0E94930DE5EAF2E0819189
:104710009191892B01F54E165F06C9F7A9CE6F5FFF
:10472000EE0CFF1C6B3009F0BFCE0F5F1F4F0B303C
:10473000110509F0AACE2E822F8218860E940A0740
:104740008160782F9A8789874E815F8168858A8505
:104750000E94101FD0CEF0E1F9BD22E129BD09B4BD
:1047600000FEFDCF8091D8008F7D8093D80080918E
:10477000E00082608093E0008091E00081FDFCCF4A
:1047800077CE78941F921FB61F9211248F939F9318
:10479000AF93BF938091830290918402A091850290
:1047A000B09186020196A11DB11D80938302909362
:1047B0008402A0938502B0938602BF91AF919F912E
:1047C0008F911F901FBE1F9018951F921FB61F92AA
:1047D00011248F939F93AF93BF938091A402811173
:1047E00013C08091830290918402A0918502B091C0
:1047F00086024196A11DB11D80938302909384028D
:10480000A0938502B0938602BF91AF919F918F9143
:104810001F901FBE1F901895AA1BBB1B51E107C01C
:10482000AA1FBB1FA617B70710F0A61BB70B881F40
:10483000991F5A95A9F780959095BC01CD010895CF
:10484000EE0FFF1F0590F491E02D0994FB01DC01B0
:1048500002C005900D9241505040D8F70895FC01D8
:104860004150504030F001900616D1F73197CF01FA
:104870000895882799270895F999FECF92BD81BDA3
:10488000F89A992780B50895A6E1B0E044E050E099
:104890000C947624A8E1B0E042E050E00C94762439
:1048A000262FF999FECF92BD81BDF89A019700B4E9
:1048B000021639F01FBA20BD0FB6F894FA9AF99A89
:1048C0000FBE08950396272F0E9451240E94502462
:1048D000252F0E945124242F0C9451240196272F18
:1048E0000E9451240C945024DC01CB01FC01F99965
:1048F000FECF06C0F2BDE1BDF89A319600B40D922C
:1049000041505040B8F70895F894FFCF010C010CC6
:104910000A0C0A0C0C0C0A0C0A0C0A0C010C010CF7
:10492000110C0A0C0A0C110C2B105310F51153101A
:10493000F5118610A710F511B011BD119116C11611
:10494000C117CD16D916C117DF16C117C117E91641
:104950001C17AA19D119D819DD19E219E719EC1990
:10496000F119F619FB19001A051A9E169E16081A57
:104970009E169E169E160D1A9E16961A961A0F1BB6
:104980000F1B681BC81AC81AC81A821B581C671C40
:02499000671CA2
:10499200E100390001000108090A0B0C0D0E0F108D
:1049A20011970C870C620C00000000000000000050
:1049B2000000000000000100008F155E15000000DD
:1049C20000000000000000000013010000FFF806D4
:1049D200F00CF706EC0CE80C0100010202020202E4
:1049E2000208080808080808080808818283E2000B
:1049F200E900EA00B500B600B700CD008301CC00A3
:104A02008A01920194012102230224022502260234
:104A120027022A02B300B4006F007000949767F176
:104A2200F4F59695C6303100FF0100010000FFFF4A
:104A32000000010001FF00F7329392F63335340093
:00000001FF
