:100000000C9464050C94AB050C94AB050C94AB05F7
:100010000C94AB050C94AB050C94AB050C94AB05A0
:100020000C94AB050C94AB050C940E260C94CA25CD
:100030000C940B2A0C94AB050C94AB050C94AB05FB
:100040000C94AB050C94AB050C94322A0C94AB05C4
:100050000C94AB050C94E7290C94AB050C94AB0500
:100060000C94AB050C94AB050C94AB050C94AB0550
:100070000C94AB050C94AB050C94AB050C94AB0540
:100080000C94332A0C94AB050C94AB050C94AB0583
:100090000C94AB050C94AB050C94AB050C94AB0520
:1000A0000C94AB050C94AB050C94AB05076342367E
:1000B000B79BD8A71A39685618AEBAAB558C1D3CF9
:1000C000B7CC5763BD6DEDFD753EF6177231BF00BD
:1000D0000000803F08000000BE922449123EABAAF7
:1000E000AA2ABECDCCCC4C3E00000080BEABAAAA52
:1000F000AA3E00000000BF000000803F000000009A
:1001000000084178D3BB4387D1133D190E3CC3BDD2
:100110004282AD2B3E68EC8276BED98FE1A93E4C7F
:1001200080EFFFBE01C4FF7F3F000000000001011F
:1001300000FFFFFF00000000010124FFFFFF00009F
:100140000000010180FFFFFF00000000010155FFDA
:10015000FFFF000000000101D5FFFFFF00000000CD
:1001600000012BFFFFFF000000000001AAFFFFFFBE
:100170000000000000010000FFFF0000000000017F
:100180000101010101010101020202020202020257
:100190000203030303030303030404040404040429
:1001A00005050505050606060606070707070708ED
:1001B000080808090909090A0A0A0B0B0B0C0C0CA0
:1001C0000D0D0D0E0E0E0F0F0F101011111112123A
:1001D00013131414151516161717181819191A1AB7
:1001E0001B1B1C1D1D1E1E1F202021222223242418
:1001F000252626272829292A2B2C2D2D2E2F303154
:100200003232333435363738393A3B3C3D3E3F4065
:100210004142434445464748494A4C4D4E4F505150
:100220005354555658595A5B5D5E5F61626465660A
:1002300068696B6C6D6F7072737577787A7B7D7E91
:100240008082838587888A8C8E8F91939596989AE1
:100250009C9EA0A2A3A5A7A9ABADAFB1B3B5B7BAF9
:10026000BCBEC0C2C4C6C9CBCDCFD1D4D6D8DBDDCD
:10027000DFE2E4E7E9EBEEF0F3F5F8FAFDFFFFAAC1
:100280007F5540000000000000000000000000005A
:10029000000000000000007E0F00D4FFFFFFC70039
:1002A00000007800000000000000002A2B28000059
:1002B0000000000000000000000000000000290015
:1002C0000000002C1E3420212224342627252E361F
:1002D0002D3738271E1F202122232425263333368D
:1002E0002E37381F0405060708090A0B0C0D0E0FE0
:1002F000101112131415161718191A1B1C1D2F3163
:1003000030232D350405060708090A0B0C0D0E0FC6
:10031000101112131415161718191A1B1C1D2F3142
:1003200030354C0102E2600103E2000000000000F1
:100330000000000000000000002D002A002E0089AF
:10034000000000000000000000000000000000139A
:100350000000002F0030000000000000000000003E
:1003600000000000003300280034003200000000CC
:100370000000000000000000000000387187725289
:10038000002B5D00000000000000000000000000E5
:1003900000E600500051004F000000000000000087
:1003A0000000000000230024002500260027000193
:1003B000571E001F0020002100220000001C001812
:1003C000000C0012002B00000014001A0008001599
:1003D00000170000000D000E000F00E000000004F8
:1003E000001600070009000A000B00000036003765
:1003F00000005700001D001B000600190005001139
:1004000000100000000000A800E200E300910000DE
:10041000002C6200002C449000E700000000000067
:1004200000000000000000000000000100010001C9
:1004300000010000000000000000000000000000BB
:1004400000010000000100010000000000000000A9
:100450000000000000000001000100010001000098
:10046000000000000000000000000000000100018A
:10047000000100010000000000000000000000007A
:100480000000006500010001000100000000000004
:100490000000000000000001000100010001000157
:1004A0000001000100010001000100010000000145
:1004B0000001000100010001000000010001000135
:1004C0000001000100000001000100010001000026
:1004D0000001000100010001000100010000000115
:1004E0000001000100000001000100010001000105
:1004F0000001000100000000000100E300E2008BA9
:100500000000000100000001008A008800000000D7
:1005100000000000000000000000000000010001D9
:1005200000010001000000000000000000000000C9
:100530000000005700000001000100000000000062
:1005400000000000000000000000000100010001A8
:100550000000000000000000000000000000005843
:100560000001000100010000000000000000000088
:100570000000000000010001000100010000000077
:1005800000000000000000000001000000540054C2
:100590000055000100010001000100010001000000
:1005A0000001005F00600061000100000001000127
:1005B0000001000100010000005C005D005E000120
:1005C0000000000100010001000100010001000025
:1005D000005A005B00010000000100010001000161
:1005E00000010001005900000000000100010001AD
:1005F0000001000000010000002C456200630000C3
:1006000000000000000000000000000000000044A6
:1006100000450049004C0000000000000000000000
:1006200000000000004A0000004D00A9000000008A
:10063000000000000000000000000050004F00011A
:1006400000AA000000000000000000000000000000
:1006500000510001004B00010000000000000000FC
:100660000000000000000001004A004E004D0000A4
:1006700000000000000000000000003F00400041BA
:10068000004200430048003A003B003C003D003E71
:10069000000000010001000100010046000000010F
:1006A0000001000100010001000000010001004BF9
:1006B0000001000000010001000100010001000133
:1006C00000000001004E00010000000100010001D7
:1006D000000100010001000100000000002E5D018A
:1006E00000010001000000010000002E5D0100017A
:1006F00000000000000000000000000000000000FA
:10070000004400450049004C0000000000000000CB
:10071000000000000000004B00000001000100008C
:1007200000000000000000000000000000010001C7
:1007300000010001000000000000000000000000B7
:10074000000000BB0001004B002E5D000000000017
:1007500000000000000000000001004A004E004DB3
:10076000000000000000000000000000003F00400A
:100770000041004200430048003A003B003C003D7D
:10078000003E0000000100010001000100460000E1
:1007900000010001000801010001000000510052A9
:1007A000004F0001000000040101004C004F00292F
:1007B00000500000000100BC000100000001000129
:1007C000000100010050004E002800000000000160
:1007D0000001000100010000000100000001000113
:1007E0000001000000000000000000000000000008
:1007F0000000002D002A002E0089000000000000EB
:10080000000000000000000000130000002F003076
:1008100000000000000000000000000000000033A5
:10082000002800340032000000000000000000003A
:1008300000000000003871877252002E5D00000039
:1008400000000000000000000000000100010001A5
:100850000001000000000000000000000000002374
:1008600000240025002600270029001E001F00206C
:10087000002100220000001C0018000C0012002BB8
:1008800000000014001A0008001500170000000DF9
:10089000000E000F00E00000000400160007000931
:1008A000000A000B00000036003700005700001D52
:1008B000001B0006001900050011001000000000D8
:1008C0000001000100010001000000010000000122
:1008D0000001000100000000000000000000000016
:1008E0000000000000010001000100010000000004
:1008F00000000000000000000000000100000001F6
:1009000000010000000000000000000000000000E6
:1009100000C35C01000100010000000000000000B5
:1009200000000000000000010001000100010000C3
:1009300000000000000000000000000000010001B5
:1009400000010001000000000000000000000000A5
:1009500000010001000100010001000100C55CC7A9
:100960005CC95C0100010000000100010001000100
:1009700000010000000100295D0100005C01000091
:10098000000100CD5CC25C0100000001000100011B
:100990000001000100010000000100010001000051
:1009A00000010001000100010001000253285D0068
:1009B0000000000100010001000100000001000032
:1009C00000010001000100000074016A016001568D
:1009D000014C01420138012E01000064321405016E
:1009E0000980A101850319012AB700150126B70066
:1009F000950175108100C0050C0901A1018504193C
:100A0000012AA002150126A002950175108100C0DF
:100A100005010906A101050719E029E715002501CF
:100A20009508750181029501750881010507190076
:100A300029FF150026FF0095067508810005081995
:100A4000012905950575019102950175039101C074
:100A500009023B00020100A0FA09040000010301A1
:100A6000010009211101000122400007058103084E
:100A7000000A09040100010300000009211101001E
:100A8000012232000705820320000A120110010032
:100A9000000008EDFE5A1730000102030104033084
:100AA0000000000C034A006F006E00650073000038
:100AB0000010036A00700073006B0065006E006E2A
:100AC000000000040309040011241FBECFEFDAE088
:100AD000DEBFCDBF04B603FE27C0809138069091DB
:100AE0003906A0913A06B0913B068730904BA7405B
:100AF000B04BD1F4109238061092390610923A0693
:100B000010923B0614BE84B7877F84BF0FB6F8945B
:100B1000A8958091600088618093600010926000C9
:100B20000FBEE0E0F8E3099526E0AAE6B4E001C0D4
:100B30001D92A833B207E1F714E0A0E0B1E0ECEFBA
:100B4000F7E602C005900D92AA36B107D9F70E94C8
:100B5000EB260C94B9330C940000E8EDF0E08081B2
:100B60008E7F80831092E2001092DA001092E100F2
:100B7000A0EEB0E08C9181608C9380818F77808330
:100B800019BCA7EDB0E08C918E7F8C9380818F7E15
:100B900080831092040608952091E4003091E500CE
:100BA00095E6A9012091EC00822F817020FF06C0FC
:100BB0008091E80080FF06C080E008952091E80061
:100BC00022FD1AC080911106882389F0853089F0B2
:100BD0008091EB0085FD0FC02091E4003091E5008D
:100BE00042175307F9F29150E1F684E0089582E04C
:100BF000089583E0089581E00895EF92FF920F93A6
:100C00001F93CF937C018B010E94CC05C82F8111CB
:100C100017C08091E80085FD0BC08091E8008E77B9
:100C20008093E8000E94CC05882399F3C82F08C060
:100C3000F70181917F018093F1000150110949F77B
:100C40008C2FCF911F910F91FF90EF90089580917D
:100C5000130687FF13C08091E80082FF06C08091D1
:100C6000E8008B778093E80004C080911106811121
:100C7000F2CF0895809111068823D9F38091E8007E
:100C800080FFF8CF8091E8008E77ECCF982F90937B
:100C9000E900242F762F50E0891731F07091EC0095
:100CA0002091ED005091F00021FD07C09F5F97302B
:100CB00071F78093E90081E008953091EB003E7F69
:100CC0003093EB003091ED003D7F3093ED0030919B
:100CD000EB0031603093EB007093EC002093ED005B
:100CE0005093F0002091EE0027FDE0CF80E00895C2
:100CF000CF92DF92EF92FF920F931F93CF93DF93E8
:100D0000C8EDD0E088818F7E8883E7EDF0E08081B8
:100D10008160808384E082BF81E0809304068881C3
:100D20008E7F888302EE10E0F80110821092DA00C4
:100D300081EEC82ED12CF601108288818F778883AE
:100D400088818068888388818F7D888319BC109210
:100D50001106109212061092100610920F0690EED5
:100D6000E92EF12CF70180818B7F8083888181605F
:100D7000888342E060E080E00E944606F6018081C0
:100D80008E7F8083F801808181608083808188608C
:100D90008083F70180818E7F808388818061888352
:100DA000DF91CF911F910F91FF90EF90DF90CF9047
:100DB0000895FC018091190690911A0686179707ED
:100DC000A0F06115710529F49091E8009E77909349
:100DD000E80090E06115710551F4911108C080910F
:100DE000E80082FF34C080E00895BC01F2CF80911A
:100DF00011068823C1F18530C1F18091E80083FD9F
:100E000030C08091E80082FDEACF8091E80080FF49
:100E1000E1CF8091F3002091F200382F6115710528
:100E200019F02830310558F091E02830310509F0EB
:100E300090E02091E8002E772093E800CBCF8191BD
:100E40008093F100615071092F5F3F4FE7CF809190
:100E50001106882341F0853041F08091E80083FF3E
:100E6000BECF81E0089582E0089583E0089508955B
:100E700008958091060608959C014FB7F8948091DB
:100E80009A0590919B05A0919C05B0919D054FBF3F
:100E9000821B930B08952FB7F89480919A05909137
:100EA0009B05A0919C05B0919D052FBF08959C01C5
:100EB000FC0132969FEF80E04191461751F09F3F31
:100EC00019F4411101C0982F8F5F8630A9F79F3F19
:100ED00009F40895290F311D97FD3A95F9016283B0
:100EE000089580919505811110929505089580953A
:100EF000909194059823909394050895809194057A
:100F000090919305892B90919205892B80936A0487
:100F100090919505992391F0892B80936A0420E0A4
:100F20008CE694E0FC013191CF0131112F5FF4E0A8
:100F300082379F07B9F721110E947107E091B90527
:100F4000F091BA05309731F00280F381E02D8AE606
:100F500094E0099408952BE0929F800D1124982F1E
:100F6000977086958695869525E0829FF0011124DD
:100F7000EF5BFA4F50E040E080E0219130E0092E35
:100F800002C0369527950A94E2F721703327042E84
:100F900001C0220F0A94EAF7822B4F5F5F4F453062
:100FA000510559F708952BE0929F800D1124982F39
:100FB000977041E001C0440F9A95EAF786958695AF
:100FC000869595E0899FF0011124EF5BFA4F90E040
:100FD00080E070E05191DF0111979B01082E02C063
:100FE000369527950A94E2F7217021952527242329
:100FF00025272C9301968530910561F708958091FE
:10100000400590910F05981301C008958F5F877078
:10101000FACF882341F0809590919305892380939E
:1010200093050C947E070895882339F090919305D9
:10103000982B909393050C947E070895882321F0B4
:101040000E9477070C947E070895882339F09091C9
:101050009405982B909394050C947E070895209105
:10106000E6043091E7042817390771F09093E704FC
:101070008093E604E091B905F091BA05309721F02C
:101080000084F185E02D099408952091E4043091C5
:10109000E5042817390771F09093E5048093E40480
:1010A000E091B905F091BA05309721F00680F781FB
:1010B000E02D0994089510929305109292050E94D4
:1010C0007E0790E080E00E94450890E080E00C946C
:1010D0002F08882381F19CEF980F913A78F4ECE681
:1010E000F4E022E734E09191891303C0DF01119706
:1010F0001C922E173F07B9F70C947E0790E2980FC9
:10110000983050F4877091E001C0990F8A95EAF702
:10111000892F0E947707F0CF9BE5980F933020F43A
:1011200090E080E00C944508885A873120F490E0E4
:1011300080E00C942F080895CF93C82F882309F4DA
:101140004EC08CEF8C0F813AF8F4ECE6F4E082E7C5
:1011500094E0DF012D91C21759F08A179B07D1F750
:101160006C2F8AE694E00E945707CF910C947E077B
:101170002191C21303C0DF0111971C928E179F07A4
:10118000B9F70E947E07ECCF80E28C0F883068F4BC
:10119000C77021E030E001C0220FCA95EAF78091C4
:1011A0009405822B80939405E0CFEBE5EC0FE330C0
:1011B00040F4F0E0EA5EFB4F808190E0CF910C9428
:1011C0004508C85AC73158F4EC2FF0E0EE0FFF1F66
:1011D000E75EFB4F80819181CF910C942F08CF91D6
:1011E0000895E091B905F091BA05309721F001908A
:1011F000F081E02D099480E00895CF93DF93EC0116
:1012000081E0898B809194059F81892B809394053F
:10121000809193059885892B809393050E947E0782
:10122000EA81FB81309739F06C897D89CE01069681
:10123000DF91CF910994DF91CF910895EF92FF92C2
:101240000F931F93CF93DF93EC018A85811139C0EF
:10125000EB80FC8087E5F81A26E12E9DC0012F9DCA
:10126000900D1124DC01AF5CBC4F1496ED91FC9104
:101270001597309731F054966D917C91895C9C4F15
:10128000099586E18E9D80018F9D100D11240F5CC4
:101290001C4FF80187810E947707F8018085982FFD
:1012A0009095809193058923809393050E947E07F2
:1012B000188219861B861E821D82109206051092C6
:1012C0000505DF91CF911F910F91FF90EF90089549
:1012D000FA01811101C0FB0109948091D805982F72
:1012E0009E7F61F4817082608093D8058091DB05D8
:1012F0008D3D18F08CED8093DB0508958432B0F3BA
:1013000081708262F1CFAF92BF92DF92EF92FF9233
:101310000F931F93CF93DF93082F162FE901E42F2C
:10132000F0E0E258FE4F611110C0E4915E2F4E2FA5
:101330004983E8835A83DF91CF911F910F91FF90EA
:10134000EF90DF90BF90AF900895E62EF12C44917E
:10135000D42EE42FF0E026E0829FC00111242FEF6D
:1013600030E0B9010E94B22E802F90E0880F991FC3
:1013700055E5569FD001579FB00D11248A1B9B0B3A
:10138000982F990F890F5901AE18BF08AE9ED00152
:10139000AF9EB00DBE9EB00D11245B2F189F800133
:1013A0001124012F11275901A01AB10AAE9E800104
:1013B000AF9E100DBE9E100D11245901A81AB10840
:1013C000AE9CC001AF9C900DBE9C900D1124892F46
:1013D0009927281B390B2E9FC0012F9F900D3E9FF0
:1013E000900D1124E92F62307105A1F050F46115C0
:1013F000710509F49DCF6130710581F0EB2F512FFC
:1014000097CF6430710569F080F06630710509F49A
:101410008FCFF4CFE42F4B2F592F8ACFE42F412FBA
:1014200087CFEB2F542F492F83CF4B2F5D2DE12FEB
:101430007FCF9091B40592FF06C0282F28712830E5
:10144000F9F4877F846093FF06C0282F2871283124
:10145000F1F4877E84612091B50520FF06C0382F06
:1014600038713830D9F4877F816021FF06C0282F7A
:1014700028712831D1F4877E816194FD877E08959B
:10148000282F24712430F9F68B7F8860DCCF282F39
:101490002471243101F78B7E8861DDCF382F3171C3
:1014A000313019F78E7F8860E0CF282F21712131EC
:1014B00021F78E7E8861E1CFCF93DF93972F70E085
:1014C0002BE0929F600D711D1124FB0139E7839F72
:1014D000E00DF11D1124EE0FFF1FE55DFC4FC591DE
:1014E000D491CE01C238D105B9F1E8F5C133D105A7
:1014F00009F499C050F5C932D10509F48DC0CA323A
:10150000D10509F497C0C11542E5D40708F0B6C06B
:10151000C11521E5D20708F024C1C83ED10508F065
:101520009DC0C03ED10568F5C83AD10508F089C014
:10153000C53AD10508F0EDC0C130D10511F12097B1
:1015400009F443C02497E8F440C0C533D10509F439
:101550005CC0C933D105B9F62091B405237089F078
:1015600080EE90E00EC0C33ED10591F168F4C03E1C
:10157000D105F9F0C23ED10531F62091B40522FD26
:1015800020C0DF91CF910895C63ED10561F1C73EDD
:10159000D10581F1C43ED10509F0B5CF2091B50543
:1015A00021FFEFCF8091B40584FD0FC087EE90E05E
:1015B000E8CF2091B40520FD01C13091B50530FF81
:1015C000E0CF83EE90E024FFDCCF90E080E0D9CF45
:1015D0002091B40522FDF5C03091B50530FDC0CF96
:1015E00024FFCFCFF2CF2091B40523FFCACF24FD33
:1015F000ECCFDCCF2091B40523FDE6C03091B505DA
:1016000031FFEECF84EE90E0BCCF2091B40525FFF2
:10161000B8CF89E290E0B5CF2091B40525FFB1CFD6
:1016200085E390E0AECF2091B40526FFAACF8AE2F1
:1016300090E0A7CF2091B40526FFA3CF81E390E0EF
:10164000A0CFCF3BD10508F6C85AD0E0CC0FDD1FA4
:10165000C75EDB4F88819981946493CFC11530E5D3
:10166000D30708F062C0C11540E4D40708F059C0A0
:10167000DA95C115DF4108F484CFA7CFC11536E54F
:10168000D30718F5C11545E5D40708F080C0C1158A
:1016900084E5D80708F076C09C2F96959695AE0104
:1016A00043705527C115D34508F460C021E030E0F0
:1016B00002C0220F331F4A95E2F740E2949FC00117
:1016C0001124822B932B9A685CCFC1153AE5D3077E
:1016D00078F4C11549E5D40708F063C0C11588E561
:1016E000D80708F472CF9C2F8827806F906A49CF63
:1016F000CE0190568115904208F067CF8D2F8F71E3
:101700000E94190A90E0982F882788279F718C2BB8
:1017100046C0C55AD0E0CA5EDB4F888190E0906435
:1017200030CFCE019F70906A2CCF9E01E4E03695B9
:101730002795EA95E1F723708C2F8695869583701F
:1017400030E2839FC0011124922BC37021E030E06E
:1017500002C0220F331FCA95E2F7822B932B9C689D
:1017600010CF9C2F8827816F906A0BCF21E030E04B
:1017700002C0220F331F4A95E2F740E2949FC00156
:101780001124EBCF9C2F8827846F906AFACE8C2F80
:101790000E94190A90E0982F882788279F719062ED
:1017A000F0CE8C2F8F700E94190A34E0D695C79521
:1017B0003A95E1F7CF709C2F9069E3CE89E390E0F2
:1017C000E0CE82EE90E0DDCE86EE90E0DACEBF9203
:1017D000CF92DF92EF92FF920F931F93CF93DF93FD
:1017E0008C01C0901B06D0901C06E0901D06F09066
:1017F0001E068091960590919705A0919805B0914D
:101800009905C82AD92AEA2AFB2ACFE1D0E0BC2EC2
:10181000D701C6010C2E04C0B695A795979587955C
:101820000A94D2F780FD0EC0219788F7B12C8B2D3A
:10183000DF91CF911F910F91FF90EF90DF90CF90AC
:10184000BF900895B8018C2F0E945C0A019761F344
:10185000EECFCF93DF93EC010E94E70BBE01DF9147
:10186000CF910C945C0A0E94290C292F2F7092951D
:101870009F7092509E3078F4E92FF0E0E554FC4CD4
:101880000C94DA2E803F19F020F4883E20F481E099
:101890000895843FE1F380E00895883EC0F3813FDE
:1018A000D1F7F5CF822F8695869586950895CF93AB
:1018B000DF939C013A9521153F4168F5EC01CC2757
:1018C000D170DC01AA27B270AC01442754709C018E
:1018D0002227387094FF11C080E1CD2B09F480E0FD
:1018E000AB2B09F08062452B09F08064232B09F0B3
:1018F0008068FB01DF91CF91099481E0CD2B09F441
:1019000080E0AB2B09F08260452B09F08460232B2B
:1019100081F38860EECFDF91CF910895CF93DF936D
:10192000EC010E946908CE01805E9109089720F0C1
:1019300069E078E0209711F46EE178E0CE01DF9164
:10194000CF910C94570CFC018081813029F4FB016C
:10195000808191810C948E0C823021F4FB01828174
:101960009381F8CF0895CF93DF93EC01805E9109C6
:10197000089720F064E178E0209711F465E278E0C0
:10198000CE010E94570C8C2FDF91CF910C949C08B4
:10199000FC018081813029F4FB01808191810C94CC
:1019A000B30C823021F4FB0182819381F8CF08953A
:1019B000CF93DF93EC018881823039F4FB0182817F
:1019C00093810E94B30C81E08B87DF91CF910895C2
:1019D000CF9384E090E00E94522FC82F81E290E0E4
:1019E0000E94522F982F8C2FCF910895CF93DF9381
:1019F00000D00F92CDB7DEB790911106943019F553
:101A000089837B836A8382E08093E9008FEF9091E2
:101A1000E800815095FD06C095ED9A95F1F700001C
:101A20008111F5CF8091E80085FF0DC050E040E0C6
:101A300063E070E0CE0101960E94FD058091E80010
:101A40008E778093E8000F900F900F90DF91CF91E9
:101A50000895BC0184E00C94F60CBC0183E00C9466
:101A6000F60CCF93DF93EC0181E08093E9008FEFD8
:101A70009091E800815095FD06C095ED9A95F1F79B
:101A800000008111F5CF8091E80085FF14C050E07F
:101A900040E068E070E0CE010E94FD058091E80022
:101AA0008E778093E80088E0FE01A7E0B6E0019021
:101AB0000D928A95E1F7DF91CF910895CF93C82FCA
:101AC0000E949C08C93349F42FEF87EE93E0215020
:101AD00080409040E1F700C000008C2FCF910C9423
:101AE00069080F931F93CF93DF93C42FD22FFC016C
:101AF00082818823A1F0409307050E944B079093B1
:101B0000E3048093E204C77081E001C0880FCA95A6
:101B1000EAF7DF91CF911F910F910C942508109156
:101B20000705141335C08091E2049091E3040E94EC
:101B30003C07883C910560F5C0E2CD0F1D17B9F058
:101B400080E2810F883040F4177081E001C0880F77
:101B50001A95EAF70E941E08C83048F481E09D2FCC
:101B6000977001C0880F9A95EAF70E942508802F88
:101B70000E945E0DC83098F4D77081E001C0880FD4
:101B8000DA95EAF7DF91CF911F910F910C941E081F
:101B9000C77081E001C0880FCA95EAF7F3CFDF91E3
:101BA000CF911F910F91089590E080E00E94602FE7
:101BB00021E08C3E9E4F09F020E0822F0895CF92C5
:101BC000DF92EF92FF926B017C010E946D09B701D9
:101BD000A60188E090E0FF90EF90DF90CF900C940A
:101BE000782F8091DC05882319F081508093DC05E3
:101BF0006091D8057091D9058091DA059091DB0547
:101C00000C94DF0D8091DC05833018F48F5F809396
:101C1000DC056091D8057091D9058091DA05909125
:101C2000DB050C94DF0DE8EDF5E083E080831182A5
:101C30008FEF82838CED8383148260817181828136
:101C400093810C94DF0D6CEE7EEF90E080E00E94BB
:101C5000842F60E082E090E00E94662F60E083E0E5
:101C600090E00E94662F10929605109297051092B0
:101C700098051092990560E084E090E00E94662F3C
:101C800060E081E290E00E94662F60E085E090E0F5
:101C90000E94662F60E086E090E00E94662F6FEF62
:101CA00087E090E00E94662F40E050E0BA0188E0B3
:101CB00090E00E94782F60E08DE090E00E94662F17
:101CC00040E050E0BA0188E190E00E94782F60E0A7
:101CD00087E190E00E94662F40E050E0BA018CE17D
:101CE00090E00E94782F60E080E290E00E94662FF2
:101CF00040E050E0BA018FE090E00E94782F40E091
:101D000050E0BA0183E190E00C94782F0F931F9379
:101D1000CF93DF930E94D40D811102C00E94230E45
:101D200087E090E00E94522F80933606809137061C
:101D300081114BC03E9A809171008D7F809371001C
:101D4000269A80916F008B7F80936F0002E0009352
:101D500090001AE110939100C1ECD1E1D09397006B
:101D6000C093960023EA3BE04EE855E460912201DF
:101D70007091230180912401909125010E94C73127
:101D80000E94E13070939900609398000093800066
:101D900010938100D0938700C093860023EA3BE034
:101DA0004EE855E460912201709123018091240155
:101DB000909125010E94C7310E94E13070938B0001
:101DC00060938A0081E0809337068091360680FF19
:101DD0000AC063E070E08AE091E0DF91CF911F914B
:101DE0000F910C94390FDF91CF911F910F910895AE
:101DF00080913706811102C00E94860E1092B704AE
:101E00001092B604809171008D7F80937100809153
:101E100090008F738093900080916F008B7F8093F0
:101E20006F00809180008F7C809380001092340638
:101E3000109235061092860410928704109288043E
:101E4000109289041092AE041092AF041092B00464
:101E50001092B104EEE8F4E0A5E7B4E0119211921B
:101E6000119211921D921D9284E0EE3AF807B1F79B
:101E700008950F931F93CF93DF93EC018B01809113
:101E80003706811102C00E94860E8091360680FFBF
:101E900054C0809171008D7F8093710080916F009C
:101EA0008B7F80936F008091350681110E94F80E20
:101EB00081E080933406D0933306C09332061093AA
:101EC00031060093300610922F0610922B061092C6
:101ED0002C0610922D0610922E0610922A061092B1
:101EE000290688819981AA81BB81809325069093D8
:101EF0002606A0932706B093280620E030E040E8AD
:101F00005EE36C817D818E819F810E94C7316093E9
:101F10002106709322068093230690932406109244
:101F2000200610921F0680917100826080937100DC
:101F300080919000806880939000DF91CF911F91F5
:101F40000F91089581E08093030568E070E087ECCD
:101F500091E00C94390F81E08093040568E070E013
:101F600087E491E00C94390F6091360661606093CC
:101F7000360687E090E00E94662F62E070E087E21C
:101F800091E00C94390F8091040581110C94F80EA6
:101F900008950E94C30F1092040568E070E087E87E
:101FA00091E00C94390F62E070E087E391E00E94C9
:101FB000390F2FEF81EE94E0215080409040E1F7FF
:101FC00000C000000E94F80E609136066E7F60939C
:101FD000360687E090E00C94662F10929405ECE6AC
:101FE000F4E086E0DF011D928A95E9F70C945B0826
:101FF0001F93CF93DF93CDB7DEB7AA970FB6F894B0
:10200000DEBF0FBECDBF83E196E02091F100FC0161
:102010002193CF01F6E08B319F07B9F78091140629
:10202000833009F46FC0B8F4813009F446C08230BF
:1020300009F4B0C08091E80083FF87C28091130645
:10204000909114069A3008F080C2E92FF0E0E7532F
:10205000FC4C0C94DA2E8A3009F48BC08B3009F4D6
:102060006EC0893039F780911306813219F780915B
:102070001706909118060297E8F68091E800877F8E
:102080008093E8008091E80082FF37C09091F300D0
:102090008091F200029729F48091F1008B7F8130CA
:1020A00021F48091F100809306068091E8008B77FF
:1020B0008093E8000E942706BDCF80911306813AE5
:1020C00009F0B8CF8091E800877F8093E800809185
:1020D000170690911806892B61F468E087E096E076
:1020E00070E00E94D9068091E8008B778093E80029
:1020F000A1CF60E090E080E0F3CF809111068111E4
:10210000C1CF98CF80911306813A09F093CF809187
:10211000170690911806892B09F08CCF8091E80062
:10212000877F8093E8008091E80080FFFCCF80915A
:10213000E0038093F1008091E8008E77B9CF809121
:102140001306813209F076CF809117069091180618
:10215000892B09F06FCF8091E800877F8093E8009A
:102160000E942706809115068093E0030E94ED0FE0
:1021700061CF80911306813209F05CCF8091E80035
:10218000877F8093E8000E9427068091160680933F
:10219000050650CF80911306813A09F04BCF80910C
:1021A000E800877F8093E8008091E80080FFFCCF03
:1021B00080910506BECF803899F0823809F0C5C1FC
:1021C000809117068F70873008F0BFC18093E900B7
:1021D0008091EB0085FB882780F91092E90006C00A
:1021E00080910F0690911006911182609091E80005
:1021F000977F9093E8008093F1001092F100809116
:10220000E8008E779EC1882309F48CC1823009F0E2
:102210009CC18091150681118FC1809117068F7026
:102220002FEF280F263008F090C18093E90020910D
:10223000EB0020FF81C1933031F48091EB0080628C
:102240008093EB0079C19091EB0090619093EB004B
:1022500021E030E001C0220F8A95EAF72093EA00DE
:102260001092EA008091EB008860EACF81116DC185
:10227000109115061F778091E3008078812B809361
:10228000E3008091E800877F8093E8000E942706A2
:102290008091E80080FFFCCF8091E300806880930C
:1022A000E30082E0111183E0809311064EC1805853
:1022B000823008F04AC180911506909116068C3D37
:1022C00023E09207A1F583E08A838AE289834FB7EE
:1022D000F894DE01139620E03EE051E2E32FF0E0B7
:1022E00050935700E49120FF03C0E295EF703F5FE9
:1022F000EF708E2F90E0EA30C0F0C7968D939D93DB
:102300002F5F243159F74FBF8091E800877F80937A
:10231000E8006AE270E0CE0101960E94D906809141
:10232000E8008B778093E80010C1C096E7CF40911A
:10233000170650911806292F33272330310509F449
:1023400045C078F52130310509F47BC08BE390E07E
:10235000E0E5FAE02230310509F0F7C02091E8000D
:10236000277F2093E8002091190630911A068217E2
:10237000930708F49C0140E02115310509F070C075
:1023800041116EC08091E80082FDC9CF8091110695
:10239000882329F2853019F28091E80083FFF2CF7B
:1023A000BECF2132310509F440C02232310509F097
:1023B000CCC04115510509F44EC04130510509F01A
:1023C000C4C082E390E0EEEDF9E0C8CF99278130F8
:1023D0009105D9F0009771F082309105F1F00397E3
:1023E00009F0B3C0EDE9FAE0E4918E2F90E0EDE959
:1023F000FAE007C0E3ECFAE0E4918E2F90E0E3EC22
:10240000FAE0009709F4A1C0A9CFE1EBFAE0E4916A
:102410008E2F90E0E1EBFAE0F4CFE3EAFAE0E4910A
:102420008E2F90E0E3EAFAE0ECCF4115510571F010
:102430004130510509F089C089E090E0EBE7FAE00E
:102440008DCF82E190E0EBE8FAE088CF89E090E080
:10245000E2E6FAE083CF80E490E0E0E1FAE07ECFCC
:1024600080911106882309F45ACF853009F457CF9B
:102470008091E80083FD53CF8091E80082FD82CFF8
:102480008091E80080FF78CF9091F3008091F20076
:102490002115310519F08830910550F041E0089779
:1024A00009F040E08091E8008E778093E80064CFE7
:1024B00044914093F1003196215031090196E8CFC3
:1024C000803809F042C08091E800877F8093E8005F
:1024D000809112068093F10092CE811136C0109146
:1024E0001506123090F58091E800877F8093E80010
:1024F000109312060E942706112311F084E005C0F4
:102500008091E30087FDFACF81E08093110642E0DD
:1025100061EC81E00E94460642E261EC82E00E94AA
:10252000460613C080911506813079F481E093301E
:1025300009F080E0809310061092E9008091E80095
:10254000877F8093E8000E9427068091E80083FF40
:102550000AC08091E800877F8093E8008091EB00BB
:1025600080628093EB00AA960FB6F894DEBF0FBE90
:10257000CDBFDF91CF911F9108955F926F927F92AF
:102580008F929F92AF92BF92CF92DF92EF92FF9283
:102590000F931F93CF93DF9300D000D00F92CDB74E
:1025A000DEB78091D80580FD0AC0E8EBF4E0118227
:1025B00010821282339624E0E23EF207C1F7809047
:1025C000B7059090B8058114910409F458C0D12C36
:1025D000C12C66246394712C53E0552E8091DF0545
:1025E00093010C2C01C0220F0A94EAF7822309F40C
:1025F0003EC0F601EE0FFF1FE80DF91DE590F490C7
:10260000E114F104E1F145E050E0B701CE0101969B
:102610000E943C2F09810F3F51F18A81800F992739
:10262000991F8F30910514F08EE090E05C01AA0CA8
:10263000BB1C8A0D9B1DFC01E854FB4F5F01059DEF
:102640008001112408541B4F0A151B0520F0F5E0EA
:10265000EF0EF11CD8CF4D814D3D08F04CED9801A7
:102660006C818B810E9483090D5F1F4FEDCF2FEF8F
:10267000C21AD20A38E0C316D10409F0AFCF279AA4
:1026800035B13F7725B120684FB7F89488EB94E0D7
:10269000FC015191CF0168E025B9000000C057FF4F
:1026A00035B9550F000000C000C000C035B900C0EA
:1026B0006A9591F7F4E0823E9F0751F74FBF8FE58F
:1026C00094E00197F1F700C000000F900F900F9079
:1026D0000F900F90DF91CF911F910F91FF90EF908E
:1026E000DF90CF90BF90AF909F908F907F906F9032
:1026F0005F900895EF92FF921F93CF93DF93EC01C9
:1027000088EBE82E84E0F82E10E04091DB054D3D8B
:1027100008F04CED8C8197016091DA05810F0E94E1
:1027200083091E5E83E0E80EF11C1C3F71F70E94D6
:10273000BD129A818C8190FF08C08F5F8C83DF91DE
:10274000CF911F91FF90EF9008958150F7CF5F9246
:102750006F927F928F929F92AF92BF92CF92DF92B1
:10276000EF92FF920F931F93CF93DF9300D00F92BE
:10277000CDB7DEB7082F762E142F622E8091D805A4
:1027800080FF40C0E82FE695AE2FB0E0AC5FBB4FB6
:102790009C919093DD058E7F8230F1F44D3D08F0E1
:1027A0004CED9E012F5F3F4F672D802F0E948309C4
:1027B0008091D80580FF14C08B8199812A81E8EB34
:1027C000F4E0218390838283339634E0E23EF30782
:1027D000C1F70E94BD1204C0923039F50091D905AD
:1027E0000093D9057092DA051093DB05662051F04D
:1027F0006091D8057091D9058091DA059091DB053B
:102800000E94DF0D0F900F900F90DF91CF911F91DD
:102810000F91FF90EF90DF90CF90BF90AF909F907F
:102820008F907F906F905F9008959830C9F6E85030
:102830008E2F8170582EE695F0E0E258FD4FA5905E
:10284000B490BB2488EBE82E84E0F82ED12CC12C68
:102850009EE0892E912CC601B4010E94B22E802FD9
:10286000511014C0860F412F1D3D08F04CED97010B
:10287000672D0E948309CA0CDB1C33E0E30EF11CB8
:1028800082EEE81684E0F80631F7A3CF861BEBCF83
:10289000E8EDF5E0438128E0421B08F440E021E048
:1028A000628181810C94A713E8EDF5E0438128E073
:1028B000420F08F44FEF21E0628181810C94A7134D
:1028C000E8EDF5E0628128E0621B08F460E021E0B9
:1028D000438181810C94A713E8EDF5E0628128E043
:1028E000620F08F46FEF21E0438181810C94A713FC
:1028F000E8EDF5E0818121E04381628188500C940C
:10290000A713E8EDF5E0818121E043816281885FD2
:102910000C94A7139091D80590FF3DC09170811140
:1029200029C092609093D805662351F06091D80534
:102930007091D9058091DA059091DB050E94DF0D39
:102940006091D805669570E04BE050E087E092E03A
:102950000E94452F892BA9F01092DE0581E080931B
:10296000D50520E04091DB056091DA058091D9051D
:102970000C94A713823110F09262D4CF880F982B59
:10298000D1CF81E08093DE050E944B079093D30561
:102990008093D205E3CF089521E030E0A90102C081
:1029A000440F551F8A95E2F7CA012091DF0566237F
:1029B00099F0822B8093DF058091DE05811106C09E
:1029C0008091D80560E086950E948A148091D80590
:1029D00080FD05C00C94BD1280958223EBCF089535
:1029E000CF92DF92EF92FF926B017C0161E0C11404
:1029F000D104E104F10409F06C2D617080E00E94C3
:102A0000CC1460E0C114D104E104F10441F0D70119
:102A1000C601B695A79597958795682F617081E057
:102A20000E94CC1460E0C114D104E104F10459F017
:102A3000D701C60122E0B695A795979587952A9567
:102A4000D1F7682F617082E00E94CC14C092960585
:102A5000D0929705E0929805F0929905FF90EF903B
:102A6000DF90CF900C945B0881FB662760F983E0D0
:102A70000C94CC14CF92DF92EF92FF926B017C0109
:102A800060E0C114D104E104F10459F0DC01C60195
:102A900062E0B695A795979587956A95D1F7682FC7
:102AA000617082E00E94CC1460E0C114D104E104A2
:102AB000F10459F0D701C60153E0B695A795979553
:102AC00087955A95D1F7682F617084E00E94CC14E5
:102AD00060E0C114D104E104F10459F0D701C6014A
:102AE00044E0B695A795979587954A95D1F7682FB5
:102AF000617085E00E94CC1460E0C114D104E1044F
:102B0000F10459F0D701C60135E0B695A795979520
:102B100087953A95D1F7682F617086E00E94CC14B2
:102B200060E0C114D104E104F10459F0D701C601F9
:102B300026E0B695A795979587952A95D1F7682FA2
:102B4000617087E00E94CC14C701B601FF90EF903E
:102B5000DF90CF9008950E943A1560931B06709302
:102B60001C0680931D0690931E060C945B080F9321
:102B70001F9360911B0670911C0680911D06909119
:102B80001E068B019C01087111272227332708316B
:102B900011052105310529F460641F910F910C94F2
:102BA000AB156F7BFACF0F931F9341E050E060E0CD
:102BB00070E004C0440F551F661F771F8A95D2F737
:102BC000CB01BA01609570958095909500911B0698
:102BD00010911C0620911D0630911E066023712362
:102BE000822393231F910F910C94AB159091910523
:102BF0008095892380939105282F277071F4282FC1
:102C0000082E000C330B9217130639F08595859525
:102C100085950E94D315109291050895FC0183813A
:102C200094818130974549F480910901843019F4E9
:102C300082E00E94D3151092090108950F931F930B
:102C400041E050E060E070E004C0440F551F661F93
:102C5000771F8A95D2F780911B0690911C06A09150
:102C60001D06B0911E068A019B01082B192B2A2BE9
:102C70003B2BC901B8011F910F910C94AB15FC01BE
:102C80009081913081F48285811113C09093090164
:102C9000238134812130374579F5933091F058F410
:102CA00091110CC00895923071F3933079F398E04C
:102CB000EDCF94E0EBCF9430E1F0089589E20C94ED
:102CC0005E0D80911B0690911C06A0911D06B0918F
:102CD0001E060097A105B10561F022E0B695A79503
:102CE000979587952A95D1F780FF03C082E00C94D1
:102CF000D31582E00C941E1608958091D805869510
:102D0000815009F481E161E00C948A148091D80526
:102D100086958F5F823108F081E061E00C948A141F
:102D20009091D80590FF07C09695981720F09617B8
:102D300010F40C94861661E00C948A14CF92DF9202
:102D4000EF92FF92CF93C82F80913706811102C076
:102D50000E94860E8091360680FF7DC08091B60469
:102D60009091B70408970CF076C0809171008D7F28
:102D70008093710080916F008B7F80936F008091B2
:102D8000340681110E94F80E8C2F8554990BBC01DA
:102D9000072E000C880B990B0E94123120E030E0C6
:102DA00040E451E40E946F309B01AC0160E070E0B0
:102DB00080E090E40E94343220E030E04CED53E4B7
:102DC0000E94C7316B017C0181E08093350610922F
:102DD0008D0410928C0420E030E0A901C701B601F7
:102DE0000E94C2311816ECF48091B6049091B70499
:102DF000FC01EE0FFF1FEE0FFF1FE257FB4FC082DB
:102E0000D182E282F382FC01EE0FFF1FEB58FB4FF1
:102E10002FE030E03183208301969093B7048093B4
:102E2000B60480917100826080937100809190005F
:102E30008068809390008091B6049091B7040297C7
:102E400054F080916F00846080936F0080918000C7
:102E5000806280938000CF91FF90EF90DF90CF90C1
:102E60000895CF92DF92EF92FF920F931F93CF932B
:102E7000DF93C82F80913506882309F48DC0809197
:102E80003706811102C00E94860E8C2F8554990B43
:102E9000BC01072E000C880B990B0E94123120E018
:102EA00030E040E451E40E946F309B01AC0160E0EF
:102EB00070E080E090E40E94343220E030E04CED9D
:102EC00053E40E94C7316B017C010EE814E0C7E0B7
:102ED000D0E0A7019601F801648D758D868D978DE0
:102EE0000E946A30811172C0FE01EE0FFF1FEE0FCB
:102EF000FF1FE257FB4F1082118212821382CC0F08
:102F0000DD1FCB58DB4F1982188284E0EA3AF807BC
:102F100009F04BC08091B6049091B704019797FDDA
:102F20005DC09093B7048093B6048091B6049091ED
:102F3000B70420918A0430918B042817390724F0B4
:102F400010928B0410928A04892B31F580917100C4
:102F50008D7F80937100809190008F73809390009B
:102F600080916F008B7F80936F00809180008F7CB9
:102F70008093800010928604109287041092880437
:102F8000109289041092AE041092AF041092B00413
:102F90001092B10410923506DF91CF911F910F91DD
:102FA000FF90EF90DF90CF90089584819581A68166
:102FB000B78181939193A193B19310821182128270
:102FC00013828A819B81899399939DCF2197045085
:102FD0001109CF3FDC0709F07CCF9CCF1092B704DA
:102FE0001092B604A2CF2F923F924F925F926F92AF
:102FF0007F928F929F92AF92BF92CF92DF92EF9289
:10300000FF920F931F93CF93DF930EE915E027E410
:10301000A22E24E0B22EB801312C212CCC24C39452
:10302000D12CDB016D907D90BD011E921E92E501B9
:1030300089915E01E82FE295EF70F0E091A18F7029
:10304000460101C0880C8A95EAF7892F882981A357
:1030500082A1582C5094852182A3D0EADA95F1F709
:1030600090E080E0381621F19C01295B3B4FE9019B
:103070004880242D22952F7030E0E901E8A04D9181
:103080005C9111979601082E02C0220F331F0A94FB
:10309000E2F7F12CD42DDF7002C0F594E794DA95B5
:1030A000E2F7E0FC3EC0242B352B11963C932E9387
:1030B00001968B309105B1F681A1582251A282A1CF
:1030C000882A82A281E02D913C912615370509F4CA
:1030D00080E0282A3394EBE03E12A3CF222031F186
:1030E00081E0809374040E944B0790937304809353
:1030F000720480917204909173040E943C070697B9
:10310000C8F0ECEBF5E084EB95E0D8012D913D9112
:103110008D01219331938A179B07B9F7109274049C
:1031200009C02095309524233523BFCF80917404A6
:103130008111DFCF809100058823F1F08091FC049C
:103140009091FD04009779F40E944B079093FD0441
:103150008093FC048091FE04282F30E0882329F11D
:10316000C901019726C00E943C0720912F0330918E
:1031700030032817390740F380915D038F3F09F032
:1031800078C0822DDF91CF911F910F91FF90EF902A
:10319000DF90CF90BF90AF909F908F907F906F9077
:1031A0005F904F903F902F9008958091FF04815041
:1031B000990B40910405442389F024513B4FF901B8
:1031C000D08184519B4FDC018C910E9431178091FA
:1031D0000405882319F08D2F0E949E168091FE040D
:1031E00090E001966091FF0470E00E94C62E8093EB
:1031F000FE04C2CFF29EF001F39EF00D1124EF5CAD
:10320000FC4FC288D388C114D10419F498ECC92E9C
:10321000D12CF29E8001F39E100D11240F5C1C4FE7
:10322000F80186818823C9F0858596850E943C0730
:10323000C816D90690F4DF9D60011124D80151967B
:103240008C91811105C0C6018F5C9C4F0E94FD08C6
:10325000C601895C9C4F0E941E09DF5F2D2F30E064
:1032600080915D03082E000C990B8217930714F6CA
:1032700088CFD0E086E1F82EF1CF4F925F926F9227
:103280007F928F929F92AF92BF92CF92DF92EF92F6
:10329000FF920F931F93CF93DF93CDB7DEB7A8971D
:1032A0000FB6F894DEBF0FBECDBF7C01DC011396D4
:1032B0008D919C911497892B49F01C911196DC906B
:1032C000812F8D218F3F11F00C94BA22A8960FB652
:1032D000F894DEBF0FBECDBFDF91CF911F910F914C
:1032E000FF90EF90DF90CF90BF90AF909F908F9026
:1032F0007F906F905F904F9008950E94E70B082F8A
:10330000682F89819A810E94D307E12FF0E0BBE00A
:10331000DB9EE00DF11D112429E7029FE00DF11D58
:103320001124EE0FFF1FE55DFC4F05911491D701AD
:1033300012968C918111BDC00032BCE51B0711F0C3
:103340000C94D522D70112968C91882361F080913C
:103350003606682F6D7F81FF62606093360687E0D6
:1033600090E00E94662FF70182810532FCE51F077D
:1033700009F0EBC0882361F080E090E0ACEDB3E4AD
:1033800080932A0290932B02A0932C02B0932D02DB
:1033900080913606982F9370933009F07DC0D70145
:1033A00012969C91992309F477C098012E513C45BF
:1033B0002230310508F427C29091040591116CC0A8
:1033C00090910305911168C080FF66C060912A0248
:1033D00070912B0280912C0290912D029B01AC01E7
:1033E0000E94FE2F4B015C010E942C2FBC01990F03
:1033F000880B990B0E94123120E03EEF4FEF56E40C
:103400000E946F302DEC3CEC4CE45DE30E94C73130
:1034100020E030E040E85FE30E94FE2FA501940128
:103420000E94C73160931A0270931B0280931C02A2
:1034300090931D020E942C2FBC01990F880B990BB1
:103440000E94123120E03EEF4FEF56E40E946F30B1
:103450002DEC3CEC4CE45DE30E94C73120E030E011
:1034600040E85FE30E94FE2F20912A0230912B0258
:1034700040912C0250912D020E94C731609322028C
:1034800070932302809324029093250263E070E0FE
:1034900082E192E00E94390FF7018281F801E8523F
:1034A000FD45EB30F10508F0AEC1ED52FC4C0C943B
:1034B000DA2E80915D038F3F11F40C94CF2271E3DB
:1034C000C72E73E0D72EB12CA12C99249394809110
:1034D0005D03082E000C990B8A159B050CF42CCF6C
:1034E000F60186818823F9F08185928580179107FE
:1034F00039F480910505909106058017910799F0A0
:10350000D6011F969C921F971C961C930E931B9797
:1035100051968C91811103C0C6010E94FD08C6011D
:1035200006960E941E09BFEFAB1ABB0AE6E1CE0E5B
:10353000D11CCDCF882349F060913606626060933C
:10354000360687E090E00E94662FD70112968C9194
:103550000332BCE51B0711F00C94EE22882309F41A
:1035600017CF29E038E348E95FE360912A027091C0
:103570002B0280912C0290912D020E94C7314B01A9
:103580005C0120E030E84BEB54E40E946A3087FF96
:10359000FFCE80922A0290922B02A0922C02B0922F
:1035A0002D02F6CE882359F061E083E090E00E947E
:1035B000662F61E070E080E090E00E94F01480915E
:1035C0009105877009F482CED70112968C918823D9
:1035D00009F47CCE82E0A8960FB6F894DEBF0FBE49
:1035E000CDBFDF91CF911F910F91FF90EF90DF90B2
:1035F000CF90BF90AF909F908F907F906F905F9093
:103600004F900C94F6158823D1F262E083E090E0AD
:103610000E94662F62E070E080E090E0CECF8823C9
:1036200021F083E00E941E1603C083E00E94D315A0
:103630000E94B715C4CF882311F084E0F3CF84E053
:10364000F5CF882321F086E00E941E16B8CF86E0D1
:103650000E94D315B4CF882379F081E08093EA04E7
:10366000D70113968D919C919093E9048093E8047F
:1036700086EE0E949C08A3CF86EE0E946908809186
:10368000EA048823C1F0F701838194812091E80442
:103690003091E904821B930B883C910560F480EE25
:1036A0000E949C088CE20E949C088CE20E9469089F
:1036B00080EE0E9469081092EA0481CF8111CDCF7B
:1036C00086EE0E9469088091EA048823A1F3D7015D
:1036D00013968D919C912091E8043091E904821B0E
:1036E000930B883C910538F703E213E06AE0862EDD
:1036F000F80124912223F9F2213009F043C03196D8
:103700008491813049F40E5F1F4FF80184910E942B
:103710005E0D0F5F1F4FECCF823039F40E5F1F4FED
:10372000F80184910E949C08F4CF833039F40E5F35
:103730001F4FF80184910E946908EBCF843009F093
:1037400060C00E5F1F4FF801249190E080E0F80107
:1037500031962053330B2A30310548F00197C8F2D7
:10376000AFE9BFE01197F1F700C00000F7CF889EE6
:10377000A001899E500D1124C901840F951F249129
:103780008F01E5CFE22FF0E0ED55FD4F9490822FB1
:1037900086958695869590E0FC01ED56FD4FA490A8
:1037A0002770B12C022E02C0B594A7940A94E2F7B8
:1037B000E1E0AE22BB24FC01ED57FD4FC490D12CBB
:1037C00002C0D594C7942A95E2F7F1E0CF22DD2418
:1037D000A114B10419F081EE0E949C08C114D10417
:1037E00019F086EE0E949C08892D0E945E0DCD285E
:1037F00019F086EE0E946908AB2809F48ACF81EEA1
:103800009ACF8F0186CFD70112968C91882351F0E1
:103810001092EA040D31BCE51B0709F035C70E9480
:10382000B40FCDCE0D31ECE51E0709F041C7409134
:10383000040541119FC09091030591119BC0C801DF
:1038400097558F3F910509F008F45AC1033FFCE5F5
:103850001F0709F40EC208F0F6C1083D3CE5130746
:1038600009F401C2093D8CE5180709F414C2073DAB
:103870009CE5190709F08BC106E221EE41EE67EDE8
:103880007CE5C7010E94710D9ACE0A322CE5120721
:1038900059F4882361F21092EB0464E070E08EE248
:1038A00092E00E94390F8BCE0B323CE5130789F36F
:1038B00006329CE5190731F4882309F4B8CF0E9439
:1038C000AB0F7DCE0732ACE51A0731F4882309F43B
:1038D000AECF0E94C90F73CE0832BCE51B0741F47E
:1038E00090910405882309F4A2CF9111F2CFE7CF7C
:1038F0000C32ECE51E0731F4882309F498CF0E94BE
:10390000A20F5DCE0D32FCE51F0751F4882309F4A8
:103910008ECF1092030568E070E08EE492E0C1CF94
:103920000E322CE5120741F4882309F480CF8091F0
:1039300003058111EECFE3CF09323CE5130709F00F
:1039400076CF882309F473CF0E94C30F20912E03F2
:1039500030E02F5F3F4F2370332720932E0348E240
:10396000429FC001439F900D112465E070E0825793
:103970009D4F97CF882309F44BC0003E110561F499
:103980000E94C30F81E080930205109201051092FE
:1039900000051092FF0413CE023E110571F40E943F
:1039A000C30F80910205882319F081E080930105FF
:1039B000109202051092000502CE033E110591F40B
:1039C00090910105992321F10E94C30F10920205E5
:1039D00081E0809300051092FE041092FD04109285
:1039E000FC04EDCD0235110551F480912F03909127
:1039F00030030A979093300380932F03E0CD013575
:103A0000110531F480912F03909130030A96F2CF83
:103A100090912E0391112AC0D70111969C91119774
:103A20002BE030E0291B3109DC90B0E1DB0EECE04B
:103A30002E9FD00C1124882309F45BC0442319F075
:103A40008D2D0E949E1680910205882351F0809151
:103A5000FF04E82FF0E0E451FB4FD0828F5F8093AA
:103A6000FF040F3F110508F0EACEA9CD913081F493
:103A7000D70111969C9111972BE030E0291B310959
:103A8000D22EDD0CDD0CD20E9C919D5CD90ED3CFD5
:103A9000923071F4F70191812BE030E0291B31095C
:103AA000D080F3E3DF0E97E0299FD00C1124C3CF21
:103AB0005CE0D52E933009F0BECF93E2E1EEF3E067
:103AC000DE01119601900D929A95E1F7D701EC91E4
:103AD000EC0FFD2FF11D11969C912BE030E0291B7E
:103AE0003109D084BCE02B9FD00C1124E9E0DE0E1C
:103AF000A2CF442309F4B5CF8D2D0E943117B1CF49
:103B000020915D03022E000C330B2817390714F4A3
:103B100080935D03D70112962C91129736E1389F5E
:103B20005001399FB00C1124F501EF5CFC4F6F017F
:103B3000208B12969C918681992309F477C0128775
:103B400001878F5F86830E944B07D6011E969C9348
:103B50008E931D978091950517968C93179780915A
:103B6000930590919405892B18968C931897ED9155
:103B7000FC911197309739F054966D917C91C50165
:103B8000895C9C4F09951093060500930505D701A4
:103B900012969C91992309F449C5109207050230A9
:103BA000BCE51B0708F458C50631ECE51E0738F0E4
:103BB00098012A5F3C452930310508F04DC50E9427
:103BC000E80C9093B5058093B4050031FCE51F0720
:103BD00009F422C108F09CC008303CE5130709F441
:103BE000FDC008F071C004309CE5190709F4EEC06F
:103BF00008F057C00230BCE51B0709F4E1C0809112
:103C0000B405826003301C4509F4DDC06091B40541
:103C10001091B50584E090E00E94662F612F81E24B
:103C200090E00E94662F0E94ED0FC9CC882309F412
:103C3000AECF8189882309F4AACFC501895C9C4F46
:103C40000E941E09A4CF053FACE51A07F1F0B8F0B9
:103C5000063FECE51E0709F09ACF07E225EE46EE97
:103C600066EF7CE50ECE07E225EE45EE68ED7CE5DD
:103C700008CE06E221EE40EE63EF7CE502CE07E2DD
:103C800025EE44EE64EF7CE5FCCD06E221EE42EE4B
:103C900065EF7CE5F6CD08E221E045EE69ED7CE5D7
:103CA000F0CD8091B40580610630FCE51F0709F472
:103CB0008AC08091B405886007301C4508F483C031
:103CC0008091B40580627FC00C303CE5130709F495
:103CD0009BC058F40A309CE5190709F489C008F420
:103CE00081C08091B4058E7F6EC08091B405877FBE
:103CF0000E30BCE51B0709F466C08091B4058B7FCC
:103D00000F301C4508F45FC08091B4058F7E5BC006
:103D10000B3FFCE51F0709F45DC030F503313CE5BE
:103D2000130709F481C078F401319CE5190709F4FF
:103D300077C002311C4509F069CF0E94ED0F8091D8
:103D4000B4058F7740C00531BCE51B0709F480C07E
:103D500008F49CC08091B50581600A3F1C4509F0BC
:103D600055CF8093B50552CF0F3F2CE5120709F4CC
:103D700065C0A8F40D3F8CE5180709F449C080918F
:103D8000B5058E7F0E3F1C4560F38091B5058360BD
:103D90008093B50564E070E08EE793E032C00130B7
:103DA000ADE51A0709F47BC008F462C060E0023098
:103DB0001D4509F02BCF8EE090E00E94662F26CFA4
:103DC0008091B40581608093B40520CF8091B405C3
:103DD0008460F9CF8091B5058260C3CF8091B4052E
:103DE0008064F1CF0E94ED0F8091B4058068EBCF25
:103DF0008091B4058C608093B40564E070E08EE936
:103E000093E00E94390F02CF8091B4058D7FDBCF04
:103E10008091B5058D7FA5CF8091B4058F7DD3CFDF
:103E20008091B4058F7BCFCF8091B405837F809341
:103E3000B40562E070E08EE693E0E3CF8091B505D3
:103E40008C7F8093B50562E070E08EE593E0D9CF7A
:103E50008091B40582FB992790F921E0922790FB8D
:103E600082F990FB83F98093B40583FFE2CFC5CF3D
:103E70008091B505982F909591708E7F892B90FB3E
:103E800081F98093B50581FFDECF84CF0E94ED0FCD
:103E90009091B405892F97FB87F9805894CF61E002
:103EA0008ACF85E3CCC3992309F47DC08091940522
:103EB0008272F801E25CFC45E431F10508F06AC069
:103EC000E252FC4C0C94DA2E8091D80580FF1BC086
:103ED0008E7F8093D8056091D8057091D905809127
:103EE000DA059091DB050E94DF0D1092DE053FEFB1
:103EF00080E792E0315080409040E1F700C0000040
:103F00000E94BD125CCB81608093D80561E08695EC
:103F10000E948A1454CB4DE756E166E876E10E9490
:103F200068094DCB46E856E16DE776E1F8CF48E702
:103F300054E161E874E1F3CF41E854E168E774E1EA
:103F4000EECF40E654E16CE674E1E9CF4CE654E193
:103F500060E674E1E4CF48E454E164E574E1DFCF66
:103F600044E554E168E474E1DACF41EF5DE062E0FA
:103F70007EE0D5CF42E05EE061EF7DE0D0CF61E052
:103F800081E0C6CF67E082E00E94901618CB61E125
:103F900088E0FACF0115ACE51A0709F44AC00E3DD6
:103FA0001C4509F486C0F70100811181992309F4A9
:103FB00083C0C8010E94E70BD82E682FC8010E9459
:103FC000D307B8018D2D0E945C0A8C01882ED70181
:103FD0001596AC901597A2944FE0A4221296DC900F
:103FE000D1101092930580919105877099F0DD2092
:103FF00089F0812F807F803421F080E2800F88302B
:1040000048F082E00E94F615809191058770CC24DB
:10401000C3948111C12CB12EB2943FE0B322BBE016
:10402000BB1508F480C0EB2DF0E0EE50FC4C0C9476
:10403000DA2E0E94ED0F0E94C30F0E944B078C01E5
:1040400063E070E08EEB93E00E94390FC8010E949C
:104050003C078A3F910530F10E94F80E81E0809381
:10406000E00080E28093D8001092C9008FE19EE4C6
:104070000197F1F700C0000087E090EBDC0180932E
:10408000380690933906A0933A06B0933B0688E130
:104090009CE00FB6F894A895809360000FBE9093B3
:1040A0006000FFCFEFE9FFE03197F1F700C00000BB
:1040B000CDCF0E94230E83CAC8010E94AB07D82E21
:1040C00080CFE12FEF70AE2E107F19F0A29420EF79
:1040D000A222DD20C9F0AA2069F080E2800F88309A
:1040E00010F081100BC080919405A82AA09294052D
:1040F0000E947E07802F0E949C0815C08091930526
:10410000A82AA0929305F4CF802F0E946908AA20C4
:1041100051F0005E083010F0811045C08A2D0E94D9
:1041200077070E947E07AB2DA850BB0B149720F495
:104130000E94F1080E943415CC20A9F080919105CD
:1041400080FD11C0F70112828595859585950E94A5
:104150001E16C7010E943D19809191058595859590
:1041600085950E94D31585E0F701DE0194960190B4
:104170000D928A95E1F78CA19DA10E94AB079DA1AC
:10418000ECA1F0E02BE0929FE00DF11D112439E746
:10419000839FE00DF11D1124EE0FFF1FE55DFC4F25
:1041A0008591949193C8A09480919305A822A092A0
:1041B0009305B7CFF12FFF709F2E107F103219F0AB
:1041C000929490EF9922882071F021E0821661F19B
:1041D000DD20B9F1AA2071F1F701858180FF8ACF36
:1041E0008F70858327C0DD2091F090919505892DF2
:1041F000892BA11003C00E94250895CF31E0A3129E
:10420000FACF981709F48FCF809395058CCFA11022
:1042100006C00E947107892D0E941E0884CF81E08C
:10422000A81609F480CFF5CFDD2031F092E09A1581
:1042300008F479CF892DDFCFA1E0AA1508F473CF58
:10424000EACFAA2041F3F9E38F1209C02FEF37EE2E
:1042500083E0215030408040E1F700C00000802F13
:104260000E94690860CF812F86958695837061F0E2
:10427000813009F058CFC8019370D11002C090E08E
:1042800080E00E942F084FCFC8019370D11002C068
:1042900090E080E00E94450846CF812F837009F0AE
:1042A00066C0D11040CF802F829586958770880F89
:1042B000880F602F6F70462E512C712C612C082EA8
:1042C00004C0440C551C661C771C0A94D2F740E0CD
:1042D00050E0BA0104FF0FC04FE050E060E070E032
:1042E00004C0440F551F661F771F8A95D2F740956B
:1042F000509560957095812F869586958370823054
:1043000019F1D8F400919605109197052091980520
:1043100030919905813069F044295529662977291A
:10432000CB01BA0160237123822393230E94F014EE
:10433000FACE402A512A622A732ACB01BA01642993
:10434000752986299729F2CF442955296629772985
:104350000091960510919705209198053091990547
:10436000CB01BA016027712782279327DFCF86957B
:10437000DD2011F0812F8170882309F4D4CE802FA5
:10438000829586958770880F880F602F6F70462EF4
:10439000512C712C612C082E04C0440C551C661C39
:1043A000771C0A94D2F740E050E0BA0104FF0FC036
:1043B0004FE050E060E070E004C0440F551F661FFE
:1043C000771F8A95D2F74095509560957095812F0B
:1043D000869586958370823019F1D8F400911B067A
:1043E00010911C0620911D0630911E06813069F047
:1043F0004429552966297729CB01BA016023712305
:10440000822393230E94AB158ECE402A512A622A22
:10441000732ACB01BA016429752986299729F2CF1D
:10442000442955296629772900911B0610911C06FD
:1044300020911D0630911E06CB01BA01602771271D
:1044400082279327DFCF1F70DD2029F0812F0E9464
:104450001E16802FD0CE802F0E941E08812F0E9412
:10446000D31561CE802F92EF891609F450C09815AC
:1044700078F0A0EF8A1619F1B1EF8B1609F43FC05E
:10448000DD2009F467C0A11035CE812F8F713CC0AB
:10449000E3EF8E1609F440C0F4EF8F12F1CFDD2068
:1044A00009F44DC01F71812F0E941E16A8E01A9FAB
:1044B000C0011124836080939105812F25C0DD20E8
:1044C000C9F021E02A1508F42ECE1F7161E070E0DA
:1044D00080E090E004C0660F771F881F991F1A952F
:1044E000D2F700911B0610911C0620911D063091F9
:1044F0001E06A4CF32E03A1508F415CEE6CF812F80
:104500008F71DD2009F4ABCF0E941E160CCE812FD7
:104510008F71DD20C9F3A3CF60E070E0CB01DD2017
:1045200009F470CF1F7161E070E080E090E004C09A
:10453000660F771F881F991F1A95D2F763CF81E006
:104540000E94F615B1E0BA1508F0EDCD82E00E94A8
:10455000F615E9CDAA2059F0893309F080CEEFEFA6
:10456000F7EE23E0E150F0402040E1F776CE812FD6
:104570008F7175CF85E0F701DE01119601900D92E4
:104580008A95E1F7D70112962C9189819A812111A0
:104590000C947D190E94AB07082F0C9485190032EA
:1045A0002CE5120711F40C94A719F701828101324E
:1045B000FCE51F0711F40C949A1A02322CE512073D
:1045C00011F00C94B319882349F0609136066D7F81
:1045D0006093360687E090E00E94662FF7018281A3
:1045E0000432FCE51F0711F00C94C819882311F45C
:1045F0000C94C81929E038E348E95FE360912A0286
:1046000070912B0280912C0290912D020E946F30AC
:104610004B015C0120E030E042E852E40E94C231EC
:10462000181614F00C94C8190C94C91A06311C45BC
:1046300009F0B9CC80910805811133CC89E2ECE610
:10464000F4E09191891303C0DF0111971C9224E0DB
:10465000E237F207B1F714C006318CE5180709F00C
:1046600022CC809194058A7A91E009F490E09093AD
:10467000080569E2811165E38AE694E00E94570724
:104680000E947E070C94DF1A0E319CE5190761F039
:104690000F31FCE51F0709F0F8C8882309F4C7C8E3
:1046A0008091360680FFBBC80E94D30F0C94DF1A9E
:1046B0000E31ACE51A0761F7BAC81F93CF93DF93A9
:1046C00080910E05807FA9F480910B05882389F0E5
:1046D00080914005D0910F056091090570910A0500
:1046E000A0910C05B0910D05C62FC72316E0D81375
:1046F00004C0DF91CF911F91089590E0109711F0C1
:10470000CF3F19F401968770F2CF189F9001199F3F
:10471000300D1124F901E05FFA4F41814713F2CFC8
:1047200040814613EFCF42814111ECCF4381548148
:104730004A1B5B0B483C510528F780910E058F7092
:10474000806180930E05F901EB5EFA4F80818F70D6
:104750008061808389E095E00E943D19DF91CF91CF
:104760001F910C94FF07AF92BF92CF92DF92EF920E
:10477000FF920F931F93CF93DF93CDB7DEB761976F
:104780000FB6F894DEBF0FBECDBF8C0185E0F801F7
:10479000DE011D9601900D928A95E1F7F801808166
:1047A0009181E28029E0A22E25E0B22E60910C05D5
:1047B00070910D056115710509F43EC1309109052F
:1047C00040910A05232F24232F3F09F435C1C380CC
:1047D000D480F0900B05F601E61BF70BFF2009F4DF
:1047E000FBC020910E05522F507FE83CF10508F0E8
:1047F000BBC0511178C0FE2C491321C038131FC013
:10480000E1101DC02F70206120930E05C5010E948C
:104810003D1980910E05F80185838F2D61960FB6A5
:10482000F894DEBF0FBECDBFDF91CF911F910F91E6
:10483000FF90EF90DF90CF90BF90AF900895CD287C
:1048400029F0282F29232F3F09F014C120E0F22F4F
:10485000F170DF2E20FF3DC02091400540910F05F3
:1048600056E0241315C08D879E878D859E850E94F6
:10487000290C292F22952F702230F8F0243020F5B2
:104880009F70F9F0F8019581907FD9F4D12C1FC069
:1048900030E0529FF001539FF00D1124E05FFA4F7A
:1048A0006181961306C06081861303C06281E6129F
:1048B00010C02F5F3F4F2770D4CF9F7011F0882317
:1048C00029F3805E883010F3C8010E943D19FD2C49
:1048D000A4CFEE2009F4A1CF80910E0581608093D2
:1048E0000E05F12C9ACF491312C0381310C0E110F5
:1048F0000EC0F8012583C8010E943D1986E0F80129
:10490000A9E0B5E001900D928A95E1F786CF8D87F9
:104910009E878D859E850E94330C882309F1EE20A9
:10492000F9F080910E05803270F0209109053091E8
:104930000A0538872F831986DB86CA868C87CE01C5
:1049400007960E943D1986E0F801A9E0B5E00190C4
:104950000D928A95E1F70E945D23FF24F3945DCFC9
:10496000C8010E943D19F9CF51110AC089E095E0B4
:104970000E943D1986E0F50111928A95E9F7B1CFC1
:1049800049130FC038130DC0E1100BC0F801258387
:10499000C8010E943D1986E0F50111928A95E9F758
:1049A0003CCF8D879E878D859E850E94330C882302
:1049B000B9F2EE20A9F280910E05803220F220910A
:1049C000090530910A053A8329831B82DD82CC8256
:1049D0008E83CE010196B5CFE83CF105E0F6FE2CC2
:1049E000EE2009F4BDCF491316C0381314C08091CE
:1049F0000E0580FD83CF982F907F09F47FCFF801BB
:104A00008583903F09F477CF982F907F905F8F70C8
:104A1000892B858370CF8D879E878D859E850E948B
:104A2000330C811190CF80910E05816080930E052B
:104A3000C8010E943D19F1CEEE2009F491CF8D8777
:104A40009E878D859E850E94330CF82E882309F45D
:104A500087CF86E0F801A9E0B5E001900D928A9534
:104A6000E1F78091090590910A050E94290C0E94A6
:104A70005D23D3CE21E02E25EACE1F93CF93DF9383
:104A8000CDB7DEB767970FB6F894DEBF0FBECDBFC8
:104A90004B8B5C8B6D8B7E8B8F8B1A8A198A85E092
:104AA000FE017396DE011D9601900D928A95E1F745
:104AB00086E0FE013D96DE01179601900D928A95E3
:104AC000E1F7CE0107960E94B323882389F016E010
:104AD0008091400590910F05891349C067960FB6E4
:104AE000F894DEBF0FBECDBFDF91CF911F91089527
:104AF00086E0FE013796DE01119601900D928A95AF
:104B0000E1F78A859B85892B11F38F81988589230D
:104B10008F3FE9F220910F0530E0C90101968770BF
:104B20009927409140054817190671F40E94ED0F2E
:104B300010920F051092400586E0E9E0F5E0DF01F4
:104B40001D928A95E9F7C3CF96E0929FD001939F7B
:104B5000B00D1124A05FBA4FFE01319601900D9265
:104B60009A95E1F780930F050E94FF07B0CF819FD0
:104B7000C0011124805F9A4F0E94B323882309F457
:104B8000ADCF8091400590E0019687709927809382
:104B900040059ECF1F920F920FB60F9211242F93B4
:104BA0003F934F935F936F937F938F939F93AF93B5
:104BB000BF93CF93DF93EF93FF93D091E900DF7022
:104BC0008091EC00C82FC17080FDC0E81092E90010
:104BD0008091F000877F8093F00078940E94F80F16
:104BE0001092E9008091F00088608093F000CD2B56
:104BF000CF70C093E900FF91EF91DF91CF91BF910A
:104C0000AF919F918F917F916F915F914F913F9164
:104C10002F910F900FBE0F901F9018951F920F921B
:104C20000FB60F9211242F933F934F935F936F937F
:104C30007F938F939F93AF93BF93EF93FF93809155
:104C4000E10082FF09C08091E20082FF05C08091EF
:104C5000E1008B7F8093E1008091DA0080FF24C027
:104C60008091D80080FF20C08091DA008E7F8093F1
:104C7000DA008091D90080FFA1C080E189BD82E186
:104C800089BD09B400FEFDCF81E0809311068091BB
:104C90000406811109C00E94AD050E94780680912A
:104CA000E20084608093E2008091E10080FF17C001
:104CB0008091E20080FF13C08091E2008E7F80939C
:104CC000E2008091E20080618093E2008091D80050
:104CD00080628093D80019BC85E080931106809192
:104CE000E10084FF2FC08091E20084FF2BC080E1AF
:104CF00089BD82E189BD89B5982F917080FFFBCF76
:104D00008091D8008F7D8093D8008091E1008F7EC4
:104D10008093E1008091E2008F7E8093E200809199
:104D2000E20081608093E20080911206882309F4FA
:104D30004BC084E0809311060E94ED0F0E94F108A1
:104D40000E9434158091E10083FF27C08091E2002A
:104D500083FF23C08091E100877F8093E10082E0A0
:104D600080931106109212068091E1008E7F80934D
:104D7000E1008091E2008E7F8093E2008091E2006A
:104D800080618093E20042E060E080E00E9446069D
:104D90008091F00088608093F000FF91EF91BF91C7
:104DA000AF919F918F917F916F915F914F913F91C3
:104DB0002F910F900FBE0F901F90189519BC109255
:104DC00011061092040670CF8091E30087FD93E0F6
:104DD00090931106B1CFCDB7DEB72C970FB6F894EC
:104DE000DEBF0FBECDBF84B7877F84BF0FB6F894F8
:104DF000A8958091600088618093600010926000A7
:104E00000FBE80E890E00FB6F89480936100909315
:104E100061000FBE85B7806885BF85B7806885BF94
:104E20000E94AD050E9478068091E2008460809324
:104E3000E2007894809111068823A1F01091E90096
:104E40001F709091EC00892F817090FD80E8182BE5
:104E50001092E9008091E80083FD0E94F80F1F7016
:104E60001093E90082E084BD93E095BD9AEF97BD71
:104E700080936E00A7E4B4E042E554E061E070E0A6
:104E80008D91E82FE295EF70F0E011A18F709B01FA
:104E900001C0220F8A95EAF7922F9095912391A352
:104EA00082A1822B82A34A175B0751F7A7E4B4E0E3
:104EB00042E554E061E070E08D91E82FE295EF70FB
:104EC000F0E011A18F709B0101C0220F8A95EAF7D3
:104ED000922F9095912391A382A1822B82A34A17AE
:104EE0005B0751F7EEE9F5E084EB95E0ACEBB5E05C
:104EF000119211921D921D928E179F07C9F70E9461
:104F0000D40D811102C00E94230E0E94860E0E94C1
:104F1000D40D811102C00E94230E82E090E00E9415
:104F2000522F8093ED050E94E80C9093B505809375
:104F3000B40583E090E00E94522F682F70E090E06B
:104F400080E00E94F01460911B0670911C06809115
:104F50001D0690911E060E943A158091B60581119A
:104F600033C00E94D40D811104C00E94230E0E9400
:104F7000130E88E090E00E945A2F6093D80570933A
:104F8000D9058093DA059093DB056E7F71F40E945A
:104F9000130E88E090E00E945A2F6093D80570931A
:104FA000D9058093DA059093DB050E946D09109274
:104FB000DE058091D80580FF04C060E086950E94E0
:104FC0008A1481E08093B6056AE674E0E8EE8E2EDE
:104FD000E5E09E2E22E634E0E6E6F4E041E050E033
:104FE0001191812F82958F7090E0DC019196FC9059
:104FF00091971F70E12E6A0101C0CC0C1A95EAF757
:105000000C2D00950F2191960C93919792961C91DF
:1050100092971C2992961C93D901FD909D010F2D0A
:1050200002950F7010E0D8019196BC90BF2DBF7013
:10503000FB2E6A0101C0CC0CBA95EAF7DC2CD094A7
:10504000DB20D8019196DC9291979296DC90929712
:10505000DC289296DC92DC0190968C9190E002C064
:1050600095958795EA94E2F78170D80190960C9116
:1050700010E002C015950795FA94E2F790E000FD64
:1050800092E0892BD4018D934D016E177F0709F0B3
:10509000A7CF89EC99E09093B8058093B70586ED8A
:1050A00093E09093BA058093B90522242A9452ED97
:1050B000452E55E0552E68E1662E712C8091110623
:1050C000853009F418C10E94F317EEEEF5E0ACEB61
:1050D000B5E010E000E0702F8D919D91219131910C
:1050E0002817390709F447C12827392760E0EE243B
:1050F000E394F12CA70142235323452B09F435C136
:1051000069837A8397012823392391E0232B09F4BB
:1051100090E09B830E944B078160782F9D838C8356
:1051200049815A816B818D810E943D25000F111F9D
:10513000F801E251FA4F80819181E826F926F18247
:10514000E0828091DE05882309F447C08091DD0567
:10515000E091D805E695E81BE093D40500ED17E053
:1051600047E3E42E47E0F42E823059F4E695F0E070
:10517000E552F64FE4910E2F10E05AE7E52E53E189
:10518000F52E8091D505882389F01092D5050E94CF
:105190004B07980120953095820F931F9093D3056C
:1051A0008093D2051092D7051092D6058091D20532
:1051B0009091D3050E943C078017910770F0E09111
:1051C000D205F091D3050E0F1F1F1093D305009346
:1051D000D20582ED95E0F701099504EE15E080EE29
:1051E000E82E85E0F82E92E6A92E94E0B92E26E668
:1051F000822E24E0922E38EEC32E35E0D32E312CB1
:10520000D601ED916D01EE0FEE0FD4012D914D0100
:10521000A22FA295AF70B0E090968C9190E02F7085
:1052200002C0959587952A95E2F781709927D50157
:105230004D915D01A42FA295AF70B0E090962C9196
:1052400030E04F7002C0359527954A95E2F7A901E5
:105250004170552720FF02C042E050E0842BE82B2C
:10526000D6011197EC931C870B87EF70F0E0EE5A94
:10527000FB4F8081F8019081890F8083843054F046
:10528000D7018C918F5F8C93B1E0B31588F089EAD8
:105290000E945E0DF80180818D3F54F4D7018C91FE
:1052A00081508C93B1E0B31518F08AEA0E945E0D2C
:1052B0000F5F1F4FF8013197AB85BC858C918378C8
:1052C00087FF03C081508C6F8F5F80833394BFEF63
:1052D000EB1AFB0AE4E03E1293CF0E94F108909192
:1052E000EC05891709F4EACE0E94F1088093EC05D9
:1052F0000E943415E3CE80911106843029F110927A
:10530000BB05B0E40FB6F894A895609260000FBE9C
:10531000B093600080E00E94341583B7817F846081
:1053200083BF83B7816083BF7894889583B78E7F6E
:1053300083BF0FB6F894A895809160008861809330
:105340006000109260000FBE80911006882309F45F
:10535000B5CE0E94F317ECEBF5E081919191892B8A
:1053600001F54E165F06C9F7A9CE6F5FEE0CFF1C64
:105370006B3009F0BFCE0F5F1F4F0B30110509F0E6
:10538000AACE2E822F8218860E944B078160782F2A
:105390009A8789874E815F8168858A850E943D252D
:1053A000D0CEF0E1F9BD82E189BD09B400FEFDCFA8
:1053B0008091D8008F7D8093D8008091E00082603A
:1053C0008093E0008091E00081FDFCCF77CE78945F
:1053D0001F921FB61F9211248F939F93AF93BF9379
:1053E00080919A0590919B05A0919C05B0919D0597
:1053F0000196A11DB11D80939A0590939B05A093E2
:105400009C05B0939D05BF91AF919F918F911F9087
:105410001FBE1F9018951F921FB61F9211248F93C5
:105420009F93AF93BF938091BB05811113C080916F
:105430009A0590919B05A0919C05B0919D05419680
:10544000A11DB11D80939A0590939B05A0939C0587
:10545000B0939D05BF91AF919F918F911F901FBEFB
:105460001F90189518951F920F920FB60F92112446
:105470004F925F926F927F928F929F92AF92BF9264
:10548000CF92DF92EF92FF922F933F934F935F93D0
:105490006F937F938F939F93AF93BF93EF93FF93FC
:1054A00080913506882309F4DFC1E090B604F090BE
:1054B000B7041E141F040CF0D7C121E0E216F1045A
:1054C00009F4F5C020E030E0A9016091B2047091C8
:1054D000B3048091B4049091B5040E946A308111A4
:1054E0000BC3F701EE0FFF1FEE0FFF1FEA57FB4F35
:1054F00080809180A280B38080912601882309F466
:10550000F2C2C090AE04D090AF04E090B004F0902E
:10551000B10420E030E0A901C701B6010E946A3061
:10552000882309F4E0C2A5019401C701B6010E94D5
:105530006A3087FFA1C2A501940160E070E08CEDA4
:1055400093EC0E946F3020E030E040E451E40E9490
:105550006F3020E030E040E05FE30E94C7319B0104
:10556000AC0160E070E080E090E40E943432A5017C
:1055700094010E94C7319B01AC01C701B6010E9492
:105580006A3087FF79C2A701960160E070E08CED78
:1055900093E40E946F3020E030E040E451E40E9448
:1055A0006F3020E030E040E05FE30E94C7319B01B4
:1055B000AC0160E070E080E090E40E9434329B0136
:1055C000AC01C701B6010E94C7316093AE0470936D
:1055D000AF048093B0049093B104C090AE04D09017
:1055E000AF04E090B004F090B10480918C049091ED
:1055F0008D048F3F980729F0019690938D04809336
:105600008C048091EB04811116C01092260180E079
:1056100090E0A0E0BFE38093220190932301A09348
:105620002401B09325011092B2041092B304109299
:10563000B4041092B50420E034E244EF51E4C70111
:10564000B6010E946A3087FF08C0B6EFCB2EB8E2E1
:10565000DB2EB4EFEB2EB1E4FB2E20E030E040E097
:1056600051E4C701B6010E94C7319B01AC0160E063
:1056700074E284E79BE40E946F306B017C010E941E
:10568000E130709387006093860020912201309171
:1056900023014091240150912501C701B6010E94C8
:1056A000C7310E94E13070938B0060938A00409074
:1056B000B2045090B3046090B4047090B504E090CC
:1056C000B604F090B70420E030E0A901C301B201B4
:1056D0000E94C23118160CF013C282E0E816F104E1
:1056E0000CF452C080918A0490918B04B7010E94FF
:1056F000C62E6C0190938B0480938A0480902B06B5
:1057000090902C06A0902D06B0902E0620E030E060
:1057100040E85FE3C501B4010E94FE2F60932B06B1
:1057200070932C0680932D0690932E06F601EE0FB3
:10573000FF1FEE0FFF1FE257FB4FA3019201608195
:105740007181828193810E946F3020E030E040E0DF
:105750005EE30E94C7319B01AC01C501B4010E9408
:10576000C23118168CF4C6010196B7010E94C62EEC
:1057700090938B0480938A0410922B0610922C062F
:1057800010922D0610922E06E0918A04F0918B045F
:10579000EE0FFF1FEE0FFF1FE257FB4FC080D180BF
:1057A000E280F38080918C0490918D048F3F980764
:1057B00029F0019690938D0480938C048091EB04E2
:1057C000811116C01092260180E090E0A0E0BFE3B6
:1057D0008093220190932301A0932401B09325018B
:1057E0001092B2041092B3041092B4041092B50453
:1057F00020E034E244EF51E4C701B6010E946A3070
:1058000087FF08C056EFC52E58E2D52E54EFE52E7F
:1058100051E4F52E20E030E040E051E4C701B6014C
:105820000E94C7319B01AC0160E074E284E79BE415
:105830000E946F306B017C010E94E13070939700F1
:105840006093960020912201309123014091240120
:1058500050912501C701B6010E94C7310E94E13075
:10586000709399006093980080913406882309F41E
:105870001DC2C0902506D0902606E0902706F09025
:10588000280620E030E0A901C701B6010E94C2311C
:1058900018160CF0FAC180918C0490918D048F3F02
:1058A000980729F0019690938D0480938C04809141
:1058B000EB04811116C01092260180E090E0A0E078
:1058C000BFE38093220190932301A0932401B0931E
:1058D00025011092B2041092B3041092B4041092F5
:1058E000B50420E030E040E051E4C701B6010E9479
:1058F000C7319B01AC0160E074E284E79BE40E9445
:105900006F306B017C010E94E130709397006093CF
:105910009600209122013091230140912401509161
:105920002501C701B6010E94C7310E94E130709382
:1059300099006093980060911F06709120066F5F38
:105940007F4F7093200660931F06E0909600F090C2
:10595000970090E080E00E9410314B015C01409084
:105960002106509022066090230670902406EF28AE
:1059700009F494C180918504811190C160919600D1
:105980007091970090E080E00E9410319B01AC0183
:10599000C301B2010E946F3020E03FEF4FE757E4B0
:1059A0000E94C73120E030E040E85FE30E94FD2F15
:1059B000A50194010E946A3018160CF477C18091F9
:1059C000290690912A06019690932A06809329062B
:1059D00020913006309131068217930748F080916C
:1059E0002F06882309F46BC110922A06109229060B
:1059F000E0913206F09133068091290690912A06B3
:105A00009C0143E0220F331F4A95E1F7E20FF31F99
:105A1000208131814281538160918504611181C16E
:105A200061E060938504019790932A06809329068C
:105A30003897C080D180E280F380C701B6010E9410
:105A40006A30811165C110922506109226061092C7
:105A500027061092280680E090E0A0E8BFE380933C
:105A6000210690932206A0932306B0932406109259
:105A7000200610921F061AC1A5019401C701B601A4
:105A80000E94C23118167CF5A501940160E070E017
:105A90008CED93E40E946F3020E030E040E451E46C
:105AA0000E946F3020E030E040E05FE30E94C731A9
:105AB0009B01AC0160E070E080E090E40E94343231
:105AC000A50194010E94C7319B01AC01C701B60139
:105AD0000E94C23118163CF4A701960160E070E004
