:100000000C946C050C94B3050C94B3050C94B305D7
:100010000C94B3050C94B3050C94B3050C94B30580
:100020000C94B3050C94B3050C9438250C94F4246B
:100030000C9452290C94B3050C94B3050C94B3059D
:100040000C94B3050C94B3050C94B3050C94792966
:100050000C94B3050C942E290C94B3050C94B305A1
:100060000C94B3050C94B3050C94B3050C94B30530
:100070000C94B3050C94B3050C94B3050C94B30520
:100080000C947A290C94B3050C94B3050C94B30525
:100090000C94B3050C94B3050C94B3050C94B30500
:1000A0000C94B3050C94B3050C94B3050763423666
:1000B000B79BD8A71A39685618AEBAAB558C1D3CF9
:1000C000B7CC5763BD6DEDFD753EF6177231BF00BD
:1000D0000000803F08000000BE922449123EABAAF7
:1000E000AA2ABECDCCCC4C3E00000080BEABAAAA52
:1000F000AA3E00000000BF000000803F000000009A
:1001000000084178D3BB4387D1133D190E3CC3BDD2
:100110004282AD2B3E68EC8276BED98FE1A93E4C7F
:1001200080EFFFBE01C4FF7F3F0000000000000021
:100130000000000000000000000000002D002E0064
:100140003100350000000000000000000000000049
:10015000000013002A002F00300000000000000003
:100160000000000000000000330028000000340000
:1001700000000000000000000000000000003871D6
:10018000E50052002B5D00000000000000000000B0
:10019000000000009000500051004F0000000000DF
:1001A00000000000000000002300240025002600BD
:1001B000270001571E001F00200021002200000020
:1001C0001C0018000C0012002B00000014001A0084
:1001D00008001500170000000D000E000F00E000E1
:1001E000000004001600070009000A000B000000D0
:1001F00036003700005700001D001B0006001900E4
:1002000005001100100000000000A8009100E200AD
:10021000E30000002C6200002C44E700E600000030
:1002200000000000000000000000000000000100CD
:1002300001000100010000000000000000000000BB
:1002400000000000010001000100010000000000AA
:10025000000000000000000000000100010000009C
:10026000010000000000000000000000000000008D
:10027000010001000100010000000000000000007A
:100280000000000000003504010001000100000032
:10029000000000000000000000000100010001005B
:1002A0000100010001000100010001000100010046
:1002B0000000010001000100010001000000010038
:1002C0000100010001000100000001000100010027
:1002D0000100000001000100010001000100010017
:1002E0000000010001000100000001000100010008
:1002F00001000100010001000000000001003504C0
:10030000E300E2000000010000000100E6006500DB
:1003100000000000000000000000000000000000DD
:1003200001000100010001000000000000000000C9
:100330000000000000005700010001000100000063
:1003400000000000000000000000000000000100AC
:10035000000001000000000000000000000000009C
:100360000000580001000100010000000000000032
:100370000000000000000000010001000100010079
:10038000000000000000000000000000010000006C
:10039000540054005500010001000100010001005B
:1003A0000100000001005F0060006100010000002A
:1003B0000100010001000100010000005C005D007F
:1003C0005E000100000001000100010001000100C9
:1003D000010000005A005B00010000000100010064
:1003E00001000100010001005900000000000100AF
:1003F0000100010001000000010000002C45620026
:100400006300000000000000000000000000000089
:1004100000004400450049004C00000000000000BE
:1004200000000000000000004A0052004D00A9003A
:10043000000000000000000000000000000050006C
:100440004F000000AA0000000000000000000000B3
:1004500000000000510001004B00010000000000FE
:100460000000000000000000000001004A004E00F3
:100470004D000000000000000000000000003F00F0
:10048000400041004200430048003A003B003C006D
:100490003D003E0000000100010001000100460097
:1004A0000000010001000100010001000000010046
:1004B00001004B00010000000100010001000100EB
:1004C00001000100000001004E00010000000100D9
:1004D0000100010001000100010001000000000016
:1004E00001000100010001000000010000002E5D7C
:1004F00001000100000000000000000000000000FA
:10050000000000004400450049004C0000000000CD
:10051000000000000000000000004B004C00010043
:1005200001000000000000000000000000000000CA
:100530002D00490000000100000000000000000044
:10054000000000000000BB0001004B002E5D000019
:1005500000000000000000000000000001004A0050
:100560004E004D00000000000000000000000000F0
:100570003F00400041004200430048003A003B0079
:100580003C003D003E0000000100010001000100B0
:100590004600000001000100080101000100000008
:1005A000510052004F0001000000040101004C0006
:1005B0004F002900500000000100BC0001000000B5
:1005C000010001000100010050004E002800000061
:1005D0000000010001000100010000000100000016
:1005E0000100010001000000000000000000000008
:1005F0000000000000002D002E003100350000003A
:1006000000000000000000000000000013002A00AD
:100610002F0030000000000000000000000000007B
:10062000000033002800000034000000000000003B
:1006300000000000000000003871E50052002E5D4F
:1006400000000000000000000000000000000100A9
:100650000100010001000000000000000000000097
:1006600000002300240025002600270029001E008A
:100670001F0020002100220000001C0018000C00B8
:1006800012002B00000014001A00080015001700CB
:1006900000000D000E000F00E00000000400160036
:1006A000070009000A000B00000036003700005761
:1006B00000001D001B0006001900050011001000BD
:1006C0000000000001000100010001000000010025
:1006D0000000010001000100000000000000000017
:1006E0000000000000000000010001000100010006
:1006F0000000000000000000000000000000C45CDA
:1007000001000100010000000000000000000000E6
:1007100000000000C35C01000000010000000000B8
:1007200000000000000000000000010001000100C6
:1007300001000000000000000000000000000000B8
:1007400001000100010001000000000000000000A5
:100750000000000001000100010001000100010093
:10076000C55CC75CC95C010001000000C55CC75CDA
:10077000C95C0100010000000100295D0100005C6E
:1007800001000000C85CCA5CC25C010000001F5C84
:10079000205C285C295C0100C65C000001000100AF
:1007A00001000000255C245C235C01000100025371
:1007B000285D0000000001000100010001000000B0
:1007C0000100000001000100010000000001010122
:1007D00001010101010102020202020202020203FE
:1007E00003030303030303040404040404040505CE
:1007F0000505050606060606070707070708080891
:1008000008090909090A0A0A0B0B0B0C0C0C0D0D3F
:100810000D0E0E0E0F0F0F101011111112121313D7
:100820001414151516161717181819191A1A1B1B50
:100830001C1D1D1E1E1F20202122222324242526AC
:1008400026272829292A2B2C2D2D2E2F30313232E4
:10085000333435363738393A3B3C3D3E3F404142F0
:10086000434445464748494A4C4D4E4F50515354D6
:10087000555658595A5B5D5E5F616264656668698A
:100880006B6C6D6F7072737577787A7B7D7E80820A
:10089000838587888A8C8E8F91939596989A9C9E53
:1008A000A0A2A3A5A7A9ABADAFB1B3B5B7BABCBE63
:1008B000C0C2C4C6C9CBCDCFD1D4D6D8DBDDDFE230
:1008C000E4E7E9EBEEF0F3F5F8FAFDFFFFAA7F5558
:1008D00040000102030D0C0405060708090A0B225B
:1008E00023252628292A2C2D2F3032333536383A25
:1008F0003B3D3E4042434547494A4C4E505153557B
:1009000057595A5C5E6062646668696B6D6F71739B
:100910007577797B7D7F81838587898A8C8E90929C
:100920009496989A9C9E9FA1A3A5A7A8AAACAEAFA7
:10093000B1B3B4B6B8B9BBBCBEBFC1C2C3C5C6C7EC
:10094000C9CACBCCCDCED0D1D2D2D3D4D5D6D7D79D
:10095000D8D9D9DADADBDBDBDCDCDCDCDCDDDDDDE5
:10096000DDDCDCDCDCDCDBDBDBDADAD9D9D8D7D7E1
:10097000D6D5D4D3D2D2D1D0CECDCCCBCAC9C7C68E
:10098000C5C3C2C1BFBEBCBBB9B8B6B4B3B1AFAECC
:10099000ACAAA8A7A5A3A19F9E9C9A989694929072
:1009A0008E8C8A89878583817F7D7B79777573714A
:1009B0006F6D6B6968666462605E5C5A5957555327
:1009C00051504E4C4A4947454342403E3D3B3A38E0
:1009D00036353332302F2D2C2A2928262523227F05
:1009E0003F1F643214643214783C1E1E140A05053D
:1009F000010980A101850319012AB700150126B755
:100A000000950175108100C0050C0901A101850444
:100A100019012AA002150126A00295017510810076
:100A2000C005010906A101050719E029E715002500
:100A30000195087501810295017508810105071965
:100A40000029FF150026FF0095067508810005089E
:100A5000190129059505750191029501750391010B
:100A6000C009023B00020100A0FA090400000103D2
:100A70000101000921110100012240000705810345
:100A800008000A0904010001030000000921110106
:100A900000012232000705820320000A1201100122
:100AA00000000008EDFE5A173100010203010403A3
:100AB000300000000C034A006F006E0065007300F8
:100AC000000010036A00700073006B0065006E0088
:100AD0006E0000000403090411241FBECFEFDAE00A
:100AE000DEBFCDBF04B603FE27C08091A006909163
:100AF000A106A091A206B091A3068730904BA74013
:100B0000B04BD1F41092A0061092A1061092A2064A
:100B10001092A30614BE84B7877F84BF0FB6F894E3
:100B2000A8958091600088618093600010926000B9
:100B30000FBEE0E0F8E3099514E0A0E0B1E0E8E1E1
:100B4000F5E602C005900D92A63DB107D9F726E063
:100B5000A6EDB4E001C01D92A03AB207E1F70E94F1
:100B600013260C9452320C940000E8EDF0E08081E2
:100B70008E7F80831092E2001092DA001092E100E2
:100B8000A0EEB0E08C9181608C9380818F77808320
:100B900019BCA7EDB0E08C918E7F8C9380818F7E05
:100BA000808310926C0608952091E4003091E50056
:100BB00095E6A9012091EC00822F817020FF06C0EC
:100BC0008091E80080FF06C080E008952091E80051
:100BD00022FD1AC080917906882389F0853089F03A
:100BE0008091EB0085FD0FC02091E4003091E5007D
:100BF00042175307F9F29150E1F684E0089582E03C
:100C0000089583E0089581E00895EF92FF920F9395
:100C10001F93CF937C018B010E94D405C82F8111B3
:100C200017C08091E80085FD0BC08091E8008E77A9
:100C30008093E8000E94D405882399F3C82F08C048
:100C4000F70181917F018093F1000150110949F76B
:100C50008C2FCF911F910F91FF90EF90089580916D
:100C60007B0687FF13C08091E80082FF06C0809159
:100C7000E8008B778093E80004C0809179068111A9
:100C8000F2CF0895809179068823D9F38091E80006
:100C900080FFF8CF8091E8008E77ECCF982F90936B
:100CA000E900242F762F50E0891731F07091EC0085
:100CB0002091ED005091F00021FD07C09F5F97301B
:100CC00071F78093E90081E008953091EB003E7F59
:100CD0003093EB003091ED003D7F3093ED0030918B
:100CE000EB0031603093EB007093EC002093ED004B
:100CF0005093F0002091EE0027FDE0CF80E00895B2
:100D0000CF92DF92EF92FF920F931F93CF93DF93D7
:100D1000C8EDD0E088818F7E8883E7EDF0E08081A8
:100D20008160808384E082BF81E080936C0688814B
:100D30008E7F888302EE10E0F80110821092DA00B4
:100D400081EEC82ED12CF601108288818F7788839E
:100D500088818068888388818F7D888319BC109200
:100D6000790610927A06109278061092770690EE25
:100D7000E92EF12CF70180818B7F8083888181604F
:100D8000888342E060E080E00E944E06F6018081A8
:100D90008E7F8083F801808181608083808188607C
:100DA0008083F70180818E7F808388818061888342
:100DB000DF91CF911F910F91FF90EF90DF90CF9037
:100DC0000895FC018091810690918206861797070D
:100DD000A0F06115710529F49091E8009E77909339
:100DE000E80090E06115710551F4911108C08091FF
:100DF000E80082FF34C080E00895BC01F2CF80910A
:100E000079068823C1F18530C1F18091E80083FD26
:100E100030C08091E80082FDEACF8091E80080FF39
:100E2000E1CF8091F3002091F200382F6115710518
:100E300019F02830310558F091E02830310509F0DB
:100E400090E02091E8002E772093E800CBCF8191AD
:100E50008093F100615071092F5F3F4FE7CF809180
:100E60007906882341F0853041F08091E80083FFC6
:100E7000BECF81E0089582E0089583E0089508954B
:100E8000089580916E0608959C014FB7F894809163
:100E9000050690910606A0910706B09108064FBF7F
:100EA000821B930B08952FB7F894809105069091BB
:100EB0000606A0910706B09108062FBF08959C0171
:100EC000FC0132969FEF80E04191461751F09F3F21
:100ED00019F4411101C0982F8F5F8630A9F79F3F09
:100EE00009F40895290F311D97FD3A95F9016283A0
:100EF0000895809100068111109200060895809552
:100F00009091FF0598239093FF0508958091FF0528
:100F10009091FE05892B9091FD05892B8093D60435
:100F200090910006992391F0892B8093D60420E0BC
:100F300088ED94E0FC013191CF0131112F5FF4E095
:100F40008E3D9F07B9F721110E947907E091220693
:100F5000F0912306309731F00280F381E02D86ED89
:100F600094E0099408952BE0929F800D1124982F0E
:100F7000977086958695869525E0829FF0011124CD
:100F8000E455FA4F50E040E080E0219130E0092E36
:100F900002C0369527950A94E2F721703327042E74
:100FA00001C0220F0A94EAF7822B4F5F5F4F453052
:100FB000510559F708952BE0929F800D1124982F29
:100FC000977041E001C0440F9A95EAF7869586959F
:100FD000869595E0899FF0011124E455FA4F90E041
:100FE00080E070E05191DF0111979B01082E02C053
:100FF000369527950A94E2F7217021952527242319
:1010000025272C9301968530910561F7089520914D
:10101000AB0590917A0556E0291302C080E008954F
:1010200030E0529FF001539FF00D1124E558FA4F24
:101030007181761306C07081781303C072817413B6
:1010400004C02F5F3F4F2770E7CF81E00895452B05
:1010500039F0682381E06F3F09F080E081700895E6
:1010600081E0FCCF8091AB0590917A05981301C087
:1010700008958F5F8770FACF882341F08095909113
:10108000FE0589238093FE050C9486070895882326
:1010900039F09091FE05982B9093FE050C948607ED
:1010A0000895882321F00E947F070C9486070895F5
:1010B000882339F09091FF05982B9093FF050C94AD
:1010C0008607089520915405309155052817390752
:1010D00071F09093550580935405E0912206F091AC
:1010E0002306309721F00084F185E02D09940895BE
:1010F00020915205309153052817390771F09093CC
:10110000530580935205E0912206F0912306309713
:1011100021F00680F781E02D099408951092FE05D4
:101120001092FD050E94860790E080E00E947808FA
:1011300090E080E00C9462086093830670938406CC
:1011400080938506909386060C948E080F931F93C8
:101150006091830670918406809185069091860641
:101160008B019C01087111272227332708311105B3
:101170002105310529F460641F910F910C949C089E
:101180006F7BFACF0F931F9341E050E060E070E077
:1011900004C0440F551F661F771F8A95D2F7CB01F5
:1011A000BA01609570958095909500918306109195
:1011B0008406209185063091860660237123822360
:1011C00093231F910F910C949C089091FC0580959E
:1011D00089238093FC05282F277071F4282F082E6F
:1011E000000C330B9217130639F08595859585957C
:1011F0000E94C2081092FC0508950F931F9341E0CE
:1012000050E060E070E004C0440F551F661F771F78
:101210008A95D2F78091830690918406A0918506E5
:10122000B09186068A019B01082B192B2A2B3B2B98
:10123000C901B8011F910F910C949C08609301069D
:101240007093020680930306909304060C948E0814
:10125000882381F19CEF980F913A78F4E8EDF4E05F
:101260002EED34E09191891303C0DF0111971C9298
:101270002E173F07B9F70C94860790E2980F983025
:1012800050F4877091E001C0990F8A95EAF7892F91
:101290000E947F07F0CF9BE5980F933020F490E0F9
:1012A00080E00C947808885A873120F490E080E040
:1012B0000C9462080895CF93C82F882309F44EC078
:1012C0008CEF8C0F813AF8F4E8EDF4E08EED94E0C9
:1012D000DF012D91C21759F08A179B07D1F76C2FA8
:1012E00086ED94E00E945F07CF910C9486072191D0
:1012F000C21303C0DF0111971C928E179F07B9F725
:101300000E948607ECCF80E28C0F883068F4C770AB
:1013100021E030E001C0220FCA95EAF78091FF0575
:10132000822B8093FF05E0CFEBE5EC0FE33040F438
:10133000F0E0EF57FB4F808190E0CF910C9478085C
:10134000C85AC73158F4EC2FF0E0EE0FFF1FEC57EE
:10135000FB4F80819181CF910C946208CF910895C9
:10136000E0912206F0912306309721F00190F08160
:10137000E02D099480E00895CF93DF93EC0181E0A4
:10138000898B8091FF059F81892B8093FF05809138
:10139000FE059885892B8093FE050E948607EA81C9
:1013A000FB81309739F06C897D89CE010696DF91FB
:1013B000CF910994DF91CF910895EF92FF920F930F
:1013C0001F93CF93DF93EC018A85811139C0EB80A5
:1013D000FC8087E5F81A26E12E9DC0012F9D900D17
:1013E0001124DC01AD5EBC4F1496ED91FC91159774
:1013F000309731F054966D917C91875E9C4F0995A2
:1014000086E18E9D80018F9D100D11240D5E1C4F75
:10141000F80187810E947F07F8018085982F9095B9
:101420008091FE0589238093FE050E94860718821D
:1014300019861B861E821D821092710510927005FE
:10144000DF91CF911F910F91FF90EF900895FA01D6
:10145000811101C0FB01099480914106982F9E7F64
:1014600061F48170826080934106809144068B3FD5
:1014700018F08AEF8093440608958434B0F38170A5
:101480008264F1CFAF92BF92DF92EF92FF920F93FF
:101490001F93CF93DF93082F162FE901E42FF0E07D
:1014A000E453F84F611110C0E4915E2F4E2F498331
:1014B000E8835A83DF91CF911F910F91FF90EF90B6
:1014C000DF90BF90AF900895E62EF12C4491D42E7A
:1014D000E42FF0E026E0829FC00111242FEF30E0DE
:1014E000B9010E94132E802F90E0880F991F55E5B7
:1014F000569FD001579FB00D11248A1B9B0B982F2C
:10150000990F890F5901AE18BF08AE9ED001AF9E4A
:10151000B00DBE9EB00D11245B2F189F80011124C9
:10152000012F11275901A01AB10AAE9E8001AF9E6A
:10153000100DBE9E100D11245901A81AB108AE9CC1
:10154000C001AF9C900DBE9C900D1124892F99274E
:10155000281B390B2E9FC0012F9F900D3E9F900D91
:101560001124E92F62307105A1F050F46115710565
:1015700009F49DCF6130710581F0EB2F512F97CF8A
:101580006430710569F080F06630710509F48FCF21
:10159000F4CFE42F4B2F592F8ACFE42F412F87CF41
:1015A000EB2F542F492F83CF4B2F5D2DE12F7FCF72
:1015B00090911F0692FF06C0282F28712830F9F459
:1015C000877F846093FF06C0282F28712831F1F4AB
:1015D000877E84612091200620FF06C0382F387155
:1015E0003830D9F4877F816021FF06C0282F287109
:1015F0002831D1F4877E816194FD877E0895282F5C
:1016000024712430F9F68B7F8860DCCF282F247179
:10161000243101F78B7E8861DDCF382F3171313075
:1016200019F78E7F8860E0CF282F2171213121F7B3
:101630008E7E8861E1CFCF93DF93972F70E02BE010
:10164000929F600D711D1124FB0139E7839FE00D0E
:10165000F11D1124EE0FFF1FE25DFE4FC591D491E5
:10166000CE01C238D105B9F1E8F5C133D10509F48D
:1016700099C050F5C932D10509F48DC0CA32D105DF
:1016800009F497C0C11542E5D40708F0B6C0C115EA
:1016900021E5D20708F024C1C83ED10508F09DC05D
:1016A000C03ED10568F5C83AD10508F089C0C53AF1
:1016B000D10508F0EDC0C130D10511F1209709F432
:1016C00043C02497E8F440C0C533D10509F45CC099
:1016D000C933D105B9F620911F06237089F080EE39
:1016E00090E00EC0C33ED10591F168F4C03ED10533
:1016F000F9F0C23ED10531F620911F0622FD20C02F
:10170000DF91CF910895C63ED10561F1C73ED10565
:1017100081F1C43ED10509F0B5CF2091200621FF0B
:10172000EFCF80911F0684FD0FC087EE90E0E8CFD9
:1017300020911F0620FD01C13091200630FFE0CF2F
:1017400083EE90E024FFDCCF90E080E0D9CF2091C1
:101750001F0622FDF5C03091200630FDC0CF24FFCA
:10176000CFCFF2CF20911F0623FFCACF24FDECCFAD
:10177000DCCF20911F0623FDE6C03091200631FF0B
:10178000EECF84EE90E0BCCF20911F0625FFB8CFAE
:1017900089E290E0B5CF20911F0625FFB1CF85E308
:1017A00090E0AECF20911F0626FFAACF8AE290E0FC
:1017B000A7CF20911F0626FFA3CF81E390E0A0CF03
:1017C000CF3BD10508F6C85AD0E0CC0FDD1FCC576F
:1017D000DB4F88819981946493CFC11530E5D3079D
:1017E00008F062C0C11540E4D40708F059C0DA958A
:1017F000C115DF4108F484CFA7CFC11536E5D30763
:1018000018F5C11545E5D40708F080C0C11584E579
:10181000D80708F076C09C2F96959695AE01437038
:101820005527C115D34508F460C021E030E002C05F
:10183000220F331F4A95E2F740E2949FC001112422
:10184000822B932B9A685CCFC1153AE5D30778F4C5
:10185000C11549E5D40708F063C0C11588E5D8076C
:1018600008F472CF9C2F8827806F906A49CFCE01F1
:1018700090568115904208F067CF8D2F8F710E948E
:10188000D80A90E0982F882788279F718C2B46C014
:10189000C55AD0E0CF57DB4F888190E0906430CFBD
:1018A000CE019F70906A2CCF9E01E4E0369527957B
:1018B000EA95E1F723708C2F86958695837030E248
:1018C000839FC0011124922BC37021E030E002C03D
:1018D000220F331FCA95E2F7822B932B9C6810CFFF
:1018E0009C2F8827816F906A0BCF21E030E002C0E7
:1018F000220F331F4A95E2F740E2949FC001112462
:10190000EBCF9C2F8827846F906AFACE8C2F0E9491
:10191000D80A90E0982F882788279F719062F0CE90
:101920008C2F8F700E94D80A34E0D695C7953A95CF
:10193000E1F7CF709C2F9069E3CE89E390E0E0CE91
:1019400082EE90E0DDCE86EE90E0DACEBF92CF92CE
:10195000DF92EF92FF920F931F93CF93DF938C014F
:10196000C0908306D0908406E0908506F0908606AD
:101970008091010690910206A0910306B0910406A1
:10198000C82AD92AEA2AFB2ACFE1D0E0BC2ED70107
:10199000C6010C2E04C0B695A795979587950A9415
:1019A000D2F780FD0EC0219788F7B12C8B2DDF91E7
:1019B000CF911F910F91FF90EF90DF90CF90BF904C
:1019C0000895B8018C2F0E941B0B019761F3EECF95
:1019D000CF93DF93EC010E94A60CBE01DF91CF9163
:1019E0000C941B0B0E94E80C292F2F7092959F706E
:1019F00092509E3078F4E92FF0E0EC5AFD4C0C94B4
:101A00003B2E803F19F020F4883E20F481E00895B9
:101A1000843FE1F380E00895883EC0F3813FD1F731
:101A2000F5CF822F86958695869508951F93CF933F
:101A3000DF9300D000D00F92CDB7DEB749835A8331
:101A400089819A81662331F1222321F10E94A60C1B
:101A5000182F682F89819A810E94DB078A81E9818A
:101A6000F0E09BE0899FE00DF11D112489E7189FAC
:101A7000E00DF11D1124EE0FFF1FE25DFE4F859179
:101A800094910F900F900F900F900F90DF91CF9146
:101A90001F9108950E94B307182FE0CFCF93DF93D3
:101AA0009C013A9521153F4168F5EC01CC27D17096
:101AB000DC01AA27B270AC01442754709C01222794
:101AC000387094FF11C080E1CD2B09F480E0AB2B7E
:101AD00009F08062452B09F08064232B09F08068AF
:101AE000FB01DF91CF91099481E0CD2B09F480E0D7
:101AF000AB2B09F08260452B09F08460232B81F326
:101B00008860EECFDF91CF910895CF93DF93EC0102
:101B10000E942809CE01805E9109089720F06CE3AD
:101B200078E0209711F461E578E0CE01DF91CF9164
:101B30000C944E0DFC018081813029F4FB018081E1
:101B400091810C94850D823021F4FB018281938177
:101B5000F8CF0895CF93DF93EC01805E9109089749
:101B600020F067E478E0209711F468E578E0CE0192
:101B70000E944E0D8C2FDF91CF910C945B09FC01DC
:101B80008081813029F4FB01808191810C94AA0D20
:101B9000823021F4FB0182819381F8CF0895CF93A5
:101BA000DF93EC018881823039F4FB0182819381DB
:101BB0000E94AA0D81E08B87DF91CF910895FC01EF
:101BC000838194818130974549F480910501843067
:101BD00019F482E00E94C208109205010895CF9383
:101BE00084E090E00E94412EC82F81E290E00E94A4
:101BF000412E982F8C2FCF910895CF93DF9300D053
:101C00000F92CDB7DEB790917906943019F589839C
:101C10007B836A8382E08093E9008FEF9091E800F4
:101C2000815095FD06C095ED9A95F1F70000811160
:101C3000F5CF8091E80085FF0DC050E040E063E003
:101C400070E0CE0101960E9405068091E8008E7733
:101C50008093E8000F900F900F90DF91CF9108953F
:101C6000BC0184E00C94FD0DBC0183E00C94FD0DDF
:101C7000CF93DF93EC0181E08093E9008FEF9091A7
:101C8000E800815095FD06C095ED9A95F1F70000AA
:101C90008111F5CF8091E80085FF14C050E040E04D
:101CA00068E070E0CE010E9405068091E8008E7722
:101CB0008093E80088E0FE01AFE6B6E001900D9267
:101CC0008A95E1F7DF91CF910895CF93C82F0E94B5
:101CD0005B098C2FCF910C942809EF92FF920F9300
:101CE0001F93CF93DF937B01C42FD22FFC018281FE
:101CF0008823B1F0409372050E94530790935105D9
:101D000080935005C77081E001C0880FCA95EAF73B
:101D1000DF91CF911F910F91FF90EF900C94580895
:101D20001091720514133CC080915005909151059B
:101D30000E944407F8E3EF16F2E7FF0689F1883CBA
:101D4000910570F5C0E2CD0F1D17B9F080E2810F4B
:101D5000883040F4177081E001C0880F1A95EAF7C7
:101D60000E945108C83048F481E09D2F977001C04F
:101D7000880F9A95EAF70E945808802F0E94650EF6
:101D8000C830A8F4D77081E001C0880FDA95EAF76F
:101D9000DF91CF911F910F91FF90EF900C9451081C
:101DA000C77081E001C0880FCA95EAF7F1CFDF91D3
:101DB000CF911F910F91FF90EF900895FC019081BA
:101DC000913081F48285811113C0909305012381A4
:101DD00034812130374579F5933091F058F49111E1
:101DE0000CC00895923071F3933079F398E0EDCF01
:101DF00094E0EBCF9430E1F0089589E20C94650E05
:101E00008091830690918406A0918506B091860604
:101E10000097A105B10561F022E0B695A7959795C9
:101E200087952A95D1F780FF03C082E00C94C20801
:101E300082E00C94FD080895AF92BF92CF92DF929A
:101E4000EF921F93CF93DF93CDB7DEB7AA970FB66C
:101E5000F894DEBF0FBECDBF8091410680FD0AC061
:101E6000E6E2F5E0118210821282339685E0E035D9
:101E7000F807C1F771EDA72E78E0B72EDE011196B5
:101E8000AE01455D5F4F1A2F7B2FF5018491282FFE
:101E900030E0C901880F991F820F931F8A5D9A4F06
:101EA000FC01C080D180E280CD92DD92ED92FFEF07
:101EB000AF1ABF0AA417B50741F7809A31B33E7F26
:101EC00021B321606FB7F894812F972FFC01719196
:101ED000CF01E8E021BB000000C077FF31BB770FE6
:101EE000000000C000C000C031BB00C0EA9591F7FF
:101EF0008417950759F76FBF8FE594E00197F1F7C5
:101F000000C00000AA960FB6F894DEBF0FBECDBF8A
:101F1000DF91CF911F91EF90DF90CF90BF90AF9066
:101F200008950F931F93CF93DF93C6E2D5E0FE0190
:101F3000118210821282339685E0E035F807C1F7EE
:101F400010E000E080912505082E000C990B081781
:101F50001907A4F180910F02082E000C990B80172D
:101F6000910764F1409144064B3F08F04AEF9E010F
:101F700060914306809142060E94420A0F5F1F4F04
:101F800023960E301105F1F60E941C0F80910E026F
:101F900090912505980F9093250520910F02280F09
:101FA00020930F02121614F49D301CF0819580933B
:101FB0000E02DF91CF911F910F910895198218821F
:101FC0001A82DCCFEF92FF921F93CF93DF93EC0145
:101FD00086E2E82E85E0F82E10E0409144064B3F63
:101FE00008F04AEF8C81970160914306810F0E94AF
:101FF000420A1E5E83E0E80EF11C1C3F71F70E944E
:102000001C0F9A818C8190FF08C08F5F8C83DF91B9
:10201000CF911F91FF90EF9008958150F7CFBF921D
:10202000CF92DF92EF92FF920F931F93CF93DF93A4
:10203000FC018281DD24DA9480FD02C0DD24D3948A
:1020400006E215E0D0E0C0E02EE0B22EF8011182E9
:102050001082128294E0E92EF12CC12C809124058B
:102060008C0D8F300CF440C06B2D0E94052E892FF3
:10207000082E000C990B8C179D07A9F4809144063B
:102080008E9DA0018F9D500D112455954795559516
:1020900047954B3F08F04AEF9801609143068091C5
:1020A00042060E94420ACD0CF1E0EF1AF108B1F6A7
:1020B00021960D5F1F4FCE30D10541F60E941C0FB7
:1020C0008091240591E0D91215C0811111C08DE0D5
:1020D00080932405DF91CF911F910F91FF90EF9096
:1020E000DF90CF90BF90089587FFC2CF825FC0CFAF
:1020F0008150EECF90E00196BE010E94272EE8CFDE
:102100009091410690FF0CC0E6E2F5E08183608388
:102110004283339695E0E035F907C1F70C941C0F24
:102120000895CF93DF9300D00F92CDB7DEB7909193
:10213000410690FF0DC04B3F08F04AEF9E012F5F14
:102140003F4F0E94420A4B8169818A810E94801020
:102150000F900F900F90DF91CF910895CF93DF9361
:10216000EC01EC81F0E0E152F74F4491E1E4F6E05C
:10217000628181810E9491108C818F5F8C83DF91BD
:10218000CF910895CF93DF93EC01E1E4F6E0438132
:1021900062818C810E9491108C818F5F8C83DF9192
:1021A000CF91089590E080E00E944F2E21E08C3E78
:1021B0009E4F09F020E0822F0895CF92DF92EF9298
:1021C000FF926B017C010E942C0AB701A60188E0F6
:1021D00090E0FF90EF90DF90CF900C94672E5F928D
:1021E0006F927F928F929F92AF92BF92CF92DF9227
:1021F000EF92FF920F931F93CF93DF9300D00F9234
:10220000CDB7DEB7082F762E142F622E909141069F
:1022100090FF2DC0E92FE695AE2FB0E0AA51BC4F3C
:102220008C91809346069E7F9230A1F54B3F08F03B
:102230004AEF9E012F5F3F4F672D802F0E94420A79
:102240004B8169818A810E948010009342067092BE
:10225000430610934406662051F060914106709148
:10226000420680914306909144060E94DD100F9033
:102270000F900F90DF91CF911F910F91FF90EF90F2
:10228000DF90CF90BF90AF909F908F907F906F9096
:102290005F900895823019F410914406D6CF8630AD
:1022A00019F400914206D1CF8930D9F3883169F60B
:1022B000E8518E2F8170582EE695F0E0E453F74FE9
:1022C000A590B490BB2486E2E82E85E0F82ED12CB0
:1022D000C12C9EE0892E912CC601B4010E94132EC0
:1022E000802F511016C0860F412F1B3F08F04AEF78
:1022F0009701672D0E94420ACA0CDB1C83E0E80E9E
:10230000F11C80E5E81685E0F80631F70E941C0F05
:102310009CCF861BE9CFE1E4F6E0438128E0421B35
:1023200008F440E021E0628181810C94EF10E1E447
:10233000F6E0438128E0420F08F44FEF21E062818C
:1023400081810C94EF10CF92DF92EF92FF92811176
:102350000AC08AEA611101C089EAFF90EF90DF901C
:10236000CF900C94650E813009F05CC0809183069B
:1023700090918406A0918506B09186066D01EE24A9
:10238000FF2420E0C114D104E104F10419F0D701C5
:10239000C60120E1C92EDA2EEB2EFF24C114D10490
:1023A000E104F10419F0285FD701C6016C017D0139
:1023B00054E0F694E794D794C7945A95D1F7C11492
:1023C000D104E104F10419F02C5FD701C6016C01BE
:1023D0007D0142E0F694E794D794C7944A95D1F7EB
:1023E000C114D104E104F10419F02E5FD701C60134
:1023F000B695A79597958795892B8A2B8B2B09F4F2
:10240000A8CF223009F0A5CF662331F0FF90EF90DE
:10241000DF90CF900C948B11FF90EF90DF90CF90D6
:102420000C949711FF90EF90DF90CF900895E1E426
:10243000F6E0628128E0621B08F460E021E043815D
:1024400081810C94EF10E1E4F6E0628128E0620FF4
:1024500008F46FEF21E0438181810C94EF10E1E4F7
:10246000F6E0818121E04381628188500C94EF1075
:10247000E1E4F6E0818121E043816281885F0C9490
:10248000EF1080914506882319F08150809345060E
:1024900060914106709142068091430690914406F6
:1024A0000C94DD1080914506833018F48F5F809383
:1024B00045066091410670914206809143069091D5
:1024C00044060C94DD10E1E4F6E083E080831182A1
:1024D0008FEF82838AEF838314826081718182818E
:1024E00093810C94DD106CEE7EEF90E080E00E9412
:1024F000732E60E082E090E00E94552E60E083E061
:1025000090E00E94552E1092010610920206109241
:1025100003061092040660E084E090E00E94552ECD
:1025200060E081E290E00E94552E60E085E090E05E
:102530000E94552E60E086E090E00E94552E6FEFDD
:1025400087E090E00E94552E40E050E0BA0188E01C
:1025500090E00E94672E60E08DE090E00E94552E92
:1025600040E050E0BA0188E190E00E94672E60E010
:1025700087E190E00E94552E40E050E0BA018CE1E6
:1025800090E00E94672E60E080E290E00E94552E6D
:1025900040E050E0BA018FE090E00E94672E40E0FA
:1025A00050E0BA0183E190E00C94672E0F931F93E3
:1025B000CF93DF930E94D210811102C00E94731248
:1025C00087E090E00E94412E80939E0680919F06B6
:1025D00081114BC03E9A809171008D7F8093710074
:1025E000279A80916F00877F80936F0002E00093AD
:1025F00090001AE110939100C1ECD1E1D0939700C3
:10260000C093960023EA3BE04EE855E460911E013A
:1026100070911F0180912001909121010E945330FF
:102620000E946D2F70939900609398000093800032
:1026300010938100D0938700C093860023EA3BE08B
:102640004EE855E460911E0170911F0180912001B8
:10265000909121010E9453300E946D2F70938D0044
:1026600060938C0081E080939F0680919E0680FF9E
:102670000AC063E070E086E091E0DF91CF911F91A6
:102680000F910C948913DF91CF911F910F910895B1
:1026900080919F06811102C00E94D61210922305DC
:1026A00010922205809171008D7F8093710080913E
:1026B00090008F738093900080916F00877F80934C
:1026C0006F0080918000837F8093800010929C0631
:1026D00010929D061092F2041092F3041092F404EA
:1026E0001092F50410921A0510921B0510921C0509
:1026F00010921D05EAEFF4E0A1EEB4E01192119200
:10270000119211921D921D9285E0EA31F807B1F7FE
:1027100008950F931F93CF93DF93EC018B0180916A
:102720009F06811102C00E94D61280919E0680FFF2
:1027300054C0809171008D7F8093710080916F00F3
:10274000877F80936F0080919D0681110E944813BE
:1027500081E080939C06D0939B06C0939A061093C9
:10276000990600939806109297061092930610927D
:102770009406109295061092960610929206109268
:10278000910688819981AA81BB8180938D0690935F
:102790008E06A0938F06B093900620E030E040E8CC
:1027A0005EE36C817D818E819F810E9453306093B6
:1027B000890670938A0680938B0690938C061092FC
:1027C0008806109287068091710082608093710064
:1027D00080919000806880939000DF91CF911F914D
:1027E0000F91089581E080936E0568E070E083ECBE
:1027F00091E00C94891381E080936F0568E070E0AC
:1028000083E491E00C94891360919E06616060936B
:102810009E0687E090E00E94552E62E070E083E221
:1028200091E00C94891380916F0581110C944813E9
:1028300008950E94131410926F0568E070E083E819
:1028400091E00C94891362E070E083E391E00E94D0
:1028500089132FEF81EE94E0215080409040E1F702
:1028600000C000000E94481360919E066E7F609336
:102870009E0687E090E00C94552E1092FF05E8ED3F
:10288000F4E086E0DF011D928A95E9F70C948E084A
:102890001F93CF93DF93CDB7DEB7AA970FB6F89407
:1028A000DEBF0FBECDBF8BE796E02091F100FC01AB
:1028B0002193CF01F6E083389F07B9F780917C061A
:1028C000833009F46FC0B8F4813009F446C0823017
:1028D00009F4B0C08091E80083FF87C280917B0635
:1028E00090917C069A3008F080C2E92FF0E0EE5912
:1028F000FD4C0C943B2E8A3009F48BC08B3009F4CC
:102900006EC0893039F780917B06813219F780914A
:102910007F06909180060297E8F68091E800877F15
:102920008093E8008091E80082FF37C09091F30027
:102930008091F200029729F48091F1008B7F813021
:1029400021F48091F10080936E068091E8008B77EE
:102950008093E8000E942F06BDCF80917B06813ACC
:1029600009F0B8CF8091E800877F8093E8008091DC
:102970007F0690918006892B61F468E08FE696E0EF
:1029800070E00E94E1068091E8008B778093E80078
:10299000A1CF60E090E080E0F3CF809179068111D3
:1029A000C1CF98CF80917B06813A09F093CF809177
:1029B0007F0690918006892B09F08CCF8091E800EA
:1029C000877F8093E8008091E80080FFFCCF8091B2
:1029D000C2038093F1008091E8008E77B9CF809197
:1029E0007B06813209F076CF80917F069091800638
:1029F000892B09F06FCF8091E800877F8093E800F2
:102A00000E942F0680917D068093C2030E943D1490
:102A100061CF80917B06813209F05CCF8091E80024
:102A2000877F8093E8000E942F0680917E06809326
:102A30006D0650CF80917B06813A09F04BCF809193
:102A4000E800877F8093E8008091E80080FFFCCF5A
:102A500080916D06BECF803899F0823809F0C5C1EB
:102A600080917F068F70873008F0BFC18093E900A6
:102A70008091EB0085FB882780F91092E90006C061
:102A80008091770690917806911182609091E8008C
:102A9000977F9093E8008093F1001092F10080916D
:102AA000E8008E779EC1882309F48CC1823009F03A
:102AB0009CC180917D0681118FC180917F068F70AE
:102AC0002FEF280F263008F090C18093E900209165
:102AD000EB0020FF81C1933031F48091EB008062E4
:102AE0008093EB0079C19091EB0090619093EB00A3
:102AF00021E030E001C0220F8A95EAF72093EA0036
:102B00001092EA008091EB008860EACF81116DC1DC
:102B100010917D061F778091E3008078812B809350
:102B2000E3008091E800877F8093E8000E942F06F1
:102B30008091E80080FFFCCF8091E3008068809363
:102B4000E30082E0111183E0809379064EC1805842
:102B5000823008F04AC180917D0690917E068C3DBE
:102B600023E09207A1F583E08A838AE289834FB745
:102B7000F894DE01139620E03EE051E2E32FF0E00E
:102B800050935700E49120FF03C0E295EF703F5F40
:102B9000EF708E2F90E0EA30C0F0C7968D939D9332
:102BA0002F5F243159F74FBF8091E800877F8093D2
:102BB000E8006AE270E0CE0101960E94E106809191
:102BC000E8008B778093E80010C1C096E7CF409172
:102BD0007F0650918006292F33272330310509F4D1
:102BE00045C078F52130310509F47BC08BE390E0D6
:102BF000E1E6FAE02230310509F0F7C02091E80063
:102C0000277F2093E8002091810630918206821769
:102C1000930708F49C0140E02115310509F070C0CC
:102C200041116EC08091E80082FDC9CF8091790684
:102C3000882329F2853019F28091E80083FFF2CFD2
:102C4000BECF2132310509F440C02232310509F0EE
:102C5000CCC04115510509F44EC04130510509F071
:102C6000C4C082E390E0EFEEF9E0C8CF992781304D
:102C70009105D9F0009771F082309105F1F003973A
:102C800009F0B3C0EEEAFAE0E4918E2F90E0EEEAAC
:102C9000FAE007C0E4EDFAE0E4918E2F90E0E4ED75
:102CA000FAE0009709F4A1C0A9CFE2ECFAE0E491C0
:102CB0008E2F90E0E2ECFAE0F4CFE4EBFAE0E4915E
:102CC0008E2F90E0E4EBFAE0ECCF4115510571F066
:102CD0004130510509F089C089E090E0ECE8FAE064
:102CE0008DCF82E190E0ECE9FAE088CF89E090E0D6
:102CF000E3E7FAE083CF80E490E0E1E2FAE07ECF20
:102D000080917906882309F45ACF853009F457CF8A
:102D10008091E80083FD53CF8091E80082FD82CF4F
:102D20008091E80080FF78CF9091F3008091F200CD
:102D30002115310519F08830910550F041E00897D0
:102D400009F040E08091E8008E778093E80064CF3E
:102D500044914093F1003196215031090196E8CF1A
:102D6000803809F042C08091E800877F8093E800B6
:102D700080917A068093F10092CE811136C0109135
:102D80007D06123090F58091E800877F8093E800FF
:102D900010937A060E942F06112311F084E005C0DB
:102DA0008091E30087FDFACF81E08093790642E0CD
:102DB00061EC81E00E944E0642E261EC82E00E94FA
:102DC0004E0613C080917D06813079F481E0933006
:102DD00009F080E0809378061092E9008091E80085
:102DE000877F8093E8000E942F068091E80083FF90
:102DF0000AC08091E800877F8093E8008091EB0013
:102E000080628093EB00AA960FB6F894DEBF0FBEE7
:102E1000CDBFDF91CF911F9108959091410690FF12
:102E20003DC09170811129C0926090934106662344
:102E300051F0609141067091420680914306909155
:102E400044060E94DD1060914106669570E04BE0FB
:102E500050E083E092E00E944532892BA9F0109265
:102E6000470681E080933E0620E040914406609151
:102E70004306809142060C94EF10823210F0926467
:102E8000D4CF880F982BD1CF81E0809347060E9442
:102E9000530790933C0680933B06E3CF08958091BF
:102EA00041068695815009F481E261E00C940D178A
:102EB0008091410686958F5F823208F081E061E063
:102EC0000C940D179091410690FF07C096959817A6
:102ED00020F0961710F40C94581761E00C940D171D
:102EE000CF92DF92EF92FF92CF93C82F80919F06EF
:102EF000811102C00E94D61280919E0680FF7DC083
:102F0000809122059091230508970CF076C080915E
:102F100071008D7F8093710080916F00877F809317
:102F20006F0080919C0681110E9448138C2F85545C
:102F3000990BBC01072E000C880B990B0E949E2F49
:102F400020E030E040E451E40E94FB2E9B01AC0104
:102F500060E070E080E090E40E94C03020E030E06B
:102F60004CED53E40E9453306B017C0181E080936F
:102F70009D061092F9041092F80420E030E0A901B7
:102F8000C701B6010E944E301816ECF4809122055C
:102F900090912305FC01EE0FFF1FEE0FFF1FE6507F
:102FA000FB4FC082D182E282F382FC01EE0FFF1F51
:102FB000EF51FB4F2FE030E0318320830196909357
:102FC00023058093220580917100826080937100B7
:102FD000809190008068809390008091220590916C
:102FE0002305029754F080916F00886080936F00F2
:102FF00080918000886080938000CF91FF90EF9057
:10300000DF90CF900895CF92DF92EF92FF920F93CF
:103010001F93CF93DF93C82F80919D06882309F4D7
:103020008DC080919F06811102C00E94D6128C2F04
:103030008554990BBC01072E000C880B990B0E943C
:103040009E2F20E030E040E451E40E94FB2E9B01E3
:10305000AC0160E070E080E090E40E94C03020E0CD
:1030600030E04CED53E40E9453306B017C010AEFD9
:1030700014E0C7E0D0E0A7019601F801648D758DDA
:10308000868D978D0E94F62E811172C0FE01EE0F83
:10309000FF1FEE0FFF1FE650FB4F108211821282BE
:1030A0001382CC0FDD1FCF51DB4F1982188285E0D0
:1030B000E631F80709F04BC0809122059091230575
:1030C000019797FD5DC09093230580932205809121
:1030D0002205909123052091F6043091F7042817DA
:1030E000390724F01092F7041092F604892B31F579
:1030F000809171008D7F80937100809190008F731B
:103100008093900080916F00877F80936F00809103
:103110008000837F809380001092F2041092F30469
:103120001092F4041092F50410921A0510921B05E7
:1031300010921C0510921D0510929D06DF91CF91F3
:103140001F910F91FF90EF90DF90CF9008958481B1
:103150009581A681B78181939193A193B1931082B8
:103160001182128213828A819B81899399939DCFC8
:10317000219704501109CF3FDC0709F07CCF9CCF89
:103180001092230510922205A2CF2F923F924F92C8
:103190005F926F927F928F929F92AF92BF92CF92E7
:1031A000DF92EF92FF920F931F93CF93DF9309E08B
:1031B00016E022EBA22E24E0B22EB801312C212CF5
:1031C000CC24C394D12CDB016D907D90BD011E9267
:1031D0001E92E50189915E01E82FE295EF70F0E023
:1031E00091A18F70460101C0880C8A95EAF7892F5A
:1031F000882981A382A1582C5094852182A3D0EAEA
:10320000DA95F1F790E080E0381621F19C012E5418
:103210003B4FE9014880242D22952F7030E0E901D1
:10322000E8A04D915C9111979601082E02C0220FE3
:10323000331F0A94E2F7F12CD42DDF7002C0F5940D
:10324000E794DA95E2F7E0FC3EC0242B352B11968B
:103250003C932E9301968B309105B1F681A15822B3
:1032600051A282A1882A82A281E02D913C9126154B
:10327000370509F480E0282A3394EBE03E12A3CF0F
:10328000222031F181E08093E0040E945307909363
:10329000DF048093DE048091DE049091DF040E94BD
:1032A00044070697C8F0E5E2F6E08FE196E0D80122
:1032B0002D913D918D01219331938A179B07B9F789
:1032C0001092E00409C02095309524233523BFCF08
:1032D0008091E0048111DFCF80916B058823F1F0AC
:1032E0008091670590916805009779F40E945307D3
:1032F000909368058093670580916905282F30E0D9
:10330000882329F1C901019726C00E944407209112
:103310001103309112032817390740F380913F03BE
:103320008F3F09F07EC0822DDF91CF911F910F91C9
:10333000FF90EF90DF90CF90BF90AF909F908F90D5
:103340007F906F905F904F903F902F900895809165
:103350006A058150990B40916F05442389F0295AE1
:103360003A4FF901D081895A9A4FDC018C910E9421
:10337000031880916F05882319F08D2F0E94701714
:103380008091690590E0019660916A0570E00E9465
:10339000272E80936905C2CFD29EF001D39EF00DF7
:1033A0001124ED5EFC4FE288F388E114F10441F44E
:1033B000818592858833924719F098ECE92EF12C9B
:1033C000D29E8001D39E100D11240D5E1C4FF8017A
:1033D00086818823C9F0858596850E944407E81672
:1033E000F90690F4DD9D70011124D80151968C915D
:1033F000811105C0C7018D5E9C4F0E94BC09C701A9
:10340000875E9C4F0E94DD09DF5F2D2F30E08091A9
:103410003F03082E000C990B821793070CF0BCCFCA
:1034200082CFD0E086E1D82EF0CF4F925F926F929C
:103430007F928F929F92AF92BF92CF92DF92EF9244
:10344000FF920F931F93CF93DF93CDB7DEB7A39770
:103450000FB6F894DEBF0FBECDBF7C01DC01139622
:103460004D915C91149711966C9111978C910E94DB
:103470002708C82E8111B7C721E0F701408151818B
:103480006281738184810E94160D8C01D70112968E
:103490008C91811130C00B32BDE51B0709F4A9C026
:1034A000B8F40832FDE51F0709F462C009322DE5C2
:1034B000120709F490C00D31BCE51B0709F0B4C038
:1034C000F7018281882309F44CC10E94041460C072
:1034D0000C323DE5130709F49BC00E325DE515077C
:1034E00051F7D70112968C91882309F499C086E090
:1034F0000E94FD084DC080913F038F3F61F253E170
:10350000A52E53E0B52E912C812CDD24D3948091EF
:103510003F03082E000C990B881599050CF4BBCFBE
:10352000D50116968C9116978823D9F019968D910E
:103530009C918017910739F48091700590917105E5
:103540008017910771F0F501D78614870387818969
:10355000811103C0C5010E94BC09C50106960E94E5
:10356000DD09FFEF8F1A9F0A26E1A20EB11CCFCF13
:10357000D70112968C91882359F061E083E090E0A6
:103580000E94552E61E070E080E090E00E941E09EC
:103590008091FC05877009F426C7F7018281882392
:1035A00009F421C782E0A3960FB6F894DEBF0FBEE0
:1035B000CDBFDF91CF911F910F91FF90EF90DF90E2
:1035C000CF90BF90AF909F908F907F906F905F90C3
:1035D0004F900C94E508F70182818823C9F262E0DC
:1035E00083E090E00E94552E62E070E080E090E081
:1035F000CDCFD70112968C91882331F083E00E94C1
:10360000FD080E94A608C4CF83E00E94C208F9CF3B
:10361000F7018281882311F084E0F1CF84E0F5CFB7
:1036200086E00E94C208B4CF0E31FCE51F0749F4C2
:10363000D70112968C91882309F493C00E94231419
:10364000A7CF0F31BCE51B0751F4F7018281882316
:1036500009F487C080919E0680FDF0CF36CFC80167
:103660008A529C45029778F4D70112968C91882350
:1036700009F477C01092560564E070E080E192E0B2
:103680000E94891385CF0632BCE51B0741F4F70180
:103690008281882309F465C00E94FB1379CF073229
:1036A000FCE51F0749F4D70112968C91882309F491
:1036B00058C00E9419146CCF0832BCE51B0751F4A6
:1036C00080916F05F7019281992309F44AC0811115
:1036D000F0CFE2CF0C32FCE51F0741F4D701129680
:1036E0008C918823F1F10E94F21352CF0D32BCE588
:1036F0001B0759F4F7018281882399F110926E0516
:1037000068E070E080E392E0BBCF0E32FCE51F077B
:1037100051F4D70112968C91882319F180916E058E
:103720008111ECCFE0CF0932BCE51B07D1F4F701E2
:1037300082818823B1F00E9413142091100330E09D
:103740002F5F3F4F237033272093100348E2429F9F
:10375000C001439F900D112465E070E080599D4F9A
:103760008FCF20916F0521112AC080916E058111A4
:1037700026C0C80197558F3F910509F008F4BBC0DA
:10378000033FFCE51F0709F46FC108F057C1083D6E
:103790003CE5130709F462C1093D5CE5150709F42E
:1037A00075C1073D8CE5180709F0ECC006E221EE73
:1037B00041EE67ED7CE5C7010E946D0EE9CED701B1
:1037C00012963C91332309F44AC0003E110561F47E
:1037D0000E94131481E080936D0510926C05109285
:1037E0006B0510926A05D4CE023E110571F40E9459
:1037F000131480916D05882319F081E080936C0586
:1038000010926D0510926B05C3CE033E110591F425
:1038100080916C05882319F10E94131410926D0594
:1038200081E080936B0510926905109268051092F3
:103830006705AECE80911103909112030A9702356D
:10384000110541F00135110551F48091110390915A
:1038500012030A96909312038093110399CEF701F5
:1038600081814081FBE08F9FC0011124885F9B4FC5
:10387000840F911DDC018C919091100347E3D42EAD
:103880009923C1F093E2E3ECF3E0DE01119601909D
:103890000D929A95E1F74CE0642F0E94F92D849FD8
:1038A000802D1124895CE1E0F0E0EC0FFD1FE90FB1
:1038B000F11DD080D80E3323C1F0222319F08D2DB5
:1038C0000E94701780916D05882351F080916A05E0
:1038D000E82FF0E0E95AFA4FD0828F5F80936A05B3
:1038E0000F3F110508F045CF53CE2223C9F38D2D8C
:1038F0000E940318F5CF20913F03022E000C330BDA
:103900002817390714F480933F03F701228136E129
:10391000389F4001399F900C1124C4018D5E9C4F4B
:103920005C01DC0150962C935097928116968C91F5
:103930001697992309F474C01A961C930E9319973D
:103940008F5F16968C930E945307F50196878587A3
:103950008091000687838091FE059091FF05892B59
:1039600080870190F081E02D309741F0D501549689
:103970006D917C91C401875E9C4F099510937105F0
:1039800000937005F7019281992309F4FEC4109207
:1039900072050230FCE51F0708F40EC506312CE560
:1039A000120738F098012A5F3C452930310508F0AC
:1039B00003C50E94EF0D9093200680931F060031EF
:1039C0003CE5130709F423C108F09DC008308CE5DD
:1039D000180709F4FEC008F072C00430ACE51A07FD
:1039E00009F4EFC008F058C00230ECE51E0709F4F6
:1039F000E2C080911F06826003301C4509F4DEC0DE
:103A000060911F061091200684E090E00E94552EE0
:103A1000612F81E290E00E94552E0E943D14B8CDA6
:103A2000882309F4AFCFF5018189882309F4AACF4F
:103A3000C401875E9C4F0E94DD09A4CF053F9CE531
:103A40001907F1F0B8F0063FBCE51B0709F09ACF63
:103A500007E225EE46EE66EF7CE5ADCE07E225EE09
:103A600045EE68ED7CE5A7CE06E221EE40EE63EF81
:103A70007CE5A1CE07E225EE44EE64EF7CE59BCE2B
:103A800006E221EE42EE65EF7CE595CE08E221E00C
:103A900045EE69ED7CE58FCE80911F068061063092
:103AA0002CE5120709F48AC080911F068860073050
:103AB0001C4508F483C080911F0680627FC00C30D3
:103AC0005CE5150709F49BC058F40A309CE519071A
:103AD00009F489C008F481C080911F068E7F6EC0F2
:103AE00080911F06877F0E30BCE51B0709F466C076
:103AF00080911F068B7F0F301C4508F45FC08091BA
:103B00001F068F7E5BC00B3FFCE51F0709F45DC0FD
:103B100030F503313CE5130709F481C078F4013135
:103B20008CE5180709F477C002311C4509F068CF0D
:103B30000E943D1480911F068F7740C00531ACE58F
:103B40001A0709F480C008F49CC0809120068160A7
:103B50000A3F1C4509F054CF8093200651CF0F3FF8
:103B6000FCE51F0709F465C0A8F40D3F3CE5130709
:103B700009F449C0809120068E7F0E3F1C4560F3FA
:103B80008091200683608093200664E070E080E6E8
:103B900093E032C001308DE5180709F47BC008F4CA
:103BA00062C060E002301D4509F02ACF8EE090E04F
:103BB0000E94552E25CF80911F06816080931F069D
:103BC0001FCF80911F068460F9CF8091200682600C
:103BD000C3CF80911F068064F1CF0E943D14809175
:103BE0001F068068EBCF80911F068C6080931F06B4
:103BF00064E070E080E893E00E94891301CF809137
:103C00001F068D7FDBCF809120068D7FA5CF809111
:103C10001F068F7DD3CF80911F068F7BCFCF8091E2
:103C20001F06837F80931F0662E070E080E593E0CB
:103C3000E3CF809120068C7F8093200662E070E0C5
:103C400080E493E0D9CF80911F0682FB992790F9F9
:103C500021E0922790FB82F990FB83F980931F0665
:103C600083FFE2CFC5CF80912006982F9095917069
:103C70008E7F892B90FB81F98093200681FFDECF18
:103C800084CF0E943D1490911F06892F97FB87F9DE
:103C9000805894CF61E08ACF85E380C3992309F4EB
:103CA00089C08091FF058272F801E25CFC45E43135
:103CB000F10508F076C0E459FD4C0C943B2E809140
:103CC000410680FF1BC08E7F8093410660914106B4
:103CD0007091420680914306909144060E94DD1047
:103CE00010924706BFEFE0E7F2E0B150E040F0404D
:103CF000E1F700C000000E941C0F4ACC8160809355
:103D0000410661E086950E940D1742CC4FE457E1D1
:103D100068E577E10E94270A3BCC48E557E16FE46C
:103D200077E1F8CF4FE252E168E372E1F3CF48E385
:103D300052E16FE272E1EECF47E152E163E272E1FC
:103D4000E9CF43E252E167E172E1E4CF4BE851E1B0
:103D500067E971E1DFCF47E951E16BE871E1DACF63
:103D600041E452E162E572E1D5CF42E552E161E41E
:103D700072E1D0CF61E081E0C6CF65E082E00E94D1
:103D8000621706CC68E086E0FACF6EE089E0F7CFF4
:103D900064E18FE0F4CF67E185E1F1CF61E288E192
:103DA000EECF01152CE5120709F447C00E3D1C4566
:103DB00009F483C0D7010D911C91992309F480C0A7
:103DC000C8010E94A60CD82E682FC8010E94DB07EC
:103DD000B8018D2D0E941B0B8C01882EF701A58048
:103DE000A2943FE0A322D280D1101092FE058091D0
:103DF000FC058770A1F0DD2089F0812F807F803461
:103E000021F080E2800F883050F082E00E94E508C7
:103E10008091FC058770CC24C3948111C12CB12EF4
:103E2000B2942FE0B222FBE0FB1508F480C0EB2D2A
:103E3000F0E0E058FD4C0C943B2E0E943D140E9493
:103E400013140E9453078C0163E070E080EA93E052
:103E50000E948913C8010E9444078A3F910530F1EE
:103E60000E94481381E08093E00080E28093D800B4
:103E70001092C900AFE1BEE41197F1F700C0000055
:103E800087E090EBDC018093A0069093A106A093BD
:103E9000A206B093A30688E19CE00FB6F894A8951B
:103EA000809360000FBE90936000FFCF8FE99FE08A
:103EB0000197F1F700C00000CDCF0E94731268CBCC
:103EC000C8010E94B307D82E83CF212F2F70A22EB6
:103ED000107F19F0A29490EFA922DD20C9F0AA204A
:103EE00069F080E2800F883010F081100BC0809163
:103EF000FF05A82AA092FF050E948607802F0E9436
:103F00005B0915C08091FE05A82AA092FE05F4CF9A
:103F1000802F0E942809AA2051F0005E083010F07E
:103F2000811049C08A2D0E947F070E948607AB2D11
:103F3000A850BB0B149710F40E94B009CC20A9F034
:103F40008091FC0580FD11C0F70112828595859551
:103F500085950E94FD08C7010E94151A8091FC05F5
:103F60008595859585950E94C20820E0D7014C91E2
:103F700011965C91119712966C91129713967C9101
:103F8000139714968C91A3960FB6F894DEBF0FBECC
:103F9000CDBFDF91CF911F910F91FF90EF90DF90F8
:103FA000CF90BF90AF909F908F907F906F905F90D9
:103FB0004F900C94160DA0948091FE05A822A0921B
:103FC000FE05B3CF312F3F70932E107F103219F0C2
:103FD000929480EF9822882089F051E0851679F13B
:103FE000DD20D1F1AA2089F1D70115968C91159782
:103FF00080FF84CF8F7015968C9327C0DD2091F0C1
:1040000090910006892D892BA11003C00E945808A9
:104010008ECFA1E0AA12FACF981709F488CF809327
:10402000000685CFA11006C00E947907892D0E9445
:1040300051087DCFB1E0AB1609F479CFF5CFDD2083
:1040400031F0E2E0EA1508F472CF892DDFCFF1E01C
:10405000FA1508F46CCFEACFAA2041F3B9E38B122A
:1040600009C0EFEFF7EE23E0E150F0402040E1F728
:1040700000C00000802F0E94280959CF812F86950B
:104080008695837061F0813009F051CFC80193703B
:10409000D11002C090E080E00E94620848CFC801C1
:1040A0009370D11002C090E080E00E9478083FCF6A
:1040B000812F837009F066C0D11039CF802F82958F
:1040C00086958770880F880F602F6F70462E512C51
:1040D000712C612C082E04C0440C551C661C771CE6
:1040E0000A94D2F740E050E0BA0104FF0FC04FE05D
:1040F00050E060E070E004C0440F551F661F771F5A
:104100008A95D2F74095509560957095812F869548
:1041100086958370823019F1D8F4009101061091D0
:1041200002062091030630910406813069F044298B
:10413000552966297729CB01BA016023712382238F
:1041400093230E941E09F3CE402A512A622A732A21
:10415000CB01BA016429752986299729F2CF442910
:1041600055296629772900910106109102062091B0
:10417000030630910406CB01BA016027712782271C
:104180009327DFCF8695DD2011F0812F8170882362
:1041900009F4CDCE802F829586958770880F880F81
:1041A000602F6F70462E512C712C612C082E04C08C
:1041B000440C551C661C771C0A94D2F740E050E072
:1041C000BA0104FF0FC04FE050E060E070E004C0AF
:1041D000440F551F661F771F8A95D2F7409550955B
:1041E00060957095812F869586958370823019F140
:1041F000D8F40091830610918406209185063091B1
:104200008606813069F04429552966297729CB0132
:10421000BA0160237123822393230E949C0887CED6
:10422000402A512A622A732ACB01BA0164297529CE
:1042300086299729F2CF44295529662977290091A3
:104240008306109184062091850630918606CB0165
:10425000BA016027712782279327DFCF1F70DD20E7
:1042600029F0812F0E94FD08802FD0CE802F0E9440
:104270005108812F0E94C2085ACE802F32EF831638
:1042800009F450C0381578F050EF851619F191EF08
:10429000891609F43FC0DD2009F467C0A1102ECEB5
:1042A000812F8F713CC0A3EF8A1609F440C0B4EF90
:1042B0008B12F1CFDD2009F44DC01F71812F0E94B8
:1042C000FD0828E0129FC001112483608093FC0543
:1042D000812F25C0DD20C9F0E1E0EA1508F427CEE2
:1042E0001F7161E070E080E090E004C0660F771F0E
:1042F000881F991F1A95D2F70091830610918406A2
:104300002091850630918606A4CFF2E0FA1508F4D4
:104310000ECEE6CF812F8F71DD2009F4ABCF0E9446
:10432000FD0805CE812F8F71DD20C9F3A3CF60E09A
:1043300070E0CB01DD2009F470CF1F7161E070E007
:1043400080E090E004C0660F771F881F991F1A95C0
:10435000D2F763CF81E00E94E50831E03A1508F01A
:10436000E6CD82E00E94E508E2CDAA2059F089332B
:1043700009F080CE5FEF87EE93E05150804090408F
:10438000E1F776CE812F8F7175CF06311C4509F08C
:1043900011CD8091730581117FCC89E2E8EDF4E0C5
:1043A0002EED34E09191891303C0DF0111971C9227
:1043B0002E173F07B9F714C00631ECE51E0709F0C8
:1043C0006DCC8091FF058A7A91E009F490E090939A
:1043D000730569E2811165E386ED94E00E945F0751
:1043E0000E948607D5C8A3960FB6F894DEBF0FBE0D
:1043F000CDBFDF91CF911F910F91FF90EF90DF9094
:10440000CF90BF90AF909F908F907F906F905F9074
:104410004F900895BF92CF92DF92EF92FF920F9349
:104420001F93CF93DF9380917905807F61F4809112
:104430007605882341F0C091AB0586E0B82E8091C7
:104440007A058C130AC0DF91CF911F910F91FF90D5
:10445000EF90DF90CF90BF900895F0907405E090BA
:104460007505C0907705D0907805A6016E2D8F2D2B
:104470000E942708D0E0811141C0BC9E8001BD9EF2
:10448000100D1124F801E558FA4F51815E1136C024
:1044900040814F1133C08281811130C0E380F480AC
:1044A00020E06091760570917705809178050E94F3
:1044B000160D8833924711F1EC18FD0888ECE816C8
:1044C000F104E0F4809179058F7080618093790523
:1044D000F801E058FA4F80818F708061808384E713
:1044E00095E00E94151ADF91CF911F910F91FF90D7
:1044F000EF90DF90CF90BF900C9432082196C77058
:104500009ECF7F928F929F92AF92BF92CF92DF9277
:10451000EF92FF920F931F93CF93DF93CDB7DEB748
:1045200061970FB6F894DEBF0FBECDBF8C0185E05A
:10453000F801DE011D9601900D928A95E1F7D801F0
:10454000DC901196EC9011971296CC9080907705A4
:1045500090907805A40160917505809174050E9482
:104560002708811197C1F801A380B480F0907605E7
:10457000C501881999094C0120E0409174055091BA
:104580007505FF2009F433C16F2D70917705809177
:1045900078050E94160D709079058833924709F4CA
:1045A000D7C0B8EC8B16910408F0D2C040917705C3
:1045B000509178059090740580907505872D807FC7
:1045C000682D09F07FC0892D0E942708FC2C8111DD
:1045D00028C08E1026C09D1024C0C11022C0872D77
:1045E0008F7080618093790584E795E00E94151AA9
:1045F00080917905F80185838F2D61960FB6F89427
:10460000DEBF0FBECDBFDF91CF911F910F91FF9005
:10461000EF90DF90CF90BF90AF909F908F907F9062
:10462000089520E0409174055091750560917605DC
:1046300070917705809178050E94160DA5016E2D69
:104640008D2D0E942708811125C081E08C25F82F2F
:10465000F170AF2E80FF2CC04C2D6E2D8D2D0E9441
:104660000708B82E811124C0DD86EE868D859E85D3
:104670000E94E80C292F22952F70223068F02430F8
:1046800090F49F7069F0D80115969C91907F41F449
:10469000FB2CB2CF80E0DBCF9F7011F08823C1F3F9
:1046A000805E8830A8F3C8010E94151ABA2CF0CF9A
:1046B000CC2009F4A1CF80917905816080937905A0
:1046C000F12C9ACF892D0E942708811114C08E10D9
:1046D00012C09D1010C0C1100EC0F8017582C80133
:1046E0000E94151A86E0F801A4E7B5E001900D924A
:1046F0008A95E1F781CFDD86EE868D859E850E94C5
:10470000F20C882309F1CC20F9F0809179058032F0
:1047100070F0209174053091750538872F831986C4
:10472000BB86AA868C87CE0107960E94151A86E062
:10473000F801A4E7B5E001900D928A95E1F70E9497
:104740000A22FF24F39458CFC8010E94151AF9CF0A
:10475000872D807F61F484E795E00E94151A86E03A
:10476000E4E7F5E0DF011D928A95E9F7A9CF909083
:104770007405809075054091770550917805682DF6
:10478000892D0E942708811115C08E1013C09D101D
:1047900011C0C1100FC080917905F8018583C8014F
:1047A0000E94151AE4E7F5E086E0DF011D928A9584
:1047B000E9F722CFDD86EE868D859E850E94F20C7C
:1047C000882311F2CC2009F4BFCF80917905803283
:1047D00008F4ADCF20917405309175053A83298393
:1047E0001B82BD82AC828E83CE0101969ECF60E09B
:1047F00070917705809178050E94160D8833924755
:1048000009F444C0E8EC8E16910408F03FC0FC2C7B
:10481000CC2009F499CFC0907405B09075054091F3
:104820007705509178056B2D8C2D0E9427088111FA
:104830001CC0BE101AC0CD1018C09091790590FD13
:1048400051CF907F09F44ECF80917905D80115960C
:104850008C931597903F09F442CF982F907F905FEB
:104860008F70892B15968C933ACFDD86EE868D85D9
:104870009E850E94F20C81115ACF8091790581604A
:1048800080937905C8010E94151AB6CE86E0E4E748
:10489000F5E08BCFCC2009F457CFDD86EE868D85F1
:1048A0009E850E94F20CF82E882309F44DCF86E0F5
:1048B000F801A4E7B5E001900D928A95E1F78091A7
:1048C0007405909175050E94E80C0E940A2294CE0E
:1048D0001F93CF93DF93CDB7DEB767970FB6F894EA
:1048E000DEBF0FBECDBF4B8B5C8B6D8B7E8B8F8BFA
:1048F0001A8A198A85E0FE017396DE011D960190E1
:104900000D928A95E1F786E0FE013D96DE0117964D
:1049100001900D928A95E1F7CE0107960E948122BF
:10492000811111C086E0FE013796DE0111960190DB
:104930000D928A95E1F74A855B8568858F810E9493
:104940002708882389F016E08091AB0590917A05BD
:10495000891337C067960FB6F894DEBF0FBECDBF80
:10496000DF91CF911F91089520917A0530E0C90120
:104970000196877099274091AB054817190699F061
:1049800096E0929FD001939FB00D1124A558BA4F85
:10499000FE01319601900D929A95E1F780937A0588
:1049A0000E943208D0CF0E943D1410927A051092D6
:1049B000AB0586E0E4E7F5E0DF011D928A95E9F7B3
:1049C000C2CF819FC001112485589A4F0E94812235
:1049D000882309F4BFCF8091AB0590E001968770E2
:1049E00099278093AB05B0CF1F920F920FB60F920D
:1049F00011242F933F934F935F936F937F938F93E4
:104A00009F93AF93BF93CF93DF93EF93FF93D09197
:104A1000E900DF708091EC00C82FC17080FDC0E814
:104A20001092E9008091F000877F8093F0007894E5
:104A30000E9448141092E9008091F00088608093F1
:104A4000F000CD2BCF70C093E900FF91EF91DF9183
:104A5000CF91BF91AF919F918F917F916F915F9116
:104A60004F913F912F910F900FBE0F901F9018956F
:104A70001F920F920FB60F9211242F933F934F93D3
:104A80005F936F937F938F939F93AF93BF93EF93B6
:104A9000FF938091E10082FF09C08091E20082FFD4
:104AA00005C08091E1008B7F8093E1008091DA0066
:104AB00080FF24C08091D80080FF20C08091DA0060
:104AC0008E7F8093DA008091D90080FF9FC080E1C3
:104AD00089BD82E189BD09B400FEFDCF81E08093EC
:104AE000790680916C06811109C00E94B5050E946B
:104AF00080068091E20084608093E2008091E10072
:104B000080FF17C08091E20080FF13C08091E20017
:104B10008E7F8093E2008091E20080618093E200CA
:104B20008091D80080628093D80019BC85E0809382
:104B300079068091E10084FF2DC08091E20084FF1E
:104B400029C080E189BD82E189BD89B5982F917026
:104B500080FFFBCF8091D8008F7D8093D80080911B
:104B6000E1008F7E8093E1008091E2008F7E809350
:104B7000E2008091E20081608093E20080917A06F9
:104B8000882309F449C084E0809379060E943D148B
:104B90000E94B0098091E10083FF27C08091E2006C
:104BA00083FF23C08091E100877F8093E10082E052
:104BB0008093790610927A068091E1008E7F80932F
:104BC000E1008091E2008E7F8093E2008091E2001C
:104BD00080618093E20042E060E080E00E944E0647
:104BE0008091F00088608093F000FF91EF91BF9179
:104BF000AF919F918F917F916F915F914F913F9175
:104C00002F910F900FBE0F901F90189519BC109206
:104C1000790610926C0672CF8091E30087FD93E0D5
:104C200090937906B3CFCDB7DEB72C970FB6F89433
:104C3000DEBF0FBECDBF84B7877F84BF0FB6F894A9
:104C4000A895809160008861809360001092600058
:104C50000FBE80E890E00FB6F894809361009093C7
:104C600061000FBE85B7806885BF85B7806885BF46
:104C70000E94B5050E9480068091E20084608093C6
:104C8000E2007894809179068823A1F01091E900E0
:104C90001F709091EC00892F817090FD80E8182B97
:104CA0001092E9008091E80083FD0E9448141F7073
:104CB0001093E90082E084BD93E095BD9AEF97BD23
:104CC00080936E00A2EBB4E04DEB54E061E070E045
:104CD0008D91E82FE295EF70F0E011A18F709B01AC
:104CE00001C0220F8A95EAF7922F9095912391A304
:104CF00082A1822B82A34A175B0751F7A2EBB4E093
:104D00004DEB54E061E070E08D91E82FE295EF709B
:104D1000F0E011A18F709B0101C0220F8A95EAF784
:104D2000922F9095912391A382A1822B82A34A175F
:104D30005B0751F7E9E0F6E08FE196E0A5E2B6E027
:104D4000119211921D921D928E179F07C9F70E9412
:104D5000D210811102C00E9473120E94D6120E94CA
:104D6000D210811102C00E94731282E090E00E9472
:104D7000412E809355060E94EF0D9093200680935C
:104D80001F0683E090E00E94412E682F70E090E0C3
:104D900080E00E941E0980912106811133C00E948B
:104DA000D210811104C00E9473120E94631288E025
:104DB00090E00E94492E60934106709342068093D2
:104DC0004306909344066E7F71F40E94631288E05C
:104DD00090E00E94492E60934106709342068093B2
:104DE0004306909344060E942C0A10924706809135
:104DF000410680FF04C060E086950E940D1781E0A7
:104E00008093210665ED74E0E0E58E2EE6E09E2EAF
:104E10002DEC34E0E1EDF4E041E050E01191812F20
:104E200082958F7090E0DC019196FC9091971F70B5
:104E3000E12E6A0101C0CC0C1A95EAF70C2D009501
:104E40000F2191960C93919792961C9192971C2901
:104E500092961C93D901FD909D010F2D02950F7024
:104E600010E0D8019196BC90BF2DBF70FB2E6A0157
:104E700001C0CC0CBA95EAF7DC2CD094DB20D80129
:104E80009196DC9291979296DC909297DC2892967C
:104E9000DC92DC0190968C9190E002C0959587950C
:104EA000EA94E2F78170D80190960C9110E002C06C
:104EB00015950795FA94E2F790E000FD92E0892BB2
:104EC000D4018D934D016E177F0709F0A7CF88EBB2
:104ED00093E0909323068093220622242A945BE396
:104EE000452E56E0552E68E1662E712C809179068C
:104EF000853009F40CC10E94C518E6E5F6E0A5E28C
:104F0000B6E010E000E0702F8D919D9121913191DC
:104F10002817390709F439C12827392760E0EE241A
:104F2000E394F12CA9014E215F21452B09F427C1FF
:104F300069837A839C012E213F2191E0232B09F480
:104F400090E09B830E9453078160782F9D838C8320
:104F500049815A816B818D810E946824000F111F45
:104F6000F801EA5AF94F80819181E826F926F18209
:104F7000E08280914706882309F441C0809146066B
:104F8000E0914106E695E81BE0933D06823009F08A
:104F900012C1F0E0E551F64FE4910E2F10E0FEEA69
:104FA000EF2EF0E1FF2E80913E06882389F01092CB
:104FB0003E060E945307980120953095820F931F5B
:104FC00090933C0680933B061092400610923F0659
:104FD00080913B0690913C060E9444078017910700
:104FE00070F0E0913B06F0913C060E0F1F1F1093EE
:104FF0003C0600933B068BE396E0F70109950CE431
:1050000016E088E4E82E86E0F82E9DECA92E94E0C8
:10501000B92E21ED822E24E0922E30E5C32E36E00B
:10502000D32E312CD601ED916D01EE0FEE0FD40190
:105030002D914D01A22FA295AF70B0E090968C916A
:1050400090E02F7002C0959587952A95E2F78170C0
:105050009927D5014D915D01A42FA295AF70B0E0C5
:1050600090962C9130E04F7002C0359527954A9567
:10507000E2F7A9014170552720FF02C042E050E04D
:10508000842BE82BD6011197EC931C870B87EF70CC
:10509000F0E0E354FB4F8081F8019081890F808319
:1050A000843044F0D7018C918F5F8C9360E0832D26
:1050B0000E94A311F80180818D3F44F4D7018C91A7
:1050C00081508C9361E0832D0E94A3110F5F1F4FCD
:1050D000F8013197AB85BC858C91837887FF03C03D
:1050E00081508C6F8F5F80833394BFEFEB1AFB0A84
:1050F000E4E03E1297CF0E94B009909154068917C0
:1051000009F4F4CE0E94B00980935406EFCE80914A
:105110007906843011F11092240680E40FB6F894D9
:10512000A895609260000FBE8093600083B7817F76
:10513000846083BF83B7816083BF7894889583B789
:105140008E7F83BF0FB6F894A89580916000886128
:1051500080936000109260000FBE809178068823D3
:1051600009F4C4CE0E94C518E5E2F6E08191919160
:10517000892B09F05DC04E165F06C1F7B7CE6F5F91
:10518000EE0CFF1C6B3009F0CDCE0F5F1F4F0B30C4
:10519000110509F0B8CE2E822F8218860E9453077F
:1051A0008160782F9A8789874E815F8168858A859B
:1051B0000E946824DECE863059F4F0E0E851F64FC4
:1051C000E4910E2F10E0E2ECEE2EE0E1FE2EEBCEAD
:1051D000893061F4E695F0E0EB51F64FE4910E2F43
:1051E00010E072EEE72E7FE0F72EDDCE8F3061F417
:1051F000E695F0E0EE51F64FE4910E2F10E06FE0EF
:10520000E62E60E1F62ECFCE00ED17E04FE3E42E60
:1052100047E0F42E853109F0C6CEF0E0E152F64FBA
:10522000E4910E2F10E051E9E52E5FE0F52EBBCEA4
:10523000F0E1F9BD82E189BD09B400FEFDCF8091A6
:10524000D8008F7D8093D8008091E00082608093A9
:10525000E0008091E00081FDFCCF48CE78941F9261
:105260001FB61F9211248F939F93AF93BF9380918A
:10527000050690910606A0910706B09108060196D2
:10528000A11DB11D8093050690930606A093070605
:10529000B0930806BF91AF919F918F911F901FBE51
:1052A0001F9018951F921FB61F9211248F939F93E2
:1052B000AF93BF9380912406811113C0809105069E
:1052C00090910606A0910706B09108064196A11D8F
:1052D000B11D8093050690930606A0930706B09330
:1052E0000806BF91AF919F918F911F901FBE1F9095
:1052F000189518951F920F920FB60F9211244F9286
:105300005F926F927F928F929F92AF92BF92CF9255
:10531000DF92EF92FF922F933F934F935F936F93A0
:105320007F938F939F93AF93BF93EF93FF9380915E
:105330009D06882309F4DFC1E0902205F090230543
:105340001E141F040CF0D7C121E0E216F10409F489
:10535000F5C020E030E0A90160911E0570911F05A5
:1053600080912005909121050E94F62E81110BC39A
:10537000F701EE0FFF1FEE0FFF1FEE50FB4F808077
:105380009180A280B38080912201882309F4F2C227
:10539000C0901A05D0901B05E0901C05F0901D05EB
:1053A00020E030E0A901C701B6010E94F62E882353
:1053B00009F4E0C2A5019401C701B6010E94F62ECE
:1053C00087FFA1C2A501940160E070E08CED93EC31
:1053D0000E94FB2E20E030E040E451E40E94FB2ECE
:1053E00020E030E040E05FE30E9453309B01AC01DD
:1053F00060E070E080E090E40E94C030A50194017C
:105400000E9453309B01AC01C701B6010E94F62EE9
:1054100087FF79C2A701960160E070E08CED93E40C
:105420000E94FB2E20E030E040E451E40E94FB2E7D
:1054300020E030E040E05FE30E9453309B01AC018C
:1054400060E070E080E090E40E94C0309B01AC011D
:10545000C701B6010E94533060931A0570931B0573
:1054600080931C0590931D05C0901A05D0901B05D4
:10547000E0901C05F0901D058091F8049091F904CE
:105480008F3F980729F001969093F9048093F804D0
:1054900080915605811116C01092220180E090E0A3
:1054A000A0E0BFE380931E0190931F01A093200111
:1054B000B093210110921E0510921F051092200535
:1054C0001092210520E034E244EF51E4C701B60117
:1054D0000E94F62E87FF08C0B6EFCB2EB8E2DB2E77
:1054E000B4EFEB2EB1E4FB2E20E030E040E051E4DD
:1054F000C701B6010E9453309B01AC0160E074E229
:1055000084E79BE40E94FB2E6B017C010E946D2FBF
:10551000709387006093860020911E0130911F01D7
:105520004091200150912101C701B6010E945330E2
:105530000E946D2F70938D0060938C0040901E052B
:1055400050901F056090200570902105E090220585
:10555000F090230520E030E0A901C301B2010E94D0
:105560004E3018160CF013C282E0E816F1040CF469
:1055700052C08091F6049091F704B7010E94272E43
:105580006C019093F7048093F604809093069090BA
:105590009406A0909506B090960620E030E040E892
:1055A0005FE3C501B4010E948A2E60939306709355
:1055B00094068093950690939606F601EE0FFF1FD2
:1055C000EE0FFF1FE650FB4FA30192016081718136
:1055D000828193810E94FB2E20E030E040E05EE378
:1055E0000E9453309B01AC01C501B4010E944E30B2
:1055F00018168CF4C6010196B7010E94272E9093CD
:10560000F7048093F6041092930610929406109279
:10561000950610929606E091F604F091F704EE0FCD
:10562000FF1FEE0FFF1FE650FB4FC080D180E280CE
:10563000F3808091F8049091F9048F3F980729F046
:1056400001969093F9048093F80480915605811196
:1056500016C01092220180E090E0A0E0BFE38093AA
:105660001E0190931F01A0932001B093210110927D
:105670001E0510921F05109220051092210520E0B2
:1056800034E244EF51E4C701B6010E94F62E87FFD1
:1056900008C056EFC52E58E2D52E54EFE52E51E442
:1056A000F52E20E030E040E051E4C701B6010E9451
:1056B00053309B01AC0160E074E284E79BE40E94FC
:1056C000FB2E6B017C010E946D2F709397006093FD
:1056D000960020911E0130911F01409120015091B0
:1056E0002101C701B6010E9453300E946D2F7093B3
:1056F00099006093980080919C06882309F41DC24C
:10570000C0908D06D0908E06E0908F06F0909006A7
:1057100020E030E0A901C701B6010E944E30181602
:105720000CF0FAC18091F8049091F9048F3F98072A
:1057300029F001969093F9048093F804809156051E
:10574000811116C01092220180E090E0A0E0BFE33A
:1057500080931E0190931F01A0932001B09321011B
:1057600010921E0510921F0510922005109221051F
:1057700020E030E040E051E4C701B6010E94533020
:105780009B01AC0160E074E284E79BE40E94FB2E85
:105790006B017C010E946D2F7093970060939600BF
:1057A00020911E0130911F01409120015091210153
:1057B000C701B6010E9453300E946D2F709399006B
:1057C0006093980060918706709188066F5F7F4FA5
:1057D0007093880660938706E0909600F09097009B
:1057E00090E080E00E949C2F4B015C014090890674
:1057F00050908A0660908B0670908C06EF2809F412
:1058000094C18091F104811190C1609196007091D2
:10581000970090E080E00E949C2F9B01AC01C301A7
:10582000B2010E94FB2E20E03FEF4FE757E40E94B9
:10583000533020E030E040E85FE30E94892EA5016C
:1058400094010E94F62E18160CF477C180919106EF
:1058500090919206019690939206809391062091E2
:105860009806309199068217930748F08091970621
:10587000882309F46BC11092920610929106E09170
:105880009A06F0919B0680919106909192069C0158
:1058900043E0220F331F4A95E1F7E20FF31F208107
:1058A0003181428153816091F104611181C161E0D4
:1058B0006093F10401979093920680939106389734
:1058C000C080D180E280F380C701B6010E94F62E2D
:1058D000811165C110928D0610928E0610928F066E
:1058E0001092900680E090E0A0E8BFE380938906E4
:1058F00090938A06A0938B06B0938C06109288062C
:10590000109287061AC1A5019401C701B6010E9431
:105910004E3018167CF5A501940160E070E08CED26
:1059200093E40E94FB2E20E030E040E451E40E942A
:10593000FB2E20E030E040E05FE30E9453309B010B
:10594000AC0160E070E080E090E40E94C030A5010E
:1059500094010E9453309B01AC01C701B6010E9423
:105960004E3018163CF4A701960160E070E08CED13
:1059700093EC56CD80921A0590921B05A0921C05BF
:10598000B0921D0571CDC12CD12C760175CDF701DA
:10599000EE0FFF1FEE0FFF1FEA50FB4F808091803C
:1059A000A280B38080912201882309F4ACC0C0900A
:1059B000F204D090F304E090F404F090F50420E0B9
:1059C00030E0A901C701B6010E94F62E882309F430
:1059D0009AC0A5019401C701B6010E94F62E87FF67
:1059E0005BC0A501940160E070E08CED93EC0E9437
:1059F000FB2E20E030E040E451E40E94FB2E20E04A
:105A000030E040E05FE30E9453309B01AC0160E076
:105A100070E080E090E40E94C030A50194010E94F3
:105A200053309B01AC01C701B6010E94F62E87FFDF
:105A300033C0A701960160E070E08CED93E40E9412
:105A4000FB2E20E030E040E451E40E94FB2E20E0F9
:105A500030E040E05FE30E9453309B01AC0160E026
:105A600070E080E090E40E94C0309B01AC01C7016F
:105A7000B6010E9453306093F2047093F304809354
:105A8000F4049093F504C090F204D090F304E090F5
:105A9000F404F090F504CDCDA5019401C701B60141
:105AA0000E944E3018167CF5A501940160E070E06C
:105AB0008CED93E40E94FB2E20E030E040E451E4C2
:105AC0000E94FB2E20E030E040E05FE30E94533074
:105AD0009B01AC0160E070E080E090E40E94C03087
